:020000040800F2
:10000000000001203D160008811400088514000836
:10001000891400088D1400089114000800000000E5
:10002000000000000000000000000000D164000893
:1000300095140008000000007165000805620008C2
:100040008D1600088D1600088D1600088D16000804
:100050008D1600088D160008991400088D160008EA
:100060008D1600088D1600088D1600088D160008E4
:100070008D1600088D1600088D1600088D160008D4
:100080008D1600088D1600088D160008000000006F
:100090000000000000000000000000008D160008B5
:1000A0008D160008A91400088D1600088D1600088A
:1000B0008D1600088D1600088D1600088D16000894
:1000C0008D1600088D1600088D1600088D16000884
:1000D0008D1600088D1600088D160008000000001F
:1000E0008D1600088D1600088D160008000000000F
:1000F0000000000000000000000000008D16000855
:10010000000000008D1600088D1600088D160008EE
:1001100000000000000000000000000000000000DF
:100120008D1600088D1600088D1600088D16000823
:100130008D16000800000000000000000000000014
:10014000000000000000000000000000B9140008DA
:100150008D1600088D1600088D1600088D160008F3
:100160008D1600088D160008000000000000000039
:10017000000000000000000000000000000000007F
:10018000000000008D1600080000000000000000C4
:040190008D160008C0
:1001C00010B5054C237833B9044B13B10448AFF391
:1001D00000800123237010BDD00A00200000000021
:1001E000ECE00008084B10B51BB108490848AFF314
:1001F00000800848036803B910BD074B002BFBD0F3
:10020000BDE81040184700BF00000000D40A0020DD
:10021000ECE00008D00A00200000000053B94AB901
:10022000002908BF00281CBF4FF0FF314FF0FF30FE
:1002300000F07EB9ADF1080C6DE904CE00F006F8CF
:10024000DDF804E0DDE9022304B070472DE9F04752
:100250008C460E460446089D002B50D18A42174614
:100260006CD9B2FA82FEBEF1000F0BD0CEF12004A1
:1002700020FA04F401FA0EF644EA060C02FA0EF72C
:1002800000FA0EF44FEA1749220CBCFBF9F01FFAF2
:1002900087F809FB10C642EA064600FB08F3B342A2
:1002A00009D9F61900F1FF3280F02281B34240F201
:1002B0001F8102383E44F61AA2B2B6FBF9F309FBDD
:1002C000136642EA064403FB08F8A04509D9E4197D
:1002D00003F1FF3280F00A81A04540F20781023B22
:1002E0003C44C8EB040443EA00400021002D62D0E6
:1002F00024FA0EF400232C606B60BDE8F0878B427B
:1003000007D9002D55D0002185E841000846BDE8F9
:10031000F087B3FA83F1002940F09080B34202D312
:10032000824200F2F880841A66EB03060120B4468C
:10033000002D40D085E81010BDE8F08712B90127E4
:10034000B7FBF2F7B7FA87FEBEF1000F35D1F31B0A
:100350004FEA17481FFA87FC0121B3FBF8F0220C83
:1003600008FB103642EA06460CFB00F3B34207D9FD
:10037000F61900F1FF3202D2B34200F2CE801046ED
:10038000F61AA2B2B6FBF8F308FB136642EA06447B
:100390000CFB03FCA44507D9E41903F1FF3202D298
:1003A000A44500F2B5801346CCEB040443EA0040B8
:1003B0009CE729462846BDE8F087CEF1200106FAE1
:1003C0000EF307FA0EF720FA01F94FEA1748CE406C
:1003D00049EA0309B6FBF8FA4FEA194408FB1A6622
:1003E0001FFA87FC44EA06430AFB0CF29A4200FA21
:1003F0000EF40AD9DB190AF1FF3180F087809A42A6
:1004000040F28480AAF1020A3B449B1A1FFA89F940
:10041000B3FBF8F108FB113349EA034301FB0CF687
:100420009E4207D9DB1901F1FF326BD29E4269D996
:1004300002393B449B1B41EA0A418EE7C1F1200E81
:1004400022FA0EF48B40234320FA0EF706FA01F449
:100450004FEA134C26FA0EF63C43B6FBFCF9270C88
:100460000CFB19661FFA83F847EA064609FB08F7F2
:10047000B74202FA01F200FA01FA08D9F61809F1B6
:10048000FF3041D2B7423FD9A9F102091E44F61B01
:10049000A0B2B6FBFCF40CFB146640EA064704FB72
:1004A00008F8B84507D9FF1804F1FF3028D2B8453D
:1004B00026D9023C1F4444EA0940C8EB0707A0FBC9
:1004C00002894F4544464E4614D329D065B3BAEB52
:1004D000040367EB060707FA0EFECB40CF404EEA57
:1004E000030385E888000021BDE8F0871346F8E69D
:1004F0001046E0E6B8EB020469EB03060138E5E7D5
:100500000446D8E7114695E78146C0E78A467CE76E
:10051000023B3C4448E708460AE702383E442FE7DE
:10052000C245E7D33E46D1E72946BDE8F08700BF84
:10053000704700BF844641EA000313F003036DD106
:10054000403A41D351F8043B40F8043B51F8043B96
:1005500040F8043B51F8043B40F8043B51F8043B9D
:1005600040F8043B51F8043B40F8043B51F8043B8D
:1005700040F8043B51F8043B40F8043B51F8043B7D
:1005800040F8043B51F8043B40F8043B51F8043B6D
:1005900040F8043B51F8043B40F8043B51F8043B5D
:1005A00040F8043B51F8043B40F8043B51F8043B4D
:1005B00040F8043B51F8043B40F8043B51F8043B3D
:1005C00040F8043B403ABDD2303211D351F8043BDD
:1005D00040F8043B51F8043B40F8043B51F8043B1D
:1005E00040F8043B51F8043B40F8043B103AEDD28C
:1005F0000C3205D351F8043B40F8043B043AF9D2DD
:10060000043208D0D2071CBF11F8013B00F8013BAF
:1006100001D30B8803806046704700BF082A13D3BC
:100620008B078DD010F003038AD0C3F10403D21AD4
:10063000DB071CBF11F8013B00F8013B80D331F808
:10064000023B20F8023B7BE7043AD9D3013A11F888
:10065000013B00F8013BF9D20B7803704B784370F3
:100660008B78837060467047000000000000000037
:1006700001F0FF01102A2BDB10F0070F08D010F853
:10068000013B013A8B422DD010F0070F42B3F6D157
:10069000F0B441EA012141EA014122F007047FF070
:1006A00000070023F0E80256083C85EA010586EAC7
:1006B000010685FA47F5A3FA87F586FA47F6A5FA03
:1006C00087F68EB9EED1F0BC01F0FF0102F007020F
:1006D00032B110F8013B013A83EA010313B1F8D1BA
:1006E0000020704701387047002D06BF354603389B
:1006F000073815F0010F07D1013015F4807F02BFD4
:10070000013015F4C03F0130F0BC0138704700BF24
:1007100000000000000000000000000000000000D9
:1007200000000000000000000000000000000000C9
:1007300000000000000000000000000000000000B9
:1007400090F800F06DE9024520F007016FF0000C11
:1007500010F0070491F820F040F049804FF00004B9
:100760006FF00700D1E9002391F840F000F1080094
:1007700082FA4CF2A4FA8CF283FA4CF3A2FA8CF3CC
:100780004BBBD1E9022382FA4CF200F10800A4FA33
:100790008CF283FA4CF3A2FA8CF3E3B9D1E9042387
:1007A00082FA4CF200F10800A4FA8CF283FA4CF3BE
:1007B000A2FA8CF37BB9D1E9062301F1200182FA78
:1007C0004CF200F10800A4FA8CF283FA4CF3A2FA7E
:1007D0008CF3002BC6D0002A04BF04301A4612BA8C
:1007E000B2FA82F2FDE8024500EBD2007047D1E98F
:1007F000002304F00305C4F100004FEAC50514F01E
:10080000040F91F840F00CFA05F562EA05021CBFEE
:1008100063EA050362464FF00004A9E781F0004156
:1008200002E000BF83F0004330B54FEA41044FEAD5
:10083000430594EA050F08BF90EA020F1FBF54EA70
:10084000000C55EA020C7FEA645C7FEA655C00F00C
:10085000E2804FEA5454D4EB5555B8BF6D420CDDDD
:100860002C4480EA020281EA030382EA000083EA60
:10087000010180EA020281EA0303362D88BF30BD00
:1008800011F0004F4FEA01314FF4801C4CEA113156
:1008900002D0404261EB410113F0004F4FEA0333B5
:1008A0004CEA133302D0524263EB430394EA050F40
:1008B00000F0A780A4F10104D5F1200E0DDB02FAAF
:1008C0000EFC22FA05F2801841F1000103FA0EF243
:1008D000801843FA05F359410EE0A5F120050EF109
:1008E000200E012A03FA0EFC28BF4CF0020C43FA3A
:1008F00005F3C01851EBE37101F0004507D54FF047
:10090000000EDCF1000C7EEB00006EEB0101B1F596
:10091000801F1BD3B1F5001F0CD349085FEA3000DC
:100920004FEA3C0C04F101044FEA445212F5800FE7
:1009300080F09A80BCF1004F08BF5FEA500C50F184
:10094000000041EB045141EA050130BD5FEA4C0C67
:10095000404141EB010111F4801FA4F10104E9D1F0
:1009600091F0000F04BF01460020B1FA81F308BFE7
:100970002033A3F10B03B3F120020CDA0C3208DDB3
:1009800002F1140CC2F10C0201FA0CF021FA02F18E
:100990000CE002F11402D8BFC2F1200C01FA02F1FE
:1009A00020FA0CFCDCBF41EA0C019040E41AA2BF23
:1009B00001EB0451294330BD6FEA04041F3C1CDAEB
:1009C0000C340EDC04F11404C4F1200220FA04F00B
:1009D00001FA02F340EA030021FA04F345EA0301B5
:1009E00030BDC4F10C04C4F1200220FA02F001FA77
:1009F00004F340EA0300294630BD21FA04F02946F9
:100A000030BD94F0000F83F4801306BF81F4801191
:100A10000134013D4EE77FEA645C18BF7FEA655C04
:100A200029D094EA050F08BF90EA020F05D054EAD6
:100A3000000C04BF1946104630BD91EA030F1EBFDB
:100A40000021002030BD5FEA545C05D140004941DF
:100A500028BF41F0004130BD14F580043CBF01F5D2
:100A6000801130BD01F0004545F0FE4141F47001B8
:100A70004FF0000030BD7FEA645C1ABF1946104693
:100A80007FEA655C1CBF0B46024650EA013406BF94
:100A900052EA033591EA030F41F4002130BD00BF53
:100AA00090F0000F04BF0021704730B54FF4806410
:100AB00004F132044FF000054FF0000150E700BF91
:100AC00090F0000F04BF0021704730B54FF48064F0
:100AD00004F1320410F0004548BF40424FF00001DD
:100AE0003EE700BF42004FEAE2014FEA31014FEA20
:100AF00002701FBF12F07F4393F07F4F81F060516F
:100B0000704792F0000F14BF93F07F4F704730B5DD
:100B10004FF4607401F0004521F0004120E700BF70
:100B200050EA010208BF704730B54FF000050AE0F7
:100B300050EA010208BF704730B511F0004502D5F8
:100B4000404261EB41014FF4806404F132045FEAFA
:100B5000915C3FF4DCAE4FF003025FEADC0C18BF9F
:100B600003325FEADC0C18BF033202EBDC02C2F195
:100B7000200300FA03FC20FA02F001FA03FE40EA27
:100B80000E0021FA02F11444C1E600BF70B54FF027
:100B9000FF0C4CF4E06C1CEA11541DBF1CEA135509
:100BA00094EA0C0F95EA0C0F00F0DEF82C4481EA71
:100BB000030621EA4C5123EA4C5350EA013518BF91
:100BC00052EA033541F4801143F4801338D0A0FB7E
:100BD00002CE4FF00005E1FB02E506F00042E0FB2B
:100BE00003E54FF00006E1FB03569CF0000F18BF31
:100BF0004EF0010EA4F1FF04B6F5007F64F54074D9
:100C000004D25FEA4E0E6D4146EB060642EAC6216B
:100C100041EA55514FEAC52040EA5E504FEACE2ED8
:100C2000B4F1FD0C88BFBCF5E06F1ED8BEF1004FDB
:100C300008BF5FEA500E50F1000041EB045170BD57
:100C400006F0004646EA010140EA020081EA03019B
:100C5000B4EB5C04C2BFD4EB0C0541EA045170BD97
:100C600041F480114FF0000E013C00F3AB8014F111
:100C7000360FDEBF002001F0004170BDC4F100045A
:100C8000203C35DA0C341BDC04F11404C4F12005DB
:100C900000FA05F320FA04F001FA05F240EA020036
:100CA00001F0004221F0004110EBD37021FA04F66C
:100CB00042EB06015EEA430E08BF20EAD37070BD26
:100CC000C4F10C04C4F1200500FA04F320FA05F085
:100CD00001FA04F240EA020001F0004110EBD37087
:100CE00041F100015EEA430E08BF20EAD37070BDF7
:100CF000C4F1200500FA05F24EEA020E20FA04F3D0
:100D000001FA05F243EA020321FA04F001F000417E
:100D100021FA04F220EA020000EBD3705EEA430EEF
:100D200008BF20EAD37070BD94F0000F0FD101F01E
:100D30000046400041EB010111F4801F08BF013C57
:100D4000F7D041EA060195F0000F18BF704703F095
:100D50000046520043EB030313F4801F08BF013D1C
:100D6000F7D043EA0603704794EA0C0F0CEA1355D8
:100D700018BF95EA0C0F0CD050EA410618BF52EA92
:100D80004306D1D181EA030101F000414FF0000098
:100D900070BD50EA410606BF1046194652EA4306A6
:100DA00019D094EA0C0F02D150EA013613D195EA1A
:100DB0000C0F05D152EA03361CBF104619460AD162
:100DC00081EA030101F0004141F0FE4141F470016C
:100DD0004FF0000070BD41F0FE4141F4780170BD5C
:100DE00070B54FF0FF0C4CF4E06C1CEA11541DBFC1
:100DF0001CEA135594EA0C0F95EA0C0F00F0A7F8C3
:100E0000A4EB050481EA030E52EA03354FEA0131EF
:100E100000F088804FEA03334FF0805545EA131302
:100E200043EA12634FEA022245EA111545EA1065CA
:100E30004FEA00260EF000419D4208BF964244F161
:100E4000FD0404F5407402D25B084FEA3202B61A80
:100E500065EB03055B084FEA32024FF480104FF454
:100E6000002CB6EB020E75EB030E22BFB61A7546C8
:100E700040EA0C005B084FEA3202B6EB020E75EB5B
:100E8000030E22BFB61A754640EA5C005B084FEAC3
:100E90003202B6EB020E75EB030E22BFB61A754690
:100EA00040EA9C005B084FEA3202B6EB020E75EB9B
:100EB000030E22BFB61A754640EADC0055EA060E5C
:100EC00018D04FEA051545EA16754FEA06164FEA9F
:100ED000C30343EA52734FEAC2025FEA1C1CC0D14B
:100EE00011F4801F0BD141EA00014FF000004FF0D8
:100EF000004CB6E711F4801F04BF01430020B4F199
:100F0000FD0C88BFBCF5E06F3FF6AFAEB5EB030C50
:100F100004BFB6EB020C5FEA500C50F1000041EB4D
:100F2000045170BD0EF0004E4EEA113114EB5C041A
:100F3000C2BFD4EB0C0541EA045170BD41F48011ED
:100F40004FF0000E013C90E645EA060E8DE60CEAF5
:100F5000135594EA0C0F08BF95EA0C0F3FF43BAF12
:100F600094EA0C0F0AD150EA01347FF434AF95EAC9
:100F70000C0F7FF425AF104619462CE795EA0C0FAD
:100F800006D152EA03353FF4FDAE1046194622E77A
:100F900050EA410618BF52EA43067FF4C5AE50EA54
:100FA00041047FF40DAF52EA43057FF4EBAE12E744
:100FB0004FF0FF3C06E000BF4FF0010C02E000BF25
:100FC0004FF0010C4DF804CD4FEA410C7FEA6C5C08
:100FD0004FEA430C18BF7FEA6C5C1BD001B050EAAB
:100FE000410C0CBF52EA430C91EA030F02BF90EA96
:100FF000020F0020704710F1000F91EA030F58BF55
:10100000994208BF90422CBFD8176FEAE37040F0B6
:10101000010070474FEA410C7FEA6C5C02D150EA54
:10102000013C07D14FEA430C7FEA6C5CD6D152EA0F
:10103000033CD3D05DF8040B704700BF84461046D4
:1010400062468C461946634600E000BF01B5FFF7D3
:10105000B7FF002848BF10F1000F01BD4DF808EDA3
:10106000FFF7F4FF0CBF012000205DF808FB00BF74
:101070004DF808EDFFF7EAFF34BF012000205DF8CE
:1010800008FB00BF4DF808EDFFF7E0FF94BF01201B
:1010900000205DF808FB00BF4DF808EDFFF7CEFF1C
:1010A00094BF012000205DF808FB00BF4DF808ED5B
:1010B000FFF7C4FF34BF012000205DF808FB00BF2C
:1010C0004FEA410C7FEA6C5C02D150EA013C0AD144
:1010D0004FEA430C7FEA6C5C02D152EA033C02D136
:1010E0004FF0000070474FF0010070474FEA410297
:1010F00012F5001215D211D56FF47873B3EB62526A
:1011000012D94FEAC12343F0004343EA505311F090
:10111000004F23FA02F018BF404270474FF0000022
:10112000704750EA013005D111F0004008BF6FF060
:10113000004070474FF00000704700BF08B506F050
:1011400025FF07F07BF9642005F0F8F8FBE700BF06
:1011500008B5044A0021044805F090F8034B1860D4
:1011600008BD00BF08E100083D110008EC0A00209E
:10117000F0B589B000240394049405940694079470
:101180000094284B1A6B42F080021A631A6B02F02B
:1011900080020092009A01941A6B42F001021A63D5
:1011A0001A6B02F001020192019A02941A6B42F04A
:1011B00002021A631B6B03F002030293029B1A4F95
:1011C00001221021384601F09FFA184D22461821BD
:1011D000284601F099FA102303930126049602236E
:1011E0000593069303A9384601F0B8F903964FF426
:1011F00088130493059403A9284601F0AFF9182336
:10120000039304960594069403A9284601F0A6F9D1
:1012100022460621084601F061F9062001F090F906
:1012200009B0F0BD00380240000002400004024056
:1012300008B50268024B9A4201D101F017F908BDC6
:101240000000014072B6FEE700B595B030220021E3
:1012500008A807F007FB0023039304930593069364
:1012600007930193214A116C41F080511164126C73
:1012700002F080520192019A02931D4A136823F4EE
:10128000404343F400431360136803F44043029364
:10129000029B012308934FF48033099302230E939A
:1012A0004FF480030F93102310934FF4A8731193FE
:1012B000042312930723139308A802F081F808B1BE
:1012C000FFF7C0FF0F23039302210491002305932E
:1012D0004FF480520692079303A802F0E5FA08B192
:1012E000FFF7B0FF15B05DF804FB00BF0038024007
:1012F0000070004008B501F09FF8FFF7A5FFFFF769
:1013000037FF00F049F900F007F804F087FFFFF716
:101310001FFF04F097FFFEE708B50D480D4B036073
:101320004FF48273436000238360C36003614361B1
:101330004FF4007282611022C261036243628362D1
:101340000A23C36202F042FC08B1FFF77BFF08BD2D
:10135000F00A00200030014000B589B0002303935B
:1013600004930593069307930268144B9A4222D183
:101370000021019103F584335A6C42F480525A647F
:101380005A6C02F480520192019A02911A6B42F057
:1013900001021A631B6B03F001030293029BE0231B
:1013A000039302230493032306930523079303A9BE
:1013B000034801F0D3F809B05DF804FB00300140A8
:1013C0000000024000B583B0002200920D4B596C22
:1013D00041F480415964596C01F4804100910099B5
:1013E0000192196C41F0805119641B6C03F0805319
:1013F0000193019B0F216FF0010001F06FF803B022
:101400005DF804FB0038024010B588B000220146A8
:10141000192001F063F8192001F092F800240194DA
:10142000134B5A6C42F001025A645B6C03F00103E7
:101430000193019B02A903A802F010FB02F0FEFA3F
:101440000C4BA3FB00239B0C013B0B480B4A026097
:1014500040F2E732C26043600461846002F040FE03
:1014600018B9054802F0F2FC00E0012008B010BDF8
:101470000038024083DE1B43480B0020000001407F
:10148000FEE700BFFEE700BFFEE700BFFEE700BFCC
:10149000FEE700BF704700BF08B507F01FF8012046
:1014A00001F03AF908BD00BF08B5024802F012FD8C
:1014B00008BD00BF480B002008B5024801F07EFCC3
:1014C00008BD00BF747100200120704708B507F007
:1014D00087F9162303604FF0FF3008BD08B54FF0C1
:1014E000FF31FFF7F3FFFEE7F8B50D46174600247E
:1014F00005E06E1CAFF30080287001343546BC4215
:10150000F7DB3846F8BD00BF70B51646002405E08D
:101510004D1C087807F0D8F801342946B442F7DBAF
:10152000304670BD4FF0FF30704700BF4FF400539E
:101530004B600020704700BF0120704700207047BB
:1015400008B50C4B1B6813B90B4A0A4B1A60094BC0
:101550001A68131809480A49091A994206D207F06D
:101560003FF90C2303604FF0FF3008BD01490B60C9
:10157000104608BD900B0020D87800200004000021
:1015800000000120034AD2F8883043F47003C2F807
:101590008830704700ED00E008B50A480A4B036048
:1015A0004FF4E133436000238360C36003610C2286
:1015B00042618361C36102F08FFE08B1FFF742FE12
:1015C00008BD00BF940B00200010014000B589B099
:1015D000002303930493059306930793026803F192
:1015E000804303F588339A4223D10021019103F50A
:1015F00094335A6C42F010025A645A6C02F0100292
:101600000192019A02911A6B42F001021A631B6B5C
:1016100003F001030293029B4FF4C0630393022380
:101620000493032306930723079303A9024800F0BA
:1016300095FF09B05DF804FB00000240DFF834D0EC
:101640000D480E490E4A002302E0D458C45004331A
:10165000C4188C42F9D30B4A0B4C002301E01360F1
:101660000432A242FBD3FFF78DFF07F0D3F8FFF758
:1016700041FE70470000012000000020D00A002039
:1016800040E60008D00A0020D8780020FEE70000DD
:1016900001FB00F0032A03D1B52101FB00F0C009D2
:1016A000C0F30A0303F58063C00AB3F5006F00D3EB
:1016B000013080B2704700BF10B4002304E0C45C66
:1016C0006240044CA25C01338B42F8DB10465DF8AB
:1016D000044B7047180C0020F0B585B007461E4635
:1016E000BDF828300C18C4F304440818B2F5445F60
:1016F00005D34A4B4A4AD6214A4807F053F81546C3
:1017000000F07F00B3F5004F12D08BB148F2010218
:1017100093420DD048F20202934209D048F20302EC
:10172000934205D0404B3E4ADB213E4807F03AF851
:10173000820042EA442141EA0302120A8DF80C2099
:1017400003F0030421438DF80D107DB9B3F5004F6C
:1017500005D0364B324AE921324807F023F87A00A7
:1017600062F07E028DF80C2001240DE018B9B3F56B
:10177000004F06D03BB142F040028DF80C2002240D
:1017800002E0012400E0012403B3A3F50043032B8E
:1017900040D8274B1B681B7D8BB10022214603A834
:1017A000FFF78AFF024629463046FFF785FF009083
:1017B00033462A4603A9204606F0DAFE2BE03346DC
:1017C0002A4603A9204606F009FF24E033462A46AC
:1017D00003A9204606F034FF154B1B681B7D022B26
:1017E00019D1182F17D00022214603A8FFF764FF54
:1017F000024629463046FFF75FFF044600211820C5
:1018000000F0DAF8844206D0094B1B685B6A13B11A
:10181000984700E0FEE705B0F0BD00BFD4E1000846
:1018200050E1000874E10008E4E100087CE20008EF
:101830000400002010B582B04FF400440094FFF77C
:101840004BFF02B010BD00BF10B582B0002305E011
:1018500002AC1C4404F8042C120A0133032BF7DDFC
:1018600001AB042289B2FFF7E5FF02B010BD00BF53
:1018700008B5002211460248FFF7E6FF08BD00BF89
:101880000400070010B50446002211460848FFF77F
:10189000DBFF002211464FF4E020FFF7D5FF2CB10B
:1018A0004FF0E05200210348FFF7CEFF10BD00BF0C
:1018B000480007001400070000B583B08DF804202D
:1018C000120A8DF8052001AB022289B2FFF7B2FFA0
:1018D00003B05DF804FB00BF10B50446012805D134
:1018E00041F6220200210648FFF7E6FF052C05D14C
:1018F0004FF4007200210248FFF7DEFF10BD00BF69
:101900000400110000B583B002AB03F8012D0122E1
:1019100089B2FFF78FFF03B05DF804FB10B582B00A
:1019200000240094FFF7D8FE02B010BD00B583B0CC
:1019300001AB042289B2FFF7F1FF0020032306E088
:1019400002AA1A4412F8042C02EB0020013B002BDF
:10195000F6DA03B05DF804FB38B505460A4C0122FF
:1019600000212046FFF7A8FF2A4600210748FFF77D
:10197000A3FF022200212046FFF79EFF002104481A
:10198000FFF7D4FF38BD00BF08000B0004000B00B8
:1019900010000B0000B583B001AB022289B2FFF743
:1019A000BDFF9DF805009DF8043003EB002080B2D8
:1019B00003B05DF804FB00BF00B583B00DF1070371
:1019C000012289B2FFF7AAFF9DF8070003B05DF876
:1019D00004FB00BF10B584B08DF80820C2F30724C3
:1019E0008DF80940C2F307448DF80A40120E8DF8B5
:1019F0000B208DF80C30C3F307228DF80D20C3F3B4
:101A000007428DF80E201B0E8DF80F3048F20303AD
:101A1000009302AB082289B2FFF75EFE04B010BD4E
:101A200008B5052807D140236FF40052002107486C
:101A3000FFF7D0FF08BD092807D14FF401536FF419
:101A4000005200210148FFF7C5FF08BD08000B0048
:101A500070B506460D46154C4FF008234FF0FF3287
:101A600000212046FFF7B6FF4FF060134FF0FF3222
:101A700000212046FFF7AEFF052E08D10C4B4FF09A
:101A8000FF3200214FF4E020FFF7A4FF07E0094BED
:101A90004FF0FF3200214FF4E020FFF79BFF25B10C
:101AA000054A00210548FFF7CFFE70BD480007003A
:101AB000003C0002001C000200110101140007009C
:101AC00008B5052807D1094B4FF0FF32002108481F
:101AD000FFF780FF08BD092806D1064B4FF0FF3203
:101AE00000210348FFF776FF08BD00BF003C00025D
:101AF00004000700001C000200B585B08DF80C2022
:101B0000120A8DF80D208DF80E301B0A8DF80F305B
:101B100048F20203009303AB042289B2FFF7DCFD15
:101B200005B05DF804FB00BF08B54FF4C0734FF675
:101B3000FF7200210648FFF7DFFF064B1B681B7A88
:101B40004FF6E07200210448FFF7D6FF08BD00BF42
:101B500008000B00040000201F00110000B585B034
:101B60008DF80C208DF80D3048F20103009303AB83
:101B7000022289B2FFF7B0FD05B05DF804FB00BF9B
:101B800010B5012809D10520FFF7A6FE0123FF2289
:101B900019461A48FFF7E2FF10BD022818D10323A7
:101BA000FF2200211648FFF7D9FF144C4FF4000321
:101BB0006FF4807200212046FFF70CFF00237F2284
:101BC00002212046FFF7CAFF0520FFF785FE10BD62
:101BD0000123FF2200210A48FFF7C0FF074C4FF402
:101BE00000036FF4807200212046FFF7F3FE00230C
:101BF0007F2202212046FFF7B1FF10BD080011002F
:101C00000400110010B5044600214FF4A020FFF796
:101C10008DFE0B4A024014F0010F01D042F48022E5
:101C200014F0020F01D042F4104214F0040F01D05E
:101C300042F0120200214FF4A020FFF705FE10BD74
:101C4000C00FE0FF08B500210846FFF76FFE08BD92
:101C50002DE9F843052809D1204C214D214E224F72
:101C6000DFF8C880DFF8C890204A08E0204C2546FD
:101C7000204E214FDFF8BC80DFF8BC901F4A0021C6
:101C80001F48FFF7E1FD4A4600211E48FFF7DCFD33
:101C9000424600211C48FFF7D7FD3A4600211B4869
:101CA000FFF7D2FD324600211948FFF7CDFD2A4645
:101CB00000211848FFF7C8FD224600211648FFF70B
:101CC000C3FD164A00211648FFF7BEFD154A002144
:101CD0001548FFF7B9FDBDE8F88300BFF5CF010057
:101CE000B5CF010036CF01007EC70100FDC0010065
:101CF000B5AF02007DAF02003EAF0200FEA80200B9
:101D0000380003003C0003004000030044000300CF
:101D1000480003004C000300500003004002001084
:101D20001C00030089A46D1B20000300BEC6010037
:101D30003EC40100FEA5020036AC020038B5254CB9
:101D4000254A00212046FFF77FFD1023FF220021B6
:101D50002046FFF703FF00240AE0142006F0D6FB1C
:101D600000211E48FFF728FE012805D00134E4B207
:101D7000022CF2D9012300E000230BB9002501E079
:101D80004FF0FF35134C002211462046FFF7BAFDF5
:101D9000012200211148FFF7B5FD0123FF22022196
:101DA0002046FFF7DBFE00210D48FFF7BFFD6FF077
:101DB0006043984201D14FF0FF3500210948FFF7F9
:101DC000B5FD6FF06043984201D14FF0FF352846D2
:101DD00038BD00BF0C000400010002002000040018
:101DE000140004001C00040070B5044601280DD145
:101DF0000D4D00212846FFF7CDFD064640F20513A4
:101E00004FF6FF7200212846FFF776FEFFF796FF98
:101E10000546012C05D10023324619460248FFF73A
:101E20006BFE284670BD00BF4800070008B502469B
:101E300000214FF46020FFF73FFD08BD08B50246C2
:101E400000210248FFF738FD08BD00BF0400010073
:101E500008B5024601212820FFF754FD08BD00BF48
:101E60002DE9F843054606780379182B04D8C37882
:101E7000182B03D9012702E0012700E00027FFB259
:101E8000EB79012B01D1102100E000216B78013B9F
:101E9000062B0ED8DFE803F0100D0D040A0D070025
:101EA0004FF020080AE04FF0480807E04FF08008A4
:101EB00004E04FF4807801E04FF04008AF4B186821
:101EC000038A23F0E0030382EB7903736C7BA31C8A
:101ED00001249C401FFA84F94FEAC90307EE903AA7
:101EE000F8EE677A9FEDA67A67EE877AFDEEE77ADD
:101EF00017EE903A43822B7B4375AB7B2A7B120310
:101F000002F4304242EA03432A7A520102F02002EC
:101F100013430B439B4A00211020FFF75BFD27B3BF
:101F2000964B1A68138A43F0600313824FF44063A0
:101F30006FF4C05200219448FFF74CFD40F2063286
:101F400000219248FFF780FC002211464FF00E104E
:101F5000FFF77AFC8E4A00218E48FFF775FC7D2240
:101F600000218D48FFF7CEFC39E02B7BEBB1AB7B3A
:101F7000012B08D8687B03221021884B33F810000E
:101F8000FFF786FB07E0687B04221021834B33F8C0
:101F90001000FFF77DFB08EBC90800F07F034FF648
:101FA000807202217B48FFF7A7FDB8F1FF0F0EDD1D
:101FB000724B1A68138A43F0200313824FF4806334
:101FC0006FF4C05200217048FFF704FD07E04FF4A2
:101FD000A0536FF4C05200216B48FFF7FBFCAB78B5
:101FE000FC2200214FF4C020FFF7B8FD621ED2B2E0
:101FF00000214FF40030FFF785FC6B78072B03D1ED
:102000000820FFF725FF02E00020FFF721FF2B7BD0
:1020100003F00303032B05D1614A00216148FFF758
:1020200013FC04E0604A00215E48FFF70DFC00212C
:102030005E48FFF77BFC20F4FF5020F01F00092EC4
:1020400001D140F001002B791B0203F4F85318432F
:10205000EB78DB00DBB218436A79520002F006022B
:10206000024300215148FFF7EFFBAA796B781B036D
:1020700043EA82236FF4744200212420FFF7AAFC74
:102080006B890BB981236B816A8902214FF4C020CF
:10209000FFF712FC092E11D1454A00214548FFF7F0
:1020A000D3FB40F63C7200214FF41020FFF704FCF4
:1020B000414A00214148FFF7C7FB0BE0404A00219D
:1020C0003C48FFF7C1FB41F63C7200214FF4102061
:1020D000FFF7F2FB142201213A48FFF713FC0E220E
:1020E00002213948FFF70EFC812200213748FFF713
:1020F00009FC022200214420FFF704FC0120FFF725
:102100003FFD00240BE0142006F000FA00214420DB
:10211000FFF752FC10F0020F05D10134E4B2052C98
:10212000F1D9012300E0002323BB2B79093BDBB26B
:102130000F2B14D8114B1B685B7A012B03D170B2A3
:10214000FFF76EFC02E03046FFF782FD4FF4C84314
:1021500048F2FF1200211E48FFF7CEFC05E00023E5
:10216000FE2219461A48FFF7F9FC0120FFF73CFE52
:10217000BDE8F8834FF0FF30BDE8F883040000208D
:102180006666663FCF4FFCFF08000B000C000E0098
:102190000A5A0C0012000E0016000E009CE2000805
:1021A000CC355FAF0C0006004C585FAF1400010047
:1021B0003400011C1C00070033A8B50810000700FC
:1021C0003411071C50000700180007000800090020
:1021D0001800030008B5FFF735FD064B984204D000
:1021E000103B984203D1002008BD002008BD4FF0ED
:1021F000FF3008BD1203CADE2DE9F0410446444B0E
:102200001B680022DA73022119821A755A759A72B4
:10221000DA729A62DA621A635A63DA639A63FFF7D0
:10222000D9FF00286ED105460420FFF795FB06462E
:102230000520FFF791FB8046354B1F680A20FFF70A
:102240008BFBC0F30440387246B1B8F1000F05D0E3
:102250002F4B1B681B7A0BB1FFF766FC2020FFF7A2
:102260007BFB2C4B984204D1294B1B6801225A72EC
:1022700003E0274B1B6800225A7214F0100F05D0A0
:10228000234B1E680620FFF767FB306014F0200F19
:1022900005D01F4B1E680720FFF75EFB706014F02F
:1022A000400F05D01A4B1E680820FFF755FBB0728F
:1022B00014F0800F05D0164B1C680920FFF74CFB6B
:1022C000E072134B1C68E37A0BB98523E372A37A9F
:1022D0000BB97423A3721F20FFF73EFB60730C4CF5
:1022E00026681E20FFF738FB00F07F00B0732368DC
:1022F0009A7B0AB92E229A739A7B00210648FFF72F
:1023000001FB01E04FF0FF352846BDE8F08100BF3A
:1023100004000020400200101400090038B50446F3
:10232000074D00212846FFF701FB020D1205C4F3FB
:102330001304224300212846FFF786FA38BD00BF68
:102340000800010008B502214420FFF723FBC0F379
:10235000002008BD08B568B1024600213420FFF70F
:1023600073FA4FF400734FF6FF7200211020FFF74D
:10237000C3FB08BD00234FF6FF5219461020FFF79C
:10238000BBFB08BD38B505460C460120FFF7A4FA93
:1023900000212046FFF75CFB2046FFF791FBC5F3C9
:1023A0000B0200210F48FFF787FA0323FF220021C9
:1023B0000D48FFF7D3FB00210B48FFF7FDFA10F0A3
:1023C000010FF8D1FFF754FA0020FFF75BFA052060
:1023D000FFF782FA00210548FFF7EEFA00F03F0010
:1023E00038BD00BF1C000800100008001C000700DA
:1023F00010B5044603892BB9027800210B48FFF77A
:1024000081FA0CE000210A48FFF7D6FA10F0010F1C
:1024100001D1052100E009212089FFF7B3FF62689F
:1024200000210448FFF710FA10BD00BF1C00070090
:10243000140001000C00010008B50B4B1A6842F4AF
:1024400000721A601A6842F480621A601A6842F4D4
:1024500080721A60032000F02FF80020FEF7D4FFEE
:10246000FEF7B0FF002008BD003C0240034A13689D
:10247000034909780B441360704700BF180D002012
:102480000C000020014B1868704700BF180D002099
:1024900038B50446FFF7F6FF0546B4F1FF3F02D01A
:1024A000044B1B781C44FFF7EDFF401B8442FAD815
:1024B00038BD00BF0C000020074AD36823F4E06356
:1024C0001B041B0C000200F4E060184340F0BF60E6
:1024D00040F40030D060704700ED00E030B4164B9F
:1024E000DB68C3F30223C3F10704042C28BF0424D0
:1024F0001D1D062D01D9DD1E00E00025012303FA74
:1025000004F4013C2140A940AB40013B1A400A437E
:10251000002808DB1201D2B200F1604000F56140F2
:1025200080F8002305E000F00F001201D2B2034B47
:102530001A5430BC704700BF00ED00E014ED00E01D
:10254000002808DB420900F01F00012303FA00F015
:10255000014B43F82200704700E100E0F0B583B082
:102560000023C3E001229A400C6802EA0405AA4253
:1025700040F0BB804C6804F00304013C012C15D8EA
:1025800087684FEA430E032606FA0EF627EA060688
:10259000CC6804FA0EF434438460446824EA0202EE
:1025A0004C68C4F300149C40224342604A6802F025
:1025B0000302032A09D0C6685F000324BC4026EA50
:1025C00004048A68BA402243C2604A6802F00302E7
:1025D000022A0FD1DC08083450F8247003F00702F7
:1025E00096000F22B24027EA02070A69B2403A4336
:1025F00040F8242004685F000326BE4024EA060653
:102600004A6802F0030404FA07F2324302604A689F
:1026100012F4403F69D000220192374A546C44F4CE
:1026200080445464526C02F480420192019A9E08E4
:10263000B41C324A52F8244003F0030292000F27E0
:10264000974024EA07072E4CA04211D004F580647D
:10265000A0420FD004F58064A0420DD004F5806440
:10266000A0420BD004F58064A04209D1042408E004
:10267000002406E0012404E0022402E0032400E038
:10268000072404FA02F23A4302361C4C44F826208E
:102690001C4A9468EA4304EA02064F6817F4801F54
:1026A00001D045EA0406174CA660E46802EA040675
:1026B0004F6817F4001F01D045EA0406114CE6608C
:1026C000646802EA04064F6817F4003F01D045EA47
:1026D00004060C4C6660246822404E6816F4803F65
:1026E00001D045EA0402074C226001330F2B7FF62C
:1026F00039AF03B0F0BD00BF0038024000380140E0
:1027000000000240003C01400AB1816170470904A9
:1027100081617047704700BF08B5044B5B69034295
:1027200003D0024B5861FFF7F5FF08BD003C0140A4
:102730002DE9F04782B0D0F80080CA000A44930027
:102740000344DA6D5B6D9A4256D8C1469B1A01EB81
:10275000C104A2000244926C934200D81A460C466F
:10276000074602F1030A4FEA9A0A1EE05B1A04EBDD
:10277000C4018A003A44966CB34200D81E4606F162
:10278000030A4FEA9A0AE30023449D003D44E96CA2
:102790003B7C0093B3B2E2B2404602F007FAEB6C26
:1027A0003344EB64EB6D1E44EE6509EB441303F513
:1027B00010639B699BB29A4509D8E30023449A00B1
:1027C0003A44D16D536D994201D2002BCED1E30032
:1027D0002344980007447A6DFB6D9A420ED804F0AA
:1027E0000F04012303FA04F4D8F8343823EA04046C
:1027F000C8F83448002002E0012000E0002002B0C8
:10280000BDE8F087F0B58BB0002800F08A80044660
:10281000056890F8BD3413F0FF0F04D1002380F851
:10282000BC3405F0A5FC032384F8BD34EB6B13F432
:10283000807F01D100232361206801F0D5FE254669
:1028400055F8107B6E460FCD0FC60FCD0FC695E81D
:10285000030086E80300231D0ECB384601F004FE7A
:1028600020B1022384F8BD3401255BE000212068FB
:1028700002F0A0FB002315E0D900C8188200224412
:10288000012082F83D0082F83C30A2F8443000205C
:1028900082F840009064D064CA18910021444865D1
:1028A0000133DBB26568AB42E6D3002315E0D80004
:1028B000C1188A002244002182F87D1282F87C32FD
:1028C00082F88012C2F88812C2F88C12C2189000E6
:1028D0002044C0F894120133DBB29D42E7D825466C
:1028E00055F8107B6E460FCD0FC60FCD0FC695E87D
:1028F000030086E80300231D0ECB384601F0D0FE0E
:10290000054620B1022384F8BD3401250AE00023E6
:1029100084F83830012384F8BD34206802F004FBC9
:1029200000E0012528460BB0F0BD00BF026890F81A
:10293000BC34012B18D010B5012380F8BC34836A55
:10294000012B06D18369012B03D0936B43F48033B1
:1029500093630446006801F041FE206802F0D6FA55
:10296000002084F8BC0410BD0220704770B50446F6
:102970000D460068066C00EB411303F5306399685F
:102980002269012A47D111F0080F09D0354A964231
:1029900066D911F4004F63D04FF400429A605FE0B3
:1029A00011F0200F02D020229A6059E011F0280F78
:1029B00056D12C4A964206D911F4004F03D04FF459
:1029C00000429A604CE0E90029448A002244D2F88F
:1029D00098121B69C3F31203CB1AC2F89C32ADB92B
:1029E00005EBC5018A002244D2F894222AB904F2E8
:1029F000C442012102F020FB08E0E90029448A00DA
:102A00002244D2F88C120B44C2F88C32E9B2204630
:102A100005F0F8FB24E0144A964210D111F4004F5F
:102A200003D04FF400429A601AE011F0200F01D059
:102A300020229A60E9B2204605F0E4FB10E05DB97F
:102A400005EBC50293002344D3F8943223B904F272
:102A5000C442002102F0F0FAE9B2204605F0D2FBB0
:102A6000002070BD0A30544F0A31544F38B5044627
:102A700003681D6C03EB4111D1F8082B0D4B9D42EF
:102A800007D901F5306112F4004F02D04FF4004332
:102A90008B60204605F0AEFB064B9D4208D92369AA
:102AA000012B05D104F2C4420121206802F0C4FACE
:102AB000002038BD0A30544F90F8BC34012B0DD0A3
:102AC00010B50446012380F8BC3480F83810006843
:102AD00002F00CFA002084F8BC0410BD02207047FC
:102AE000F8B511F0800F0ED001F00F05EE00771948
:102AF000BC0027463834044404343E4606440125CD
:102B000086F83D500EE001F00F06F500AF19BC004D
:102B1000274604F51E74044404343D46054400264B
:102B200085F87D6201F00F012170E2602371627807
:102B300002B12181022B01D10023637190F8BC34D2
:102B4000012B0BD00546012380F8BC3421460068D8
:102B500001F082FE002085F8BC04F8BD0220F8BD1B
:102B600038B511F0800F0ED001F00F02D400A51877
:102B7000AB001D463833034404332C460444012281
:102B800084F83D200EE001F00F02D400A518AB0040
:102B90001D4603F51E73034404332C4604440022EF
:102BA00084F87D2201F00F01197090F8BC24012AED
:102BB0000BD00446012280F8BC241946006801F0BD
:102BC00097FE002084F8BC0438BD022038BD00BF49
:102BD00070B501F00F05EE0071198C0004F51E743C
:102BE0000444211D2E44B4000444C4F88C22C4F8CB
:102BF00094320023C4F89C3284F87D3284F87C52ED
:102C00000369012B05D105EBC506B4000444C4F8E3
:102C1000902225B9DAB2006801F0D6FE03E0DAB2FC
:102C2000006801F0D9FF002070BD00BF01F00F0166
:102C300001EBC1018B001844D0F89C02704700BF23
:102C400070B501F00F05EE0071198C0038340444A2
:102C5000211D2E44B4000444E26463650023E3654F
:102C6000012384F83D3084F83C500369012B04D1E2
:102C700005EBC506B4000444226525B9DAB2006844
:102C800001F0A2FE03E0DAB2006801F0A5FF002027
:102C900070BD00BF38B501F00F0543689D4235D8BF
:102CA00011F0800F0BD0EA0051198B001946383310
:102CB000034404330144012281F83D200CE0CA00A2
:102CC0005418A3001C4603F51E7303440433224624
:102CD0000244002182F87D1201229A701D7090F842
:102CE000BC24012A14D00446012280F8BC241946D1
:102CF000006802F09FF82DB904F2C442217C2068DC
:102D000002F09AF9002084F8BC0438BD012038BDD7
:102D1000022038BD01F00F03426893422DD810B550
:102D200011F0800F0BD0DA00D418A1000C46383116
:102D3000014404310444012284F83D200BE0DA0010
:102D4000D418A1000C4601F51E710144043104445D
:102D5000002284F87D2200228A700B7090F8BC3427
:102D6000012B0CD00446012380F8BC34006802F02B
:102D70008FF8002084F8BC0410BD012070470220A9
:102D800010BD00BF08B511F0800F09D001F00F0190
:102D900001EBC1018B0003F138010144043108E06B
:102DA00001F00F0101EBC1018B0003F51E7101441D
:102DB0000431006801F098FE08BD00BF2DE9F84F0E
:102DC00004460768384602F0F1F8002840F0CB824C
:102DD0003E46206802F0B6F8002800F0C48207F5ED
:102DE0000068D8F80830C3F30D23C4F8FC34206819
:102DF00002F0A8F810F0020F04D02268536903F023
:102E000002035361206802F09DF810F0100F45D0C6
:102E10002268936923F0100393613D6A05F00F095E
:102E2000C5F34343022B1FD147F6F0731D4230D048
:102E30004FEAC90B0BEB09034FEA830AA2442D09A1
:102E4000C5F30A02DAF88C12384601F0CDFFC5F35B
:102E50000A05DAF88C322B44CAF88C32DAF89C3244
:102E60001D44CAF89C5214E0062B12D1082204F229
:102E7000C441384601F0B8FFC5F30A154FEAC9014D
:102E800001EB09029300E218D2F89C322B44C2F8FD
:102E90009C322268936943F010039361206802F02A
:102EA00051F810F4002F6BD0206802F04FF805465F
:102EB0004FF0000962E015F0010F5CD05FFA89FB6A
:102EC0005946206802F052F8824610F0010F08D0EF
:102ED00006EB49130122C3F8082B49462046FFF7A9
:102EE00045FD1AF0080F08D006EB49130822C3F875
:102EF000082B49462046FFF7B9FD1AF0100F04D001
:102F000006EB49131022C3F8082B1AF0020F21D048
:102F10007B6913F0800F05D0D8F8043043F4806348
:102F2000C8F8043009EBC9029300234493F87F32B8
:102F3000012B0AD109EBC90293002344002283F834
:102F40007F225946204605F0ABF906EB49130222D1
:102F5000C3F8082B1AF0200F04D006EB49132022E7
:102F6000C3F8082B1AF4005F05D006EB49134FF4A1
:102F70000052C3F8082B09F101096D08002D9AD100
:102F8000206801F0DFFF10F4802F00F085802068BA
:102F900001F0E4FF05464FF000097BE015F0010F5A
:102FA00075D05FFA89FB5946206801F0E9FF824637
:102FB00010F0010F2DD009F00F03012101FA03F2E7
:102FC000D8F8343023EA0203C8F8343006EB49134A
:102FD000C3F8081923698B4217D14FEAC9024A4442
:102FE00093002344D96C9A6C0A44DA64B9F1000F57
:102FF0000BD109EBC902930023445B6D2BB904F29A
:10300000C4420121206802F017F85946204605F015
:1030100005F91AF0080F04D006EB49130822C3F88B
:1030200008291AF0100F04D006EB49131022C3F838
:1030300008291AF0400F04D006EB49134022C3F8C8
:1030400008291AF0020F1BD04946384601F0D2FA7F
:1030500009EBC9029300234493F83F30012B0AD1B6
:1030600009EBC90293002344002283F83F2059460C
:10307000204605F01BF906EB49130222C3F8082984
:103080001AF0800F03D049462046FFF751FB09F1A3
:1030900001096D08002D81D1206801F053FF00283F
:1030A00018DAD8F8043023F00103C8F8043094F893
:1030B000F434012B06D1002184F8F414204600F0EA
:1030C0007DF902E0204605F0E5F82268536903F037
:1030D00000435361206801F035FF10F4006F0CD0FD
:1030E000D8F8083013F0010F02D0204605F0BAF8E6
:1030F0002268536903F400635361206801F022FFE2
:1031000010F4805F5DD0D8F8043023F00103C8F8D4
:1031100004301021206801F06DFA00221AE006EB5D
:1031200042134FF67F30C3F80809D3F8001921F491
:103130000011C3F80019C3F8080BD3F8001B21F4E1
:103140000011C3F8001BD3F8001B41F00061C3F865
:10315000001B013263689A42E1D3D8F81C3043F077
:103160000113C8F81C30236B63B1D8F8843043F0E6
:103170000B03C8F88430D8F8443043F00B03C8F888
:1031800044300DE0D8F8143043F4005343F02B03DF
:10319000C8F81430D8F8103043F00B03C8F81030DA
:1031A000D7F8003823F4FE63C7F8003804F2C442AD
:1031B000217C206801F040FF2268536903F48053AA
:1031C0005361206801F0BEFE10F4005F16D0206845
:1031D00001F022FF206801F02DFBE060256800F07F
:1031E00017FC227B0146284601F082F9204605F0B3
:1031F00027F82268536903F400535361206801F0F3
:10320000A1FE10F0080F07D0204605F013F8226841
:10321000536903F008035361206801F093FE10F036
:10322000800F15D0BB6923F08003BB6101250CE042
:1032300005EBC5029300234493F87F32012B03D1A1
:10324000E9B22046FFF79EFD013563689D42EFD34A
:10325000206801F077FE10F4801F1DD125E006EBF9
:103260004513D3F8001905EBC5029300234493F8E6
:103270004030012B0ED100290CDA05EBC50293007A
:103280002344012283F83F2065F07F01C9B2204624
:10329000FFF778FD013500E0012563689D42DED32C
:1032A0002268536903F480135361206801F04AFED9
:1032B00010F4001F2ED136E006EB4312D2F8000BBB
:1032C00003EBC3018A00224492F88022012A1FD115
:1032D00000281DDA00F48030D4F8FC2402F001024A
:1032E000904215D103EBC3018A002244012182F8E8
:1032F0007F12BA6942F08002BA617A6912F0800FD7
:1033000006D1D8F8043043F40073C8F8043005E05F
:10331000013300E0012362689342CDD322685369F0
:1033200003F400135361206801F00CFE10F0804F8D
:1033300007D0204604F0C0FF2268536903F08043A1
:103340005361206801F0FEFD10F0040F0BD02368DC
:103350005D6815F0040F02D0204604F0B3FF226828
:1033600053682B435360BDE8F88F00BF30B4046846
:10337000636A19B943EA0240A06218E00D46A06AE8
:1033800003EB1040002308E003F1400104EB81014E
:10339000496800EB11400133DBB2691E8B42F3D365
:1033A00040EA024005F13F0104EB81014860002042
:1033B00030BC70470368596200207047704700BFF7
:1033C000002800F0DD8170B582B00446036813F078
:1033D000010F5AD0A04B9B6803F00C03042B0AD0BA
:1033E0009D4B9B6803F00C03082B0DD19A4B5B6837
:1033F00013F4800F08D0984B1B6813F4003F44D09F
:103400006368002B41D1BDE16368B3F5803F05D10E
:10341000914A136843F48033136015E0B3F5A02F8D
:1034200009D18D4B1A6842F480221A601A6842F45E
:1034300080321A6008E0884B1A6822F480321A60E1
:103440001A6822F480221A6063687BB1FFF71AF8C9
:10345000054605E0FFF716F8401B642800F294814A
:103460007D4B1B6813F4003FF4D00EE0FFF70AF821
:10347000054605E0FFF706F8401B642800F2868148
:10348000754B1B6813F4003FF4D1236813F0020F4F
:1034900050D0714B9B6813F00C0F0AD06E4B9B6899
:1034A00003F00C03082B16D16B4B5B6813F4800FF1
:1034B00011D1694B1B6813F0020F03D0E368012B95
:1034C00040F06681644A136823F0F803216943EAF7
:1034D000C10313602EE0E368D3B101225F4B1A6091
:1034E000FEF7D0FF054605E0FEF7CCFF401B0228A3
:1034F00000F25081584B1B6813F0020FF4D0564A6B
:10350000136823F0F803216943EAC103136011E053
:103510000022524B1A60FEF7B5FF054605E0FEF7A4
:10352000B1FF401B022800F237814B4B1B6813F0A0
:10353000020FF4D1236813F0080F26D0636993B10A
:103540000122474B1A60FEF79DFF054605E0FEF796
:1035500099FF401B022800F221813F4B5B6F13F063
:10356000020FF4D011E000223D4B1A60FEF78AFFF3
:10357000054605E0FEF786FF401B022800F2108199
:10358000354B5B6F13F0020FF4D1236813F0040F77
:103590007DD0314B1B6C13F0805F0DD10023019364
:1035A0002D4B1A6C42F080521A641B6C03F080534E
:1035B0000193019B012500E000252A4B1B6813F4B1
:1035C000807F13D1274A136843F480731360FEF79A
:1035D00059FF064605E0FEF755FF801B022800F262
:1035E000E180204B1B6813F4807FF4D0A368012B8B
:1035F00005D1194A136F43F00103136714E0052B3B
:1036000009D1154B1A6F42F004021A671A6F42F083
:1036100001021A6708E0104B1A6F22F001021A67C4
:103620001A6F22F004021A67A3688BB1FEF72AFF13
:10363000064607E0FEF726FF801B41F288339842DA
:1036400000F2B280044B1B6F13F0020FF2D018E0AF
:10365000FEF718FF06460FE0003802400000474220
:10366000800E474200700040FEF70CFF801B41F2C5
:103670008833984200F29A80594B1B6F13F0020F67
:10368000F2D125B1564A136C23F080531364A36919
:10369000002B00F08D80524A926802F00C02082A3A
:1036A00048D0022B33D100224E4B1A60FEF7EAFEBF
:1036B000054604E0FEF7E6FE401B02287AD8484B98
:1036C0001B6813F0007FF5D1E269236A1343626A35
:1036D00043EA8213A26A5208013A43EA0243E26AC9
:1036E00043EA02633E4A536001223E4B1A60FEF7F2
:1036F000C9FE044604E0FEF7C5FE001B02285BD8A5
:10370000374B1B6813F0007FF5D0002065E00022E6
:10371000344B1A60FEF7B6FE044604E0FEF7B2FE34
:10372000001B02284AD82E4B1B6813F0007FF5D1EE
:10373000002052E0012B43D0294A526842D002F4C3
:103740008003E1698B423FD102F03F03216A8B4243
:103750003CD1616A47F6C0731340B3EB811F37D188
:1037600002F44031A36A5B08013BB1EB034F31D156
:1037700002F07062E36AB2EB036F2DD001202CE0FF
:1037800001207047012028E0032026E0032024E0E8
:10379000012022E0032020E003201EE003201CE0A3
:1037A00003201AE0032018E0032016E0032014E0B1
:1037B000002012E0032010E003200EE003200CE0C4
:1037C00001200AE0012008E0012006E0012004E0D9
:1037D000012002E0012000E0002002B070BD00BF27
:1037E000003802406000474238B52D4B9B6803F01B
:1037F0000C03082B51D12A4B5A6802F03F025B6838
:1038000013F4800F20D0264B5B68C3F38813DC00D1
:103810000025690141EAD4616001041B61EB0505E3
:10382000A90141EA9461A001001B61EB0501C018E8
:1038300041F100018B0243EA90538402204619466D
:103840000023FCF7EBFC1FE0154B5B68C3F3881308
:10385000DC000025690141EAD4616001041B61EBD1
:103860000505A90141EA9461A001001B61EB050176
:10387000C01841F100018B0243EA905384022046B4
:1038800019460023FCF7CAFC054B5B68C3F30143F0
:1038900001335B00B0FBF3F038BD024838BD00BF18
:1038A000003802400024F400002800F0988070B531
:1038B0000446524B1B6803F007038B4208D2CBB27D
:1038C0004E4A1370136803F00703994240F0898051
:1038D000236813F0020F17D013F0040F04D0484AE6
:1038E000936843F4E0539360236813F0080F04D007
:1038F000434A936843F4604393604148836823F0EC
:10390000F002A368134383600D46236813F0010F90
:103910002FD06268012A05D1394B1B6813F4003F90
:103920000ED160E0931E012B05D8354B1B6813F0B8
:10393000007F05D159E0324B1B6813F0020F56D0BF
:103940002F498B6823F0030313438B60FEF79AFD26
:10395000064606E0FEF796FD801B41F2883398424A
:1039600047D8274B9B6803F00C036268B3EB820FC8
:10397000F0D1224B1B6803F007039D4207D2EAB245
:103980001E4B1A701B6803F007039D4233D1236856
:1039900013F0040F06D01A498B6823F4E052E36851
:1039A00013438B60236813F0080F07D0144A936801
:1039B00023F46043216943EAC1039360FFF714FFD6
:1039C0000F4B9B68C3F303130E4AD35CD8400E4BD6
:1039D00018600E4B1868FDF717FD002070BD012020
:1039E0007047012070BD012070BD012070BD012015
:1039F00070BD032070BD012070BD00BF003C0240BF
:103A00000038024038E100080000002008000020D3
:103A1000014B1868704700BF0000002008B5FFF791
:103A2000F7FF044B9B68C3F38223034AD35CD8405F
:103A300008BD00BF0038024048E1000808B5FFF7A4
:103A4000E7FF044B9B68C3F34233034AD35CD8407F
:103A500008BD00BF0038024048E100080F230360A2
:103A60000B4B9A6802F0030242609A6802F0F0027F
:103A700082609A6802F4E052C2609B68DB0803F43B
:103A8000E0530361034B1B6803F007030B607047AF
:103A900000380240003C02402DE9F04383B0044668
:103AA0000F4616461D46FEF7EDFC0A9B181A00EB62
:103AB0000508FEF7E7FC8146294B1B68C3F3CB33AF
:103AC00003FB08F301933DE0B5F1FF3F3AD0FEF769
:103AD000D9FCC9EB0000804502D9B8F1000F2AD10A
:103AE0002268536823F0E00353606368B3F5827F74
:103AF0000BD1A368B3F5004F02D0B3F5806F04D1AA
:103B00002268136823F040031360A36AB3F5005FD3
:103B100009D12268136823F40053136022681368E4
:103B200043F400531360012384F85130002384F8D8
:103B30005030032010E0019B0BB94FF00008019BAF
:103B4000013B019323689B6837EA03030CBF012301
:103B50000023B342B8D1002003B0BDE8F08300BF1A
:103B60000000002030B585B0164C2468164DA5FB2A
:103B70000434640D4FF47A7505FB04F4039444682F
:103B8000B4F5827F0ED10B460446009200228021BC
:103B9000FFF782FF034690B1636D43F02003636536
:103BA00003230CE0039B4BB1039B013B039303688E
:103BB0009B6813F0800FF5D1002300E00023184626
:103BC00005B030BD00000020819F5E1600285CD04B
:103BD00070B50446436A33B94368B3F5827F05D0B4
:103BE0000023C36102E00023036143610023A36259
:103BF00094F8513013F0FF0F05D1002384F85030B2
:103C00002046FDF7A9FB022384F85130226813688F
:103C100023F0400313602168626802F48272A56891
:103C200005F404452A43E36803F400631A4320695A
:103C300000F002000243666906F001063243A569FE
:103C400005F400752A43E06900F0380042EA0003F9
:103C5000226A02F080021A43A36A03F4005313435A
:103C60000B602168638B03F00402636A03F01003A6
:103C700013434B602268D36923F40063D3610020AF
:103C80006065012384F8513070BD0120704700BF8A
:103C90002DE9F04182B090F85040012C00F0CB802B
:103CA0001D46174688460446012380F85030FEF72B
:103CB000E9FB064694F85130DBB2012B40F0A580B9
:103CC000B8F1000F00F0A380002F00F0A2800323C2
:103CD00084F8513000236365C4F83080A786E786F6
:103CE000A363A387E38763642364A368B3F5004FEA
:103CF00009D12268136823F0400313602268136817
:103D000043F48043136023681A6812F0400F03D114
:103D10001A6842F040021A60E368B3F5006F30D1D0
:103D200063680BB1012F27D12368226B1288DA60F8
:103D3000236B02332363E38E9BB2013B9BB2E3868A
:103D40001AE023689A6812F0020F0BD0226B1288D7
:103D5000DA60236B02332363E38E9BB2013B9BB299
:103D6000E38609E0FEF78EFB801BA84202D3B5F183
:103D7000FF3F50D1002D50D0E38E9BB2002BE0D1FD
:103D80002EE063680BB1012F26D12368226B1278D5
:103D90001A73236B01332363E38E9BB2013B9BB207
:103DA000E38619E023689A6812F0020F0BD0226BA9
:103DB00012781A73236B01332363E28E92B2013AB5
:103DC00092B2E28608E0FEF75DFB801B854202D8D6
:103DD000B5F1FF3F23D125B3E28E92B2002AE1D1A3
:103DE000324629462046FFF7BDFE08B12023636511
:103DF000A36833B901932368DA6801929B68019341
:103E0000019B636D7BB900200EE002200CE00120D5
:103E10000AE0012008E0032006E0032004E003207C
:103E200002E0032000E00120012384F85130002348
:103E300084F8503000E0022002B0BDE8F08100BFFD
:103E400090F85100704700BF704700BF90F83D30B8
:103E5000DBB2012B2FD1022380F83D300268D368FA
:103E600043F00103D3600368154A934212D0B3F1C3
:103E7000804F0FD0A2F57C4293420BD002F58062B6
:103E8000934207D002F58062934203D002F59A3242
:103E900093420AD19A6802F00702062A0DD01A68E6
:103EA00042F001021A60002070471A6842F00102D5
:103EB0001A6000207047012070470020704700BF43
:103EC00000000140704700BF704700BF704700BF4F
:103ED000704700BF10B5044603681A6912F0020F5C
:103EE00017D0DA6812F0020F13D06FF002021A61D5
:103EF0000123037703689B6913F0030F02D0FFF7D8
:103F0000E3FF04E0FFF7DEFF2046FFF7DFFF0023BB
:103F1000237723681A6912F0040F19D0DA6812F0B7
:103F2000040F15D06FF004021A610223237723686F
:103F30009B6913F4407F03D02046FFF7C5FF05E0DF
:103F40002046FFF7BFFF2046FFF7C0FF002323777F
:103F500023681A6912F0080F19D0DA6812F0080FF6
:103F600015D06FF008021A61042323772368DB69F8
:103F700013F0030F03D02046FFF7A6FF05E020460D
:103F8000FFF7A0FF2046FFF7A1FF00232377236858
:103F90001A6912F0100F19D0DA6812F0100F15D04C
:103FA0006FF010021A61082323772368DB6913F48A
:103FB000407F03D02046FFF787FF05E02046FFF74C
:103FC00081FF2046FFF782FF0023237723681A69C9
:103FD00012F0010F09D0DA6812F0010F05D06FF06E
:103FE00001021A612046FDF723F923681A6912F0CD
:103FF000800F09D0DA6812F0800F05D06FF08002D0
:104000001A61204600F09CF823681A6912F0400FEC
:1040100009D0DA6812F0400F05D06FF040021A6143
:104020002046FFF755FF23681A6912F0200F09D0C8
:10403000DA6812F0200F05D06FF020021A612046D6
:1040400000F07CF810BD00BF0368244A90420ED0F7
:10405000B0F1804F0BD0A2F57C42904207D002F520
:104060008062904203D002F58062904203D123F037
:1040700070034A681343194A90421AD0B0F1804F36
:1040800017D0A2F57C42904213D002F58062904294
:104090000FD002F5806290420BD002F59A32904226
:1040A00007D002F58062904203D002F58062904210
:1040B00003D123F44073CA68134323F080034A6991
:1040C000134303608B68C3620B688362034B98429F
:1040D00001D10B6903630123436170470000014074
:1040E00048B310B5044690F83D3013F0FF0F04D1EB
:1040F000002380F83C30FFF7A7FE022384F83D3010
:10410000211D2068FFF7A0FF012384F8463084F8C2
:104110003E3084F83F3084F8403084F8413084F8F1
:10412000423084F8433084F8443084F8453084F8D1
:104130003D30002010BD0120704700BF704700BF18
:10414000704700BFF8B5054601680B6923F440527B
:10415000C36813430B6181680369194343691943B9
:10416000C36919430068C26822F4164323F00C03A4
:104170000B43C36029684B6923F44072AB69134356
:104180004B612B68314A934203D002F5806293421F
:1041900002D1FFF753FC01E0FFF740FCEB69B3F5F8
:1041A000004F2AD12C680021061841EB0107361870
:1041B0004F41FB0043EA5673F20016461F466A68F9
:1041C000002392185B4180197941FCF727F8204BB6
:1041D000A3FB00125109642202FB1102D200323209
:1041E000A3FB02235B095A0002F4F87202EB0112EE
:1041F00003F007031344A360F8BD2C6800210618E0
:1042000041EB010736184F41FB0043EA5673F200B9
:1042100016461F466B689A009B0F80197941FBF781
:10422000FDFF0B4BA3FB00214909642202FB110295
:1042300012013232A3FB02235B0903F0F00202EB0E
:10424000011103F00F030B44A360F8BD00100140FF
:104250001F85EB512DE9F04104460F46164698465E
:10426000069D2CE0B5F1FF3F29D02DB1FEF70AF9EC
:10427000C8EB0000854222D2226802F10C0353E809
:10428000003F23F4D0730C3242E800310029F3D10F
:10429000226802F1140353E8003F23F001031432B3
:1042A00042E800310029F3D1202384F83D3084F81E
:1042B0003E30002384F83C300320BDE8F0812368C1
:1042C0001B6837EA03030CBF01230023B342C9D0A4
:1042D0000020BDE8F08100BF68B310B5044690F837
:1042E0003D3013F0FF0F04D1002380F83C30FDF780
:1042F0006DF9242384F83D302268D36823F40053F9
:10430000D3602046FFF71EFF2268136923F4904311
:1043100013612268536923F02A0353612268D3682A
:1043200043F40053D36000202064202384F83D3000
:1043300084F83E3010BD0120704700BF2DE9F041E8
:1043400082B01E4690F83D30DBB2202B55D104469A
:104350000D469046002952D0002A52D090F83C30A9
:10436000012B50D0012380F83C300023036421232B
:1043700080F83D30FEF786F80746A4F82480A4F8BC
:104380002680A368B3F5805F04D123692BB14FF079
:10439000000804E04FF0000801E0A84600250023D3
:1043A00084F83C3018E000963B46002280212046ED
:1043B000FFF750FF48BB35B9226838F8023BC3F31A
:1043C0000803536003E0236815F8012B5A60E38C5F
:1043D0009BB2013B9BB2E384E38C9BB2002BE2D106
:1043E00000963B46002240212046FFF733FF03465C
:1043F00068B9202284F83D200AE0022308E0012366
:1044000006E0012304E0022302E0032300E003238B
:10441000184602B0BDE8F08182B000230193019BF1
:1044200001330193019A0F4B9A4215D80369002B6F
:10443000F5DA00230193036943F001030361019B53
:1044400001330193019A074B9A4207D8036913F08D
:10445000010FF4D1002002E0032000E0032002B0AD
:10446000704700BF400D030084B010B5044603A898
:1044700080E80E00089B012B18D1A36B23F4803336
:10448000A363E36823F4840323F04003E360E36859
:1044900023F44013E3600F9B012B03D1E36843F443
:1044A0008013E3602046FFF7B7FF11E0E36843F0B5
:1044B0004003E3602046FFF7AFFF0C9B23B9A36BDB
:1044C00043F48033A36303E0A36B23F48033A3633B
:1044D000069B012B07D1A36843F00603A360A368E2
:1044E00043F02003A360BDE8104004B0704700BF54
:1044F000022A42D12F4B0B442F4A93423FD92F4BD4
:104500000B442F4A93423CD9A1F57403A3F51053F1
:104510002C4A934237D9A1F18373A3F5E74302F5FF
:10452000C332A032934230D9274B0B44274A9342DF
:104530002DD9274B0B4402F5922202F57872934253
:1045400027D9244B0B4402F5C32202F52072934273
:1045500021D9A1F1B773A3F5585302F5B71202F5AB
:104560005872934219D91C4B0B4402F5122202F5E2
:10457000F862934213D8072112E0092110E00F21BD
:104580000EE00E210CE00D210AE00C2108E00B21C9
:1045900006E00A2104E0092102E0082100E00621EA
:1045A000C26822F47052C260C36843EA8123C360C8
:1045B00000207047405327FFFF340C00401E1BFFB4
:1045C0003F420F007F4F120060B6E5FE5FE316002A
:1045D00000D3CEFEC05BB3FEE05459FE836843F0C7
:1045E0000103836000207047836823F00103836028
:1045F0000020704782B000230193019B0133019397
:10460000019A0F4B9A4215D80369002BF5DA002363
:104610000193890141F020010161019B0133019364
:10462000019A074B9A4207D8036913F0200FF4D17F
:10463000002002E0032000E0032002B0704700BF2A
:10464000400D030082B000230193019B01330193CD
:10465000019A0E4B9A4213D80369002BF5DA002316
:10466000019310230361019B01330193019A074BCE
:104670009A4207D8036913F0100FF4D1002002E02A
:10468000032000E0032002B0704700BF400D03008C
:10469000D0F800381943C0F800180020704700BF58
:1046A00084B02DE9F041044607A880E80E002546B5
:1046B000002306E003F1400204EB82020021516076
:1046C00001330E2BF6D9119B93B9D4F8043843F07B
:1046D0000203C4F80438A36B43F40013A363A36B71
:1046E00023F40023A363A36B23F48023A36307E0D5
:1046F000A36B23F40013A363A36B43F40023A3630E
:104700000023C4F8003E04F50066D4F80038C4F86D
:1047100000380C9B012B0BD1099B23B900212046AB
:10472000FFF7B6FF08E001212046FFF7B1FF03E0E5
:1047300003212046FFF7ACFF10212046FFF75AFF68
:1047400010B94FF0000801E04FF001082046FFF7D4
:1047500079FF08B14FF00108002333617361F36101
:104760001BE005EB431202F51061D2F800090028A6
:104770000ADA23B94FF00060C2F8000907E04FF0F1
:104780009040C2F8000902E00020C2F800090022AF
:104790000A614FF67F328A60013307998B42E0D37A
:1047A00000231BE005EB431202F53060D2F8007BDA
:1047B000002F0ADA23B94FF00067C2F8007B07E048
:1047C0004FF09047C2F8007B02E00027C2F8007B60
:1047D000002202614FF67F32826001338B42E1D3C7
:1047E000336923F4807333610023A3616FF0804346
:1047F00063610A9B1BB9A36943F01003A361A2691B
:104800000B4B1343A3610D9B1BB1A36943F008033A
:10481000A361119B012B05D1A36943F0804343F0B1
:104820000403A3614046BDE8F04104B0704700BFF7
:1048300000383C80D0F8083813F0060305D0022B6E
:1048400005D0062B05D102207047002070470220BA
:1048500070470F20704700BF70B40B784A78012A68
:1048600023D1D0F81C6803F00F02012404FA02F2ED
:1048700092B23243C0F81C2800EB4310D0F8002954
:1048800012F4004F31D1D0F80049CA68C2F30A02CD
:10489000097942EA814242EA8353234343F0805339
:1048A00043F40043C0F800391FE0D0F81C4803F07F
:1048B0000F060122B24044EA0242C0F81C2800EB75
:1048C0004310D0F8003B13F4004F0ED1D0F8003B5A
:1048D000CA68C2F30A02097942EA8142134343F0EB
:1048E000805343F40043C0F8003B002070BC704785
:1048F00030B40B784A78012A30D100EB4313D3F857
:104900000029002A0BDAD3F8002942F00062C3F82C
:104910000029D3F8002942F08042C3F80029D0F8DA
:104920003C580A7802F00F02012404FA02F292B213
:1049300025EA0202C0F83C28D0F81C28097801F0CA
:104940000F018C40A4B222EA0404C0F81C48D3F83A
:1049500000191B4A0A40C3F800292DE000EB43135D
:10496000D3F8002B002A0BDAD3F8002B42F00062B8
:10497000C3F8002BD3F8002B42F08042C3F8002B81
:10498000D0F83C580A7802F00F02012404FA02F22F
:1049900025EA0242C0F83C28D0F81C28097801F02A
:1049A0000F018C4022EA0444C0F81C48D3F8001BD5
:1049B000044A0A40C3F8002B002030BC704700BFF7
:1049C000007833EC0078F3EF70B40B784C78012C5E
:1049D0005DD18C69B4B900EB4314D4F8105925F0BB
:1049E000FF5525F4C015C4F81059D4F8105945F4F2
:1049F0000025C4F81059D4F81059ED0CED04C4F892
:104A000010591CE000EB431404F510642569ED0C0B
:104A1000ED042561256925F0FF5525F4C0152561B4
:104A20008E69CD68AE4200D98D61256945F40025B7
:104A3000256126698D69C5F3120535432561012A73
:104A40000ED14A691AB100EB4311C1F8142900EBE9
:104A50004310D0F8002942F00442C0F800293FE09A
:104A600000EB4313D3F8002942F00442C3F80029B5
:104A70008B69002B34D0D0F834380A7802F00F025A
:104A8000012101FA02F21A43C0F8342828E000EBB1
:104A9000431000F530631C69E40CE4041C611C69DC
:104AA00024F0FF5424F4C0141C618C690CB1CC6850
:104AB0008C61CC68CC611C6944F400241C611D69C4
:104AC000CC69C4F312042C431C61012A02D10A6987
:104AD00002B15A61D0F8003B43F00443C0F8003BF8
:104AE000002070BC704700BF10B483B00023019356
:104AF00004464B78012B26D10B7800EB4313D3F8F7
:104B00000029002A46DAD3F8002942F00062C3F8EF
:104B100000290B7800EB4310D0F8003943F08043B4
:104B2000C0F80039019B01330193019A42F21073DE
:104B30009A4231D80B7804EB4313D3F80039002B99
:104B4000F0DB00202DE00B7800EB4313D3F8002BB3
:104B5000002A23DAD3F8002B42F00062C3F8002BBE
:104B60000B7800EB4310D0F8003B43F08043C0F8D3
:104B7000003B019B01330193019A42F210739A4268
:104B80000ED80B7804EB4313D3F8003B002BF0DB7B
:104B9000002006E0002004E0012002E0002000E008
:104BA000012003B05DF8044B704700BF70B49DF85E
:104BB0000C406CB903339B08002507E000EB02347E
:104BC00004F5805451F8046B266001359D42F5D3FD
:104BD000002070BC704700BFF0B583B00C784B78F4
:104BE000012B40F0AB808B69B3B900EB4413D3F8D1
:104BF000105925F0FF5525F4C015C3F81059D3F806
:104C0000105945F40025C3F81059D3F81059ED0C8C
:104C1000ED04C3F8105932E000EB4413D3F81059F7
:104C2000ED0CED04C3F81059D3F8105925F0FF55D9
:104C300025F4C015C3F81059D3F810798D69CE68E2
:104C40003544013DB5FBF6F5664E06EAC5453D43E4
:104C5000C3F81059D3F810698D69C5F312053543AF
:104C6000C3F8105903F510630D79012D07D11D69A3
:104C700025F0C0451D611D6945F000551D61012AE3
:104C800027D14B691BB100EB4412C2F814390B79E0
:104C9000012B15D1D0F8083813F4807F08D100EB30
:104CA0004412D2F8003943F00053C2F8003907E04B
:104CB00000EB4412D2F8003943F08053C2F80039B7
:104CC00000EB4414D4F8003943F00443C4F800392D
:104CD00084E000EB4414D4F8003943F00443C4F8F2
:104CE00000390B79012B0ED08B69002B76D0D0F8D0
:104CF00034480B7803F00F03012202FA03F3234335
:104D0000C0F834386AE0D0F8083813F4807F06D150
:104D1000D4F8003943F00053C4F8003905E0D4F862
:104D2000003943F08053C4F8003914460B46096932
:104D30001A781B8B0094FFF739FF4FE000EB441407
:104D400004F530631D69ED0CED041D611D6925F04E
:104D5000FF5525F4C0151D618D6955B91E69CD68D3
:104D6000C5F3120535431D611D6945F400251D611C
:104D700014E0CE683544013DB5FBF6F5AFB206FB55
:104D800007F6CE611F69174E06EAC5453D431D6112
:104D90001E69CD69C5F3120535431D61012A02D193
:104DA0000A6902B15A610B79012B11D1D0F8083888
:104DB00013F4807F06D1D4F8003B43F00053C4F8CD
:104DC000003B05E0D4F8003B43F08053C4F8003BBF
:104DD000D4F8003B43F00443C4F8003B002003B088
:104DE000F0BD00BF0000F81F70B483B00646950800
:104DF00002F00302002305E006F58054246841F820
:104E0000044B0133AB42F7D37AB100F5805003680D
:104E100001930025EBB2DC00019BE34001F8013B6C
:104E20000135013A92B2002AF4D1084603B070BCB1
:104E3000704700BF0B784A78012A13D100EB43106A
:104E4000D0F80029002A06DB2BB1D0F8003923F076
:104E50008043C0F80039D0F8003943F40013C0F89B
:104E6000003912E000EB4310D0F8002B002A06DBDB
:104E70002BB1D0F8003B23F08043C0F8003BD0F8C2
:104E8000003B43F40013C0F8003B0020704700BF14
:104E90000B784A78012A13D100EB4310D0F800397F
:104EA00023F40013C0F800390B79023BDBB2012B6D
:104EB00019D8D0F8003943F08053C0F8003912E017
:104EC00000EB4310D0F8003B23F40013C0F8003B84
:104ED0000B79023BDBB2012B05D8D0F8003B43F045
:104EE0008053C0F8003B0020704700BFD0F8003866
:104EF00023F4FE63C0F80038D0F80038090101F44B
:104F0000FE611943C0F8001800207047D0F8003E39
:104F100023F00303C0F8003ED0F8043823F0020366
:104F2000C0F8043800207047D0F8003E23F0030397
:104F3000C0F8003ED0F8043843F00203C0F804384B
:104F400000207047426980691040704700F5006397
:104F5000D0F81808DB691840000C704700F50063B2
:104F6000D0F81808DB69184080B2704700EB411197
:104F7000D1F8082B00F5006040691040704700BF71
:104F800010B4D0F81048D0F8342801F00F0322FAFA
:104F900003F3DB01DBB2234300EB411000F51060AB
:104FA000806818405DF8044B704700BF406900F00E
:104FB0000100704738B50546C36823F0C043C3609D
:104FC000012910D1C36843F00053C36000240120BD
:104FD000FDF75EFA01342846FFF7E8FF012812D0FA
:104FE000312CF4D90FE091B9C36843F08043C3601A
:104FF00000240120FDF74CFA01342846FFF7D6FFC4
:1050000008B1312CF5D9322C03D1012038BD012053
:1050100038BD002038BD00BFD0F8003923F4FF634D
:1050200023F00703C0F80039D0F8043843F4807344
:10503000C0F804380020704710B4046C144B9C4234
:1050400003D9D0F8003B002B1EDB0024C0F8104B26
:10505000D0F8104B44F40024C0F8104BD0F8104B9B
:1050600044F01804C0F8104BD0F8104B44F0C04482
:10507000C0F8104B012907D1C0F8142BD0F8003B21
:1050800043F08023C0F8003B00205DF8044B7047DC
:105090000A30544F10B5D0F8D43203F1B00250F8B2
:1050A00022408CB100EB820043687BB194F800028F
:1050B000FF280DD09B6894F8012221469847FF23D2
:1050C00084F80032002010BD032010BD002010BD68
:1050D000002010BD0A2303800048704748000020CC
:1050E000F8B507460F4C8221204600F059FC0646D1
:1050F0000121204600F054FC05468121204600F0A5
:105100004FFC0EB11023B3711DB140232B7100234E
:105110006B7118B1402303710023437143233B801B
:105120000048F8BD54000020F8B507460F4C822116
:10513000204600F035FC06460121204600F030FCF8
:1051400005468121204600F02BFC0EB11023B371DF
:105150001DB140232B7100236B7118B140230371E3
:105160000023437143233B800048F8BD54000020D6
:10517000F8B507460F4C8221204600F011FC064688
:105180000121204600F00CFC05468121204600F05C
:1051900007FC0EB11023B3711DB100232B71022344
:1051A0006B7118B1002303710223437143233B80C9
:1051B0000048F8BD5400002038B5D0F8D432B033E0
:1051C00050F8235095B1044603F0CCF8C5F80C0212
:1051D000D4F8D402B03004EB80004368DB6805F5F6
:1051E0000371D5F804029847002038BD032038BD6C
:1051F000F8B5D0F8C862D0F8D432B03350F82330C4
:1052000083B301F00F0404EB8405AA000244926901
:10521000AAB104EBC407BD003544AE6CB2FBF6F591
:1052200006FB15225AB904EB8404A30003440024AE
:105230009C612346224603F0DFF82046F8BD002299
:10524000C3F81422D0F8D422B03200EB82004268B6
:1052500014694CB10A4603F50471D3F80802A0475B
:105260000020F8BD0320F8BD0020F8BDF0B583B0E4
:10527000D0F8D42202F1B00350F8237000238DF847
:105280000730ADF80430002F77D00D4604460B7878
:1052900013F0600637D0202E6BD1C98839B313F0D4
:1052A000800F13D002F1B00300EB83035B689B68AF
:1052B0000A46394668789847EA88072A28BF0722AD
:1052C0003946204600F058FF002657E06B7887F8F3
:1052D0000032EA883F2A01D8D2B200E0402287F8A3
:1052E00001223946204600F05DFF002646E002F12B
:1052F000B00004EB800043689B6800222946687870
:10530000984700263AE04F780B2F2ED8DFE807F0B9
:1053100006362D2D2D2D2D2D2D2D152490F89C325A
:10532000DBB2032B05D1022201A900F025FF3E4686
:1053300024E000F073FB032620E090F89C32DBB2FF
:10534000032B05D101220DF1070100F015FF15E037
:1053500000F064FB032611E090F89C32DBB2032BD3
:105360000CD000F05BFB032608E000F057FB03269F
:1053700004E000F053FB032600E00326304603B0B0
:10538000F0BD00BF38B50446812103F015F80025B3
:1053900025870121204603F00FF8A4F878518221D7
:1053A000204603F009F8A4F84C50A4F84E50D4F865
:1053B000D43203F1B00254F822209AB1B03304EB96
:1053C00083035B685B689847D4F8D432B03354F8F1
:1053D000230002F0D1FFD4F8D432B03344F8235084
:1053E000C4F8BC52002038BD70B504464FF40770B5
:1053F00002F0BEFF38B9D4F8D432B033002244F8FA
:105400002320022070BD05464FF40772002103F0EF
:1054100029FAD4F8D432B03344F82350C4F8BC523B
:10542000237CABB94FF4007302228121204602F0A5
:10543000B7FF012626874FF400730222314620462B
:1054400002F0AEFFA4F878611023A4F84E3012E009
:10545000402302228121204602F0A2FF0126268756
:10546000402302223146204602F09AFFA4F87861D8
:105470001023A4F84E30082303228221204602F094
:105480008FFF0123A4F84C300026C5F80462D4F83D
:10549000D432B03304EB83035B681B689847C5F8CC
:1054A0001462C5F81862D5F8042282B1237C3BB996
:1054B0004FF400730121204602F0A6FF304670BD74
:1054C00040230121204602F09FFF002070BD0220F2
:1054D00070BD00BF39B1D0F8D432B03300EB8300D7
:1054E0004160002070470320704700BFD0F8D432DD
:1054F000B03350F823302BB1C3F80812C3F8102290
:105500000020704703207047D0F8D432B03350F8F1
:1055100023301BB1C3F804120020704703207047EA
:1055200008B5D0F8D432B03350F823208AB1D2F87D
:10553000143283B90123C2F81432D2F81032C36294
:10554000D2F81032D2F80822812102F055FF002053
:1055500008BD032008BD012008BD00BF08B5D0F874
:10556000D432B03350F8232092B1037C43B94FF4C6
:105570000073D2F80422012102F046FF002008BD8A
:105580004023D2F80422012102F03EFF002008BD92
:10559000032008BD98B108B503460020C3F8B8023F
:1055A000C3F8C402C3F8D00209B1C3F8B412184654
:1055B000012380F89C32027002F08AFE08BD0320AD
:1055C000704700BF10B582B00023ADF80630A9B116
:1055D0000446C4F8B812D0F8D432AE3350F82330B1
:1055E000DB6A23B10DF106009847C4F8D002D4F865
:1055F000D8320133C4F8D832002000E0032002B0D2
:1056000010BD00BF08B502F0C3FE08BD08B5D0F854
:10561000B83213B11B68984708BD002008BD00BF11
:1056200008B5D0F8B8325B68984700B1032008BDD0
:1056300038B5044600F2AA25284600F0DBF901231C
:10564000C4F89432B4F8B032C4F8983294F8AA127C
:1056500001F01F03012B08D013B1022B0AD00EE07A
:105660002946204600F0C0FB38BD2946204600F000
:10567000FBFB38BD2946204600F03AFC38BD01F05E
:105680008001204602F0A0FE38BD00BFF8B50446F8
:10569000012380F89C320023C0F894324360C0F8A4
:1056A000A43280F8A032D0F8B83233B15B6833B19D
:1056B0000021984728B9002704E0002702E00027CE
:1056C00000E00327402300221146204602F068FE36
:1056D0000126A4F864614025C4F860512B460022DD
:1056E0008021204602F05CFEA68425623846F8BD83
:1056F00001740020704700BF90F89C32DBB280F844
:105700009D32042380F89C320020704790F89C3230
:10571000DBB2042B04D190F89D32DBB280F89C32CE
:105720000020704708B590F89C32DBB2032B05D1FE
:10573000D0F8B83213B1DB6903B19847002008BD37
:1057400008B5D0F8D432AE3350F823204AB190F8DF
:105750009C32DBB2032B06D1136A33B19847002089
:1057600008BD032008BD002008BD002008BD00BF03
:1057700008B5D0F8D432AE3350F823204AB190F8AF
:105780009C32DBB2032B06D1536A33B19847002019
:1057900008BD032008BD002008BD002008BD00BFD3
:1057A0000020704708B5012380F89C32D0F8B83249
:1057B00023B15B680179984710B908BD002008BD86
:1057C000032008BD002070470020704738B504460C
:1057D000002942D11346D0F89422032A5ED1D0F892
:1057E0005C11D0F8602191420AD9891AC0F85C1185
:1057F0008A4228BF0A46194600F0E4FC002038BD62
:1058000090F8AA3203F01F03012B02D0022B05D01F
:1058100009E090F8AE12FFF7D5FF05E090F8AE1260
:10582000FFF7D2FF00E0002090B994F89C32DBB281
:10583000032B0DD100F1AE0354F823301B693BB1AB
:10584000C4F8D402AE3054F820301B692046984783
:10585000204600F0BFFC002038BD0D4601F07F015E
:10586000FFF7B2FF0246D8B994F89C32DBB2032BA3
:105870000FD100F1AE0354F823309B695BB1C4F83B
:10588000D402AE3254F822309B692946204698470C
:1058900002E0002000E0002020B138BD002038BD2B
:1058A000002038BD002038BD38B50446002947D156
:1058B0001346D0F89422022A3BD1C269016A8A4277
:1058C0000BD9521AC261194600F064FC00231A4633
:1058D0001946204602F098FD2BE08A4213D18369D5
:1058E000994210D8D0F8982293420CD20022114647
:1058F00000F050FC0021C4F898120B460A462046DE
:1059000002F082FD15E094F89C32DBB2032B09D142
:10591000D4F8B832DA682AB10022C4F8D422DB689D
:10592000204698478021204602F04EFD204600F098
:105930005DFC94F8A03203B3002084F8A00238BDC7
:105940000D4641F08001FFF73FFF0246B8B994F8D9
:105950009C32DBB2032B14D100F1AE0354F8233098
:105960005B6983B1C4F8D402AE3254F822305B696B
:1059700029462046984740B138BD002038BD002058
:1059800038BD002038BD002038BD002038BD00BF24
:1059900002780B8813440B8003781844704700BFCB
:1059A000428803789A4217D930B583B00D46044631
:1059B000ADF8063009E00DF10601FFF7E9FF437885
:1059C000052B02D18378AB4208D06288BDF806303F
:1059D0009A42F0D8002001E00020704703B030BDAB
:1059E0000346002002E00130C0B201331A78002AD9
:1059F000F9D170470B7803704B7843708B78CA7875
:105A000043EA022343800B794A7943EA02238380E5
:105A10008B79CA7943EA0223C380704710B50446E4
:105A2000802102F0D1FC0021204602F0CDFC10BD07
:105A300030B583B004460D460023ADF806304A88E1
:105A4000130A013B062B00F2B580DFE803F0040DDA
:105A500023B3B391A100D0F8B4321B680DF1060155
:105A6000007C98470023AAE0037C4BB9D0F8B832F9
:105A70009B6A0DF1060098470223437000239EE0C5
:105A8000D0F8B832DB6A0DF1060098470223437064
:105A9000002394E0D2B2052A64D8DFE802F00313B1
:105AA00023334353D0F8B4325B682BB10DF10601B8
:105AB000007C9847002382E02946FFF7AFFF0123CF
:105AC00000207CE0D0F8B4329B682BB10DF10601C8
:105AD000007C9847002372E02946FFF79FFF0123CF
:105AE00000206CE0D0F8B432DB682BB10DF1060178
:105AF000007C9847002362E02946FFF78FFF0123CF
