:020000040800F2
:10000000000001207515000841140008451400087F
:10001000491400084D1400085114000800000000A5
:10002000000000000000000000000000F151000886
:100030005514000800000000915200082D4F0008E0
:10004000C5150008C5150008C5150008C515000828
:10005000C5150008C5150008C5150008C515000818
:10006000C5150008C5150008C5150008C515000808
:10007000C5150008C5150008C5150008C5150008F8
:10008000C5150008C5150008C515000800000000CA
:10009000000000000000000000000000C51500087E
:1000A000C515000859140008C5150008C515000835
:1000B000C5150008C5150008C5150008C5150008B8
:1000C000C5150008C5150008C5150008C5150008A8
:1000D000C5150008C5150008C5150008000000007A
:1000E000C5150008C5150008C5150008000000006A
:1000F000000000000000000000000000C51500081E
:1001000000000000C5150008C5150008C515000849
:1001100000000000000000000000000000000000DF
:10012000C5150008C5150008C5150008C515000847
:10013000C5150008000000000000000000000000DD
:10014000000000000000000000000000691400082A
:10015000C5150008C5150008C5150008C515000817
:10016000C5150008C51500080000000000000000CB
:10017000000000000000000000000000000000007F
:1001800000000000C515000800000000000000008D
:04019000C515000889
:1001C00010B5054C237833B9044B13B10448AFF391
:1001D00000800123237010BDA80A00200000000049
:1001E0005CAF0008084B10B51BB108490848AFF3D5
:1001F00000800848036803B910BD074B002BFBD0F3
:10020000BDE81040184700BF00000000AC0A002005
:100210005CAF0008A80A00200000000053B94AB9EA
:10022000002908BF00281CBF4FF0FF314FF0FF30FE
:1002300000F07EB9ADF1080C6DE904CE00F006F8CF
:10024000DDF804E0DDE9022304B070472DE9F04752
:100250008C460E460446089D002B50D18A42174614
:100260006CD9B2FA82FEBEF1000F0BD0CEF12004A1
:1002700020FA04F401FA0EF644EA060C02FA0EF72C
:1002800000FA0EF44FEA1749220CBCFBF9F01FFAF2
:1002900087F809FB10C642EA064600FB08F3B342A2
:1002A00009D9F61900F1FF3280F02281B34240F201
:1002B0001F8102383E44F61AA2B2B6FBF9F309FBDD
:1002C000136642EA064403FB08F8A04509D9E4197D
:1002D00003F1FF3280F00A81A04540F20781023B22
:1002E0003C44C8EB040443EA00400021002D62D0E6
:1002F00024FA0EF400232C606B60BDE8F0878B427B
:1003000007D9002D55D0002185E841000846BDE8F9
:10031000F087B3FA83F1002940F09080B34202D312
:10032000824200F2F880841A66EB03060120B4468C
:10033000002D40D085E81010BDE8F08712B90127E4
:10034000B7FBF2F7B7FA87FEBEF1000F35D1F31B0A
:100350004FEA17481FFA87FC0121B3FBF8F0220C83
:1003600008FB103642EA06460CFB00F3B34207D9FD
:10037000F61900F1FF3202D2B34200F2CE801046ED
:10038000F61AA2B2B6FBF8F308FB136642EA06447B
:100390000CFB03FCA44507D9E41903F1FF3202D298
:1003A000A44500F2B5801346CCEB040443EA0040B8
:1003B0009CE729462846BDE8F087CEF1200106FAE1
:1003C0000EF307FA0EF720FA01F94FEA1748CE406C
:1003D00049EA0309B6FBF8FA4FEA194408FB1A6622
:1003E0001FFA87FC44EA06430AFB0CF29A4200FA21
:1003F0000EF40AD9DB190AF1FF3180F087809A42A6
:1004000040F28480AAF1020A3B449B1A1FFA89F940
:10041000B3FBF8F108FB113349EA034301FB0CF687
:100420009E4207D9DB1901F1FF326BD29E4269D996
:1004300002393B449B1B41EA0A418EE7C1F1200E81
:1004400022FA0EF48B40234320FA0EF706FA01F449
:100450004FEA134C26FA0EF63C43B6FBFCF9270C88
:100460000CFB19661FFA83F847EA064609FB08F7F2
:10047000B74202FA01F200FA01FA08D9F61809F1B6
:10048000FF3041D2B7423FD9A9F102091E44F61B01
:10049000A0B2B6FBFCF40CFB146640EA064704FB72
:1004A00008F8B84507D9FF1804F1FF3028D2B8453D
:1004B00026D9023C1F4444EA0940C8EB0707A0FBC9
:1004C00002894F4544464E4614D329D065B3BAEB52
:1004D000040367EB060707FA0EFECB40CF404EEA57
:1004E000030385E888000021BDE8F0871346F8E69D
:1004F0001046E0E6B8EB020469EB03060138E5E7D5
:100500000446D8E7114695E78146C0E78A467CE76E
:10051000023B3C4448E708460AE702383E442FE7DE
:10052000C245E7D33E46D1E72946BDE8F08700BF84
:10053000704700BF844641EA000313F003036DD106
:10054000403A41D351F8043B40F8043B51F8043B96
:1005500040F8043B51F8043B40F8043B51F8043B9D
:1005600040F8043B51F8043B40F8043B51F8043B8D
:1005700040F8043B51F8043B40F8043B51F8043B7D
:1005800040F8043B51F8043B40F8043B51F8043B6D
:1005900040F8043B51F8043B40F8043B51F8043B5D
:1005A00040F8043B51F8043B40F8043B51F8043B4D
:1005B00040F8043B51F8043B40F8043B51F8043B3D
:1005C00040F8043B403ABDD2303211D351F8043BDD
:1005D00040F8043B51F8043B40F8043B51F8043B1D
:1005E00040F8043B51F8043B40F8043B103AEDD28C
:1005F0000C3205D351F8043B40F8043B043AF9D2DD
:10060000043208D0D2071CBF11F8013B00F8013BAF
:1006100001D30B8803806046704700BF082A13D3BC
:100620008B078DD010F003038AD0C3F10403D21AD4
:10063000DB071CBF11F8013B00F8013B80D331F808
:10064000023B20F8023B7BE7043AD9D3013A11F888
:10065000013B00F8013BF9D20B7803704B784370F3
:100660008B78837060467047000000000000000037
:1006700001F0FF01102A2BDB10F0070F08D010F853
:10068000013B013A8B422DD010F0070F42B3F6D157
:10069000F0B441EA012141EA014122F007047FF070
:1006A00000070023F0E80256083C85EA010586EAC7
:1006B000010685FA47F5A3FA87F586FA47F6A5FA03
:1006C00087F68EB9EED1F0BC01F0FF0102F007020F
:1006D00032B110F8013B013A83EA010313B1F8D1BA
:1006E0000020704701387047002D06BF354603389B
:1006F000073815F0010F07D1013015F4807F02BFD4
:10070000013015F4C03F0130F0BC0138704700BF24
:1007100000000000000000000000000000000000D9
:1007200000000000000000000000000000000000C9
:1007300000000000000000000000000000000000B9
:1007400090F800F06DE9024520F007016FF0000C11
:1007500010F0070491F820F040F049804FF00004B9
:100760006FF00700D1E9002391F840F000F1080094
:1007700082FA4CF2A4FA8CF283FA4CF3A2FA8CF3CC
:100780004BBBD1E9022382FA4CF200F10800A4FA33
:100790008CF283FA4CF3A2FA8CF3E3B9D1E9042387
:1007A00082FA4CF200F10800A4FA8CF283FA4CF3BE
:1007B000A2FA8CF37BB9D1E9062301F1200182FA78
:1007C0004CF200F10800A4FA8CF283FA4CF3A2FA7E
:1007D0008CF3002BC6D0002A04BF04301A4612BA8C
:1007E000B2FA82F2FDE8024500EBD2007047D1E98F
:1007F000002304F00305C4F100004FEAC50514F01E
:10080000040F91F840F00CFA05F562EA05021CBFEE
:1008100063EA050362464FF00004A9E781F0004156
:1008200002E000BF83F0004330B54FEA41044FEAD5
:10083000430594EA050F08BF90EA020F1FBF54EA70
:10084000000C55EA020C7FEA645C7FEA655C00F00C
:10085000E2804FEA5454D4EB5555B8BF6D420CDDDD
:100860002C4480EA020281EA030382EA000083EA60
:10087000010180EA020281EA0303362D88BF30BD00
:1008800011F0004F4FEA01314FF4801C4CEA113156
:1008900002D0404261EB410113F0004F4FEA0333B5
:1008A0004CEA133302D0524263EB430394EA050F40
:1008B00000F0A780A4F10104D5F1200E0DDB02FAAF
:1008C0000EFC22FA05F2801841F1000103FA0EF243
:1008D000801843FA05F359410EE0A5F120050EF109
:1008E000200E012A03FA0EFC28BF4CF0020C43FA3A
:1008F00005F3C01851EBE37101F0004507D54FF047
:10090000000EDCF1000C7EEB00006EEB0101B1F596
:10091000801F1BD3B1F5001F0CD349085FEA3000DC
:100920004FEA3C0C04F101044FEA445212F5800FE7
:1009300080F09A80BCF1004F08BF5FEA500C50F184
:10094000000041EB045141EA050130BD5FEA4C0C67
:10095000404141EB010111F4801FA4F10104E9D1F0
:1009600091F0000F04BF01460020B1FA81F308BFE7
:100970002033A3F10B03B3F120020CDA0C3208DDB3
:1009800002F1140CC2F10C0201FA0CF021FA02F18E
:100990000CE002F11402D8BFC2F1200C01FA02F1FE
:1009A00020FA0CFCDCBF41EA0C019040E41AA2BF23
:1009B00001EB0451294330BD6FEA04041F3C1CDAEB
:1009C0000C340EDC04F11404C4F1200220FA04F00B
:1009D00001FA02F340EA030021FA04F345EA0301B5
:1009E00030BDC4F10C04C4F1200220FA02F001FA77
:1009F00004F340EA0300294630BD21FA04F02946F9
:100A000030BD94F0000F83F4801306BF81F4801191
:100A10000134013D4EE77FEA645C18BF7FEA655C04
:100A200029D094EA050F08BF90EA020F05D054EAD6
:100A3000000C04BF1946104630BD91EA030F1EBFDB
:100A40000021002030BD5FEA545C05D140004941DF
:100A500028BF41F0004130BD14F580043CBF01F5D2
:100A6000801130BD01F0004545F0FE4141F47001B8
:100A70004FF0000030BD7FEA645C1ABF1946104693
:100A80007FEA655C1CBF0B46024650EA013406BF94
:100A900052EA033591EA030F41F4002130BD00BF53
:100AA00090F0000F04BF0021704730B54FF4806410
:100AB00004F132044FF000054FF0000150E700BF91
:100AC00090F0000F04BF0021704730B54FF48064F0
:100AD00004F1320410F0004548BF40424FF00001DD
:100AE0003EE700BF42004FEAE2014FEA31014FEA20
:100AF00002701FBF12F07F4393F07F4F81F060516F
:100B0000704792F0000F14BF93F07F4F704730B5DD
:100B10004FF4607401F0004521F0004120E700BF70
:100B200050EA010208BF704730B54FF000050AE0F7
:100B300050EA010208BF704730B511F0004502D5F8
:100B4000404261EB41014FF4806404F132045FEAFA
:100B5000915C3FF4DCAE4FF003025FEADC0C18BF9F
:100B600003325FEADC0C18BF033202EBDC02C2F195
:100B7000200300FA03FC20FA02F001FA03FE40EA27
:100B80000E0021FA02F11444C1E600BF70B54FF027
:100B9000FF0C4CF4E06C1CEA11541DBF1CEA135509
:100BA00094EA0C0F95EA0C0F00F0DEF82C4481EA71
:100BB000030621EA4C5123EA4C5350EA013518BF91
:100BC00052EA033541F4801143F4801338D0A0FB7E
:100BD00002CE4FF00005E1FB02E506F00042E0FB2B
:100BE00003E54FF00006E1FB03569CF0000F18BF31
:100BF0004EF0010EA4F1FF04B6F5007F64F54074D9
:100C000004D25FEA4E0E6D4146EB060642EAC6216B
:100C100041EA55514FEAC52040EA5E504FEACE2ED8
:100C2000B4F1FD0C88BFBCF5E06F1ED8BEF1004FDB
:100C300008BF5FEA500E50F1000041EB045170BD57
:100C400006F0004646EA010140EA020081EA03019B
:100C5000B4EB5C04C2BFD4EB0C0541EA045170BD97
:100C600041F480114FF0000E013C00F3AB8014F111
:100C7000360FDEBF002001F0004170BDC4F100045A
:100C8000203C35DA0C341BDC04F11404C4F12005DB
:100C900000FA05F320FA04F001FA05F240EA020036
:100CA00001F0004221F0004110EBD37021FA04F66C
:100CB00042EB06015EEA430E08BF20EAD37070BD26
:100CC000C4F10C04C4F1200500FA04F320FA05F085
:100CD00001FA04F240EA020001F0004110EBD37087
:100CE00041F100015EEA430E08BF20EAD37070BDF7
:100CF000C4F1200500FA05F24EEA020E20FA04F3D0
:100D000001FA05F243EA020321FA04F001F000417E
:100D100021FA04F220EA020000EBD3705EEA430EEF
:100D200008BF20EAD37070BD94F0000F0FD101F01E
:100D30000046400041EB010111F4801F08BF013C57
:100D4000F7D041EA060195F0000F18BF704703F095
:100D50000046520043EB030313F4801F08BF013D1C
:100D6000F7D043EA0603704794EA0C0F0CEA1355D8
:100D700018BF95EA0C0F0CD050EA410618BF52EA92
:100D80004306D1D181EA030101F000414FF0000098
:100D900070BD50EA410606BF1046194652EA4306A6
:100DA00019D094EA0C0F02D150EA013613D195EA1A
:100DB0000C0F05D152EA03361CBF104619460AD162
:100DC00081EA030101F0004141F0FE4141F470016C
:100DD0004FF0000070BD41F0FE4141F4780170BD5C
:100DE00070B54FF0FF0C4CF4E06C1CEA11541DBFC1
:100DF0001CEA135594EA0C0F95EA0C0F00F0A7F8C3
:100E0000A4EB050481EA030E52EA03354FEA0131EF
:100E100000F088804FEA03334FF0805545EA131302
:100E200043EA12634FEA022245EA111545EA1065CA
:100E30004FEA00260EF000419D4208BF964244F161
:100E4000FD0404F5407402D25B084FEA3202B61A80
:100E500065EB03055B084FEA32024FF480104FF454
:100E6000002CB6EB020E75EB030E22BFB61A7546C8
:100E700040EA0C005B084FEA3202B6EB020E75EB5B
:100E8000030E22BFB61A754640EA5C005B084FEAC3
:100E90003202B6EB020E75EB030E22BFB61A754690
:100EA00040EA9C005B084FEA3202B6EB020E75EB9B
:100EB000030E22BFB61A754640EADC0055EA060E5C
:100EC00018D04FEA051545EA16754FEA06164FEA9F
:100ED000C30343EA52734FEAC2025FEA1C1CC0D14B
:100EE00011F4801F0BD141EA00014FF000004FF0D8
:100EF000004CB6E711F4801F04BF01430020B4F199
:100F0000FD0C88BFBCF5E06F3FF6AFAEB5EB030C50
:100F100004BFB6EB020C5FEA500C50F1000041EB4D
:100F2000045170BD0EF0004E4EEA113114EB5C041A
:100F3000C2BFD4EB0C0541EA045170BD41F48011ED
:100F40004FF0000E013C90E645EA060E8DE60CEAF5
:100F5000135594EA0C0F08BF95EA0C0F3FF43BAF12
:100F600094EA0C0F0AD150EA01347FF434AF95EAC9
:100F70000C0F7FF425AF104619462CE795EA0C0FAD
:100F800006D152EA03353FF4FDAE1046194622E77A
:100F900050EA410618BF52EA43067FF4C5AE50EA54
:100FA00041047FF40DAF52EA43057FF4EBAE12E744
:100FB0004FF0FF3C06E000BF4FF0010C02E000BF25
:100FC0004FF0010C4DF804CD4FEA410C7FEA6C5C08
:100FD0004FEA430C18BF7FEA6C5C1BD001B050EAAB
:100FE000410C0CBF52EA430C91EA030F02BF90EA96
:100FF000020F0020704710F1000F91EA030F58BF55
:10100000994208BF90422CBFD8176FEAE37040F0B6
:10101000010070474FEA410C7FEA6C5C02D150EA54
:10102000013C07D14FEA430C7FEA6C5CD6D152EA0F
:10103000033CD3D05DF8040B704700BF84461046D4
:1010400062468C461946634600E000BF01B5FFF7D3
:10105000B7FF002848BF10F1000F01BD4DF808EDA3
:10106000FFF7F4FF0CBF012000205DF808FB00BF74
:101070004DF808EDFFF7EAFF34BF012000205DF8CE
:1010800008FB00BF4DF808EDFFF7E0FF94BF01201B
:1010900000205DF808FB00BF4DF808EDFFF7CEFF1C
:1010A00094BF012000205DF808FB00BF4DF808ED5B
:1010B000FFF7C4FF34BF012000205DF808FB00BF2C
:1010C0004FEA410C7FEA6C5C02D150EA013C0AD144
:1010D0004FEA430C7FEA6C5C02D152EA033C02D136
:1010E0004FF0000070474FF0010070474FEA410297
:1010F00012F5001215D211D56FF47873B3EB62526A
:1011000012D94FEAC12343F0004343EA505311F090
:10111000004F23FA02F018BF404270474FF0000022
:10112000704750EA013005D111F0004008BF6FF060
:10113000004070474FF00000704700BF08B505F051
:10114000B5FD034805F0F8FF012003F08BFFF8E739
:101150009CAF000808B5044A0021044803F022FFB0
:10116000034B186008BD00BF78AF00083D110008B0
:10117000C40A002030B589B0002403940494059477
:10118000069407940094184B1A6B42F080021A637D
:101190001A6B02F080020092009A01941A6B42F0DE
:1011A00001021A631A6B02F001020192019A029481
:1011B0001A6B42F002021A631B6B03F002030293E4
:1011C000029B0A4D22461821284600F065FB182391
:1011D0000393012304930594069403A9284600F081
:1011E00085FA09B030BD00BF00380240000402405B
:1011F00008B50268024B9A4201D100F0FFF908BD20
:101200000000014072B6FEE700B595B03022002123
:1012100008A805F0D7FF00230393049305930693D2
:1012200007930193214A116C41F080511164126CB3
:1012300002F080520192019A02931D4A136823F42E
:10124000404343F400431360136803F440430293A4
:10125000029B012308934FF48033099302230E93DA
:101260004FF480030F93102310934FF4A87311933E
:10127000042312930723139308A801F05BF908B124
:10128000FFF7C0FF0F23039302210491002305936E
:101290004FF480520692079303A801F0BFFB08B1F8
:1012A000FFF7B0FF15B05DF804FB00BF0038024047
:1012B0000070004008B500F087F9FFF7A5FFFFF7C1
:1012C00059FF00F005F900F007F803F03BFEFFF7C7
:1012D00041FF03F04BFEFEE708B50D480D4B0360E0
:1012E0004FF48273436000238360C36003614361F2
:1012F0004FF400728261C3610362436283620A2316
:10130000C36201F083FC08B1FFF77CFF08BD00BF9A
:10131000C80A00200030014000B589B000230393C3
:1013200004930593069307930268144B9A4222D1C3
:101330000021019103F584335A6C42F480525A64BF
:101340005A6C02F480520192019A02911A6B42F097
:1013500001021A631B6B03F001030293029BE0235B
:10136000039302230493032306930523079303A9FE
:10137000034800F0BBF909B05DF804FB0030014000
:101380000000024000B583B0002200920D4B596C62
:1013900041F480415964596C01F4804100910099F5
:1013A0000192196C41F0805119641B6C03F0805359
:1013B0000193019B0F216FF0010000F057F903B07A
:1013C0005DF804FB0038024010B588B000220146E9
:1013D000192000F04BF9192000F07AF9002401944B
:1013E000134B5A6C42F001025A645B6C03F0010328
:1013F0000193019B02A903A801F0EAFB01F0D8FBCD
:101400000C4BA3FB00239B0C013B0B480B4A0260D7
:1014100040F2E732C26043600461846001F0A4FDE1
:1014200018B9054801F056FC00E0012008B010BDD5
:101430000038024083DE1B43200B002000000140E7
:10144000FEE700BFFEE700BFFEE700BFFEE700BF0C
:10145000FEE700BF704700BF08B5024801F07EFC00
:1014600008BD00BF200B002008B5024800F060FD59
:1014700008BD00BF0C6A002008B50C4B1B6813B9EF
:101480000B4A0A4B1A60094B1A68131809480A4993
:10149000091A994206D205F067FE0C2303604FF04B
:1014A000FF3008BD01490B60104608BD680B0020E5
:1014B000707100200004000000000120034AD2F8EF
:1014C000883043F47003C2F88830704700ED00E0C4
:1014D00008B50A480A4B03604FF4E1334360002328
:1014E0008360C36003610C2242618361C36101F0C8
:1014F000F5FD08B1FFF786FE08BD00BF6C0B0020AC
:101500000010014000B589B00023039304930593B4
:1015100006930793026803F1804303F588339A42E8
:1015200023D10021019103F594335A6C42F010024B
:101530005A645A6C02F010020192019A02911A6BDD
:1015400042F001021A631B6B03F001030293029B3A
:101550004FF4C063039302230493032306930723EA
:10156000079303A9024800F0C1F809B05DF804FB35
:1015700000000240DFF834D00D480E490E4A002327
:1015800002E0D458C4500433C4188C42F9D30B4A37
:101590000B4C002301E013600432A242FBD3FFF79F
:1015A0008DFF05F0E7FDFFF785FE70470000012085
:1015B00000000020A80A0020C4B20008A80A0020E9
:1015C00070710020FEE7000008B50B4B1A6842F46A
:1015D00000721A601A6842F480621A601A6842F453
:1015E00080721A60032000F02FF80F20FFF7ECFE46
:1015F000FFF7C8FE002008BD003C0240034A136804
:10160000034909780B441360704700BFB00B0020FA
:1016100008000020014B1868704700BFB00B002085
:1016200038B50446FFF7F6FF0546B4F1FF3F02D098
:10163000044B1B781C44FFF7EDFF401B8442FAD893
:1016400038BD00BF08000020074AD36823F4E063D8
:101650001B041B0C000200F4E060184340F0BF6064
:1016600040F40030D060704700ED00E030B4164B1D
:10167000DB68C3F30223C3F10704042C28BF04244E
:101680001D1D062D01D9DD1E00E00025012303FAF2
:1016900004F4013C2140A940AB40013B1A400A43FD
:1016A000002808DB1201D2B200F1604000F5614071
:1016B00080F8002305E000F00F001201D2B2034BC6
:1016C0001A5430BC704700BF00ED00E014ED00E09C
:1016D000002808DB420900F01F00012303FA00F094
:1016E000014B43F82200704700E100E0F0B583B001
:1016F0000023C3E001229A400C6802EA0405AA42D2
:1017000040F0BB804C6804F00304013C012C15D868
:1017100087684FEA430E032606FA0EF627EA060606
:10172000CC6804FA0EF434438460446824EA02026C
:101730004C68C4F300149C40224342604A6802F0A3
:101740000302032A09D0C6685F000324BC4026EACE
:1017500004048A68BA402243C2604A6802F0030265
:10176000022A0FD1DC08083450F8247003F0070275
:1017700096000F22B24027EA02070A69B2403A43B4
:1017800040F8242004685F000326BE4024EA0606D1
:101790004A6802F0030404FA07F2324302604A681E
:1017A00012F4403F69D000220192374A546C44F44D
:1017B00080445464526C02F480420192019A9E0863
:1017C000B41C324A52F8244003F0030292000F275F
:1017D000974024EA07072E4CA04211D004F58064FC
:1017E000A0420FD004F58064A0420DD004F58064BF
:1017F000A0420BD004F58064A04209D1042408E083
:10180000002406E0012404E0022402E0032400E0B6
:10181000072404FA02F23A4302361C4C44F826200C
:101820001C4A9468EA4304EA02064F6817F4801FD2
:1018300001D045EA0406174CA660E46802EA0406F3
:101840004F6817F4001F01D045EA0406114CE6600A
:10185000646802EA04064F6817F4003F01D045EAC5
:1018600004060C4C6660246822404E6816F4803FE3
:1018700001D045EA0402074C226001330F2B7FF6AA
:1018800039AF03B0F0BD00BF00380240003801405E
:1018900000000240003C01400AB181617047090428
:1018A000816170472DE9F04782B0D0F80080CA000E
:1018B0000A4493000344DA6D5B6D9A4256D8C146E0
:1018C0009B1A01EBC104A2000244926C934200D81F
:1018D0001A460C46074602F1030A4FEA9A0A1EE02E
:1018E0005B1A04EBC4018A003A44966CB34200D8F8
:1018F0001E4606F1030A4FEA9A0AE30023449D00BC
:101900003D44E96C3B7C0093B3B2E2B2404601F047
:10191000E1FFEB6C3344EB64EB6D1E44EE6509EBC9
:10192000441303F510639B699BB29A4509D8E30001
:1019300023449A003A44D16D536D994201D2002B51
:10194000CED1E3002344980007447A6DFB6D9A42A0
:101950000ED804F00F04012303FA04F4D8F8343845
:1019600023EA0404C8F83448002002E0012000E023
:10197000002002B0BDE8F087F0B58BB0002800F081
:101980008A800446056890F8BD3413F0FF0F04D137
:10199000002380F8BC3405F07BFA032384F8BD34BF
:1019A000EB6B13F4807F01D100232361206801F0E9
:1019B000AFFC254655F8107B6E460FCD0FC60FCDF8
:1019C0000FC695E8030086E80300231D0ECB3846BA
:1019D00001F0DEFB20B1022384F8BD3401255BE079
:1019E0000021206802F07AF9002315E0D900C81818
:1019F00082002244012082F83D0082F83C30A2F8A7
:101A00004430002082F840009064D064CA189100ED
:101A1000214448650133DBB26568AB42E6D300235D
:101A200015E0D800C1188A002244002182F87D12F6
:101A300082F87C3282F88012C2F88812C2F88C12C6
:101A4000C21890002044C0F894120133DBB29D42CA
:101A5000E7D8254655F8107B6E460FCD0FC60FCD43
:101A60000FC695E8030086E80300231D0ECB384619
:101A700001F0AAFC054620B1022384F8BD340125FB
:101A80000AE0002384F83830012384F8BD3420684C
:101A900002F0DEF800E0012528460BB0F0BD00BFE3
:101AA000026890F8BC34012B18D010B5012380F8DF
:101AB000BC34836A012B06D18369012B03D0936B5D
:101AC00043F4803393630446006801F01BFC2068F4
:101AD00002F0B0F8002084F8BC0410BD022070476A
:101AE00070B504460D460068066C00EB411303F523
:101AF000306399682269012A47D111F0080F09D093
:101B0000354A964266D911F4004F63D04FF4004233
:101B10009A605FE011F0200F02D020229A6059E015
:101B200011F0280F56D12C4A964206D911F4004FD5
:101B300003D04FF400429A604CE0E90029448A0047
:101B40002244D2F898121B69C3F31203CB1AC2F8CD
:101B50009C32ADB905EBC5018A002244D2F894222B
:101B60002AB904F2C442012102F0FAF808E0E900BF
:101B700029448A002244D2F88C120B44C2F88C32D9
:101B8000E9B2204605F0CEF924E0144A964210D17D
:101B900011F4004F03D04FF400429A601AE011F0A4
:101BA000200F01D020229A60E9B2204605F0BAF950
:101BB00010E05DB905EBC50293002344D3F89432DD
:101BC00023B904F2C442002102F0CAF8E9B2204667
:101BD00005F0A8F9002070BD0A30544F0A31544F67
:101BE00038B5044603681D6C03EB4111D1F8082B8E
:101BF0000D4B9D4207D901F5306112F4004F02D020
:101C00004FF400438B60204605F084F9064B9D425B
:101C100008D92369012B05D104F2C44201212068AF
:101C200002F09EF8002038BD0A30544F90F8BC34C2
:101C3000012B0DD010B50446012380F8BC3480F888
:101C40003810006801F0E6FF002084F8BC0410BDE5
:101C500002207047F8B511F0800F0ED001F00F058B
:101C6000EE007719BC0027463834044404343E465D
:101C70000644012586F83D500EE001F00F06F50000
:101C8000AF19BC00274604F51E74044404343D46D5
:101C90000544002685F87D6201F00F012170E260A5
:101CA0002371627802B12181022B01D1002363717B
:101CB00090F8BC34012B0BD00546012380F8BC34CE
:101CC0002146006801F05CFC002085F8BC04F8BDEA
:101CD0000220F8BD38B511F0800F0ED001F00F02D0
:101CE000D400A518AB001D463833034404332C46FA
:101CF0000444012284F83D200EE001F00F02D400DC
:101D0000A518AB001D4603F51E73034404332C468F
:101D10000444002284F87D2201F00F01197090F82C
:101D2000BC24012A0BD00446012280F8BC241946A9
:101D3000006801F071FC002084F8BC0438BD02206A
:101D400038BD00BF70B501F00F05EE0071198C00B1
:101D500004F51E740444211D2E44B4000444C4F848
:101D60008C22C4F894320023C4F89C3284F87D326B
:101D700084F87C520369012B05D105EBC506B4003C
:101D80000444C4F8902225B9DAB2006801F0B0FC2E
:101D900003E0DAB2006801F0B3FD002070BD00BFBF
:101DA00001F00F0101EBC1018B001844D0F89C0237
:101DB000704700BF70B501F00F05EE0071198C007F
:101DC00038340444211D2E44B4000444E2646365A5
:101DD0000023E365012384F83D3084F83C50036917
:101DE000012B04D105EBC506B4000444226525B9D6
:101DF000DAB2006801F07CFC03E0DAB2006801F0BE
:101E00007FFD002070BD00BF38B501F00F054368AD
:101E10009D4235D811F0800F0BD0EA0051198B008C
:101E200019463833034404330144012281F83D202C
:101E30000CE0CA005418A3001C4603F51E730344AB
:101E4000043322460244002182F87D1201229A7056
:101E50001D7090F8BC24012A14D00446012280F899
:101E6000BC241946006801F079FE2DB904F2C44281
:101E7000217C206801F074FF002084F8BC0438BD88
:101E8000012038BD022038BD01F00F0342689342A3
:101E90002DD810B511F0800F0BD0DA00D418A100A6
:101EA0000C463831014404310444012284F83D20B9
:101EB0000BE0DA00D418A1000C4601F51E710144B4
:101EC00004310444002284F87D2200228A700B70C1
:101ED00090F8BC34012B0CD00446012380F8BC34AC
:101EE000006801F069FE002084F8BC0410BD0120E8
:101EF0007047022010BD00BF08B511F0800F09D057
:101F000001F00F0101EBC1018B0003F13801014425
:101F1000043108E001F00F0101EBC1018B0003F572
:101F20001E7101440431006801F072FC08BD00BF5D
:101F30002DE9F84F04460768384601F0CBFE00282B
:101F400040F0CB823E46206801F090FE002800F071
:101F5000C48207F50068D8F80830C3F30D23C4F82D
:101F6000FC34206801F082FE10F0020F04D02268D9
:101F7000536903F002035361206801F077FE10F00B
:101F8000100F45D02268936923F0100393613D6AD6
:101F900005F00F09C5F34343022B1FD147F6F07339
:101FA0001D4230D04FEAC90B0BEB09034FEA830AFD
:101FB000A2442D09C5F30A02DAF88C12384601F062
:101FC000A7FDC5F30A05DAF88C322B44CAF88C3227
:101FD000DAF89C321D44CAF89C5214E0062B12D148
:101FE000082204F2C441384601F092FDC5F30A15F7
:101FF0004FEAC90101EB09029300E218D2F89C32C2
:102000002B44C2F89C322268936943F01003936119
:10201000206801F02BFE10F4002F6BD0206801F037
:1020200029FE05464FF0000962E015F0010F5CD073
:102030005FFA89FB5946206801F02CFE824610F0B9
:10204000010F08D006EB49130122C3F8082B4946BB
:102050002046FFF745FD1AF0080F08D006EB49139C
:102060000822C3F8082B49462046FFF7B9FD1AF0AD
:10207000100F04D006EB49131022C3F8082B1AF0F6
:10208000020F21D07B6913F0800F05D0D8F80430FF
:1020900043F48063C8F8043009EBC9029300234479
:1020A00093F87F32012B0AD109EBC9029300234434
:1020B000002283F87F225946204604F081FF06EB78
:1020C00049130222C3F8082B1AF0200F04D006EBA4
:1020D00049132022C3F8082B1AF4005F05D006EB41
:1020E00049134FF40052C3F8082B09F101096D0898
:1020F000002D9AD1206801F0B9FD10F4802F00F076
:102100008580206801F0BEFD05464FF000097BE0A8
:1021100015F0010F75D05FFA89FB5946206801F070
:10212000C3FD824610F0010F2DD009F00F030121ED
:1021300001FA03F2D8F8343023EA0203C8F8343045
:1021400006EB4913C3F8081923698B4217D14FEAEC
:10215000C9024A4493002344D96C9A6C0A44DA6455
:10216000B9F1000F0BD109EBC902930023445B6D59
:102170002BB904F2C4420121206801F0F1FD594657
:10218000204604F0DBFE1AF0080F04D006EB4913DA
:102190000822C3F808291AF0100F04D006EB4913DF
:1021A0001022C3F808291AF0400F04D006EB491397
:1021B0004022C3F808291AF0020F1BD049463846BE
:1021C00001F0ACF809EBC9029300234493F83F30C7
:1021D000012B0AD109EBC90293002344002283F8A2
:1021E0003F205946204604F0F1FE06EB4913022237
:1021F000C3F808291AF0800F03D049462046FFF79C
:1022000051FB09F101096D08002D81D1206801F011
:102210002DFD002818DAD8F8043023F00103C8F89F
:10222000043094F8F434012B06D1002184F8F4141E
:10223000204600F07DF902E0204604F0BBFE226853
:10224000536903F000435361206801F00FFD10F45F
:10225000006F0CD0D8F8083013F0010F02D02046E0
:1022600004F090FE2268536903F400635361206810
:1022700001F0FCFC10F4805F5DD0D8F8043023F04E
:102280000103C8F804301021206801F047F800224B
:102290001AE006EB42134FF67F30C3F80809D3F873
:1022A000001921F40011C3F80019C3F8080BD3F882
:1022B000001B21F40011C3F8001BD3F8001B41F0F0
:1022C0000061C3F8001B013263689A42E1D3D8F879
:1022D0001C3043F00113C8F81C30236B63B1D8F8ED
:1022E000843043F00B03C8F88430D8F8443043F00E
:1022F0000B03C8F844300DE0D8F8143043F4005311
:1023000043F02B03C8F81430D8F8103043F00B0317
:10231000C8F81030D7F8003823F4FE63C7F8003847
:1023200004F2C442217C206801F01AFD226853693E
:1023300003F480535361206801F098FC10F4005FAF
:1023400016D0206801F0FCFC206801F007F9E0607D
:10235000256800F017FC227B0146284600F05CFF50
:10236000204604F0FDFD2268536903F400535361D5
:10237000206801F07BFC10F0080F07D0204604F025
:10238000E9FD2268536903F008035361206801F0F6
:102390006DFC10F0800F15D0BB6923F08003BB618A
:1023A00001250CE005EBC5029300234493F87F322E
:1023B000012B03D1E9B22046FFF79EFD013563688A
:1023C0009D42EFD3206801F051FC10F4801F1DD115
:1023D00025E006EB4513D3F8001905EBC502930081
:1023E000234493F84030012B0ED100290CDA05EB81
:1023F000C50293002344012283F83F2065F07F014A
:10240000C9B22046FFF778FD013500E00125636879
:102410009D42DED32268536903F480135361206820
:1024200001F024FC10F4001F2ED136E006EB43121D
:10243000D2F8000B03EBC3018A00224492F88022F9
:10244000012A1FD100281DDA00F48030D4F8FC24C2
:1024500002F00102904215D103EBC3018A0022442D
:10246000012182F87F12BA6942F08002BA617A696A
:1024700012F0800F06D1D8F8043043F40073C8F886
:10248000043005E0013300E0012362689342CDD3BC
:102490002268536903F400135361206801F0E6FBDE
:1024A00010F0804F07D0204604F096FD2268536953
:1024B00003F080435361206801F0D8FB10F0040F53
:1024C0000BD023685D6815F0040F02D0204604F09D
:1024D00089FD226853682B435360BDE8F88F00BF25
:1024E00030B40468636A19B943EA0240A06218E094
:1024F0000D46A06A03EB1040002308E003F1400101
:1025000004EB8101496800EB11400133DBB2691E25
:102510008B42F3D340EA024005F13F0104EB810115
:102520004860002030BC7047036859620020704743
:10253000704700BF002800F0DD8170B582B004460E
:10254000036813F0010F5AD0A04B9B6803F00C03F3
:10255000042B0AD09D4B9B6803F00C03082B0DD174
:102560009A4B5B6813F4800F08D0984B1B6813F4E8
:10257000003F44D06368002B41D1BDE16368B3F5EF
:10258000803F05D1914A136843F48033136015E00E
:10259000B3F5A02F09D18D4B1A6842F480221A603E
:1025A0001A6842F480321A6008E0884B1A6822F4F4
:1025B00080321A601A6822F480221A6063687BB144
:1025C000FFF728F8054605E0FFF724F8401B6428CC
:1025D00000F294817D4B1B6813F4003FF4D00EE0B1
:1025E000FFF718F8054605E0FFF714F8401B6428CC
:1025F00000F28681754B1B6813F4003FF4D1236809
:1026000013F0020F50D0714B9B6813F00C0F0AD0DF
:102610006E4B9B6803F00C03082B16D16B4B5B6869
:1026200013F4800F11D1694B1B6813F0020F03D014
:10263000E368012B40F06681644A136823F0F803D5
:10264000216943EAC10313602EE0E368D3B101229C
:102650005F4B1A60FEF7DEFF054605E0FEF7DAFF86
:10266000401B022800F25081584B1B6813F0020FE8
:10267000F4D0564A136823F0F803216943EAC103F2
:10268000136011E00022524B1A60FEF7C3FF0546AB
:1026900005E0FEF7BFFF401B022800F237814B4BDD
:1026A0001B6813F0020FF4D1236813F0080F26D033
:1026B000636993B10122474B1A60FEF7ABFF0546F1
:1026C00005E0FEF7A7FF401B022800F221813F4BE7
:1026D0005B6F13F0020FF4D011E000223D4B1A6043
:1026E000FEF798FF054605E0FEF794FF401B022821
:1026F00000F21081354B5B6F13F0020FF4D12368A9
:1027000013F0040F7DD0314B1B6C13F0805F0DD1A3
:10271000002301932D4B1A6C42F080521A641B6CFB
:1027200003F080530193019B012500E000252A4B13
:102730001B6813F4807F13D1274A136843F4807316
:102740001360FEF767FF064605E0FEF763FF801B98
:10275000022800F2E180204B1B6813F4807FF4D044
:10276000A368012B05D1194A136F43F001031367C6
:1027700014E0052B09D1154B1A6F42F004021A67B9
:102780001A6F42F001021A6708E0104B1A6F22F02C
:1027900001021A671A6F22F004021A67A3688BB14C
:1027A000FEF738FF064607E0FEF734FF801B41F2D4
:1027B0008833984200F2B280044B1B6F13F0020F73
:1027C000F2D018E0FEF726FF06460FE00038024080
:1027D00000004742800E474200700040FEF71AFF9B
:1027E000801B41F28833984200F29A80594B1B6F4C
:1027F00013F0020FF2D125B1564A136C23F0805327
:102800001364A369002B00F08D80524A926802F095
:102810000C02082A48D0022B33D100224E4B1A60FA
:10282000FEF7F8FE054604E0FEF7F4FE401B022822
:102830007AD8484B1B6813F0007FF5D1E269236A10
:102840001343626A43EA8213A26A5208013A43EAD6
:102850000243E26A43EA02633E4A536001223E4B6E
:102860001A60FEF7D7FE044604E0FEF7D3FE001B15
:1028700002285BD8374B1B6813F0007FF5D000208F
:1028800065E00022344B1A60FEF7C4FE044604E003
:10289000FEF7C0FE001B02284AD82E4B1B6813F01F
:1028A000007FF5D1002052E0012B43D0294A526825
:1028B00042D002F48003E1698B423FD102F03F0332
:1028C000216A8B423CD1616A47F6C0731340B3EB77
:1028D000811F37D102F44031A36A5B08013BB1EBA1
:1028E000034F31D102F07062E36AB2EB036F2DD077
:1028F00001202CE001207047012028E0032026E081
:10290000032024E0012022E0032020E003201EE039
:1029100003201CE003201AE0032018E0032016E047
:10292000032014E0002012E0032010E003200EE05A
:1029300003200CE001200AE0012008E0012006E06D
:10294000012004E0012002E0012000E0002002B0AC
:1029500070BD00BF003802406000474238B52D4BC3
:102960009B6803F00C03082B51D12A4B5A6802F0E4
:102970003F025B6813F4800F20D0264B5B68C3F3E3
:102980008813DC000025690141EAD4616001041B61
:1029900061EB0505A90141EA9461A001001B61EB0F
:1029A0000501C01841F100018B0243EA90538402F3
:1029B000204619460023FDF731FC1FE0154B5B68EC
:1029C000C3F38813DC000025690141EAD46160018A
:1029D000041B61EB0505A90141EA9461A001001BFC
:1029E00061EB0501C01841F100018B0243EA9053ED
:1029F0008402204619460023FDF710FC054B5B6856
:102A0000C3F3014301335B00B0FBF3F038BD024870
:102A100038BD00BF003802400024F400002800F058
:102A2000988070B50446524B1B6803F007038B4235
:102A300008D2CBB24E4A1370136803F007039942D1
:102A400040F08980236813F0020F17D013F0040FB1
:102A500004D0484A936843F4E0539360236813F02A
:102A6000080F04D0434A936843F46043936041489D
:102A7000836823F0F002A368134383600D46236844
:102A800013F0010F2FD06268012A05D1394B1B6862
:102A900013F4003F0ED160E0931E012B05D8354B97
:102AA0001B6813F0007F05D159E0324B1B6813F00F
:102AB000020F56D02F498B6823F0030313438B601A
:102AC000FEF7A8FD064606E0FEF7A4FD801B41F2D6
:102AD0008833984247D8274B9B6803F00C03626801
:102AE000B3EB820FF0D1224B1B6803F007039D422A
:102AF00007D2EAB21E4B1A701B6803F007039D420F
:102B000033D1236813F0040F06D01A498B6823F4DD
:102B1000E052E36813438B60236813F0080F07D07B
:102B2000144A936823F46043216943EAC103936024
:102B3000FFF714FF0F4B9B68C3F303130E4AD35CDC
:102B4000D8400E4B18600E4B1868FEF73DFC002075
:102B500070BD01207047012070BD012070BD0120B3
:102B600070BD012070BD032070BD012070BD00BF8D
:102B7000003C024000380240B0AF000800000020D6
:102B800004000020014B1868704700BF00000020BF
:102B900008B5FFF7F7FF044B9B68C3F38223034A92
:102BA000D35CD84008BD00BF00380240C0AF000869
:102BB00008B5FFF7E7FF044B9B68C3F34233034AB2
:102BC000D35CD84008BD00BF00380240C0AF000849
:102BD0000F2303600B4B9A6802F0030242609A686D
:102BE00002F0F00282609A6802F4E052C2609B68D0
:102BF000DB0803F4E0530361034B1B6803F0070396
:102C00000B60704700380240003C024000285CD056
:102C100070B50446436A33B94368B3F5827F05D083
:102C20000023C36102E00023036143610023A36228
:102C300094F8513013F0FF0F05D1002384F8503081
:102C40002046FEF769FB022384F85130226813689E
:102C500023F0400313602168626802F48272A56861
:102C600005F404452A43E36803F400631A4320692A
:102C700000F002000243666906F001063243A569CE
:102C800005F400752A43E06900F0380042EA0003C9
:102C9000226A02F080021A43A36A03F4005313432A
:102CA0000B602168638B03F00402636A03F0100376
:102CB00013434B602268D36923F40063D36100207F
:102CC0006065012384F8513070BD0120704700BF5A
:102CD000704700BF90F83D30DBB2012B2FD10223AB
:102CE00080F83D300268D36843F00103D360036885
:102CF000154A934212D0B3F1804F0FD0A2F57C4217
:102D000093420BD002F58062934207D002F58062B5
:102D1000934203D002F59A3293420AD19A6802F0A4
:102D20000702062A0DD01A6842F001021A6000203C
:102D300070471A6842F001021A60002070470120B3
:102D400070470020704700BF00000140704700BF7F
:102D5000704700BF704700BF704700BF10B5044602
:102D600003681A6912F0020F17D0DA6812F0020F26
:102D700013D06FF002021A610123037703689B6985
:102D800013F0030F02D0FFF7E3FF04E0FFF7DEFFCD
:102D90002046FFF7DFFF0023237723681A6912F02C
:102DA000040F19D0DA6812F0040F15D06FF0040286
:102DB0001A610223237723689B6913F4407F03D0B1
:102DC0002046FFF7C5FF05E02046FFF7BFFF20467E
:102DD000FFF7C0FF0023237723681A6912F0080F5A
:102DE00019D0DA6812F0080F15D06FF008021A61D6
:102DF000042323772368DB6913F0030F03D02046F5
:102E0000FFF7A6FF05E02046FFF7A0FF2046FFF7EB
:102E1000A1FF0023237723681A6912F0100F19D03D
:102E2000DA6812F0100F15D06FF010021A61082343
:102E300023772368DB6913F4407F03D02046FFF734
:102E400087FF05E02046FFF781FF2046FFF782FF5E
:102E50000023237723681A6912F0010F09D0DA687A
:102E600012F0010F05D06FF001021A612046FEF743
:102E7000BFF923681A6912F0800F09D0DA6812F0DE
:102E8000800F05D06FF080021A61204600F09CF898
:102E900023681A6912F0400F09D0DA6812F0400F67
:102EA00005D06FF040021A612046FFF755FF2368F6
:102EB0001A6912F0200F09D0DA6812F0200F05D03D
:102EC0006FF020021A61204600F07CF810BD00BFB0
:102ED0000368244A90420ED0B0F1804F0BD0A2F587
:102EE0007C42904207D002F58062904203D002F506
:102EF0008062904203D123F070034A681343194A59
:102F000090421AD0B0F1804F17D0A2F57C42904287
:102F100013D002F5806290420FD002F58062904299
:102F20000BD002F59A32904207D002F580629042AF
:102F300003D002F58062904203D123F44073CA6843
:102F4000134323F080034A69134303608B68C36211
:102F50000B688362034B984201D10B690363012321
:102F6000436170470000014048B310B5044690F833
:102F70003D3013F0FF0F04D1002380F83C30FFF701
:102F8000A7FE022384F83D30211D2068FFF7A0FF33
:102F9000012384F8463084F83E3084F83F3084F8CA
:102FA000403084F8413084F8423084F8433084F86B
:102FB000443084F8453084F83D30002010BD0120B5
:102FC000704700BF704700BF704700BFF8B50546A7
:102FD00001680B6923F44052C36813430B61816895
:102FE0000369194343691943C36919430068C268F7
:102FF00022F4164323F00C030B43C36029684B698A
:1030000023F44072AB6913434B612B68314A9342FE
:1030100003D002F58062934202D1FFF7C9FD01E0BF
:10302000FFF7B6FDEB69B3F5004F2AD12C680021FC
:10303000061841EB010736184F41FB0043EA56736F
:10304000F20016461F466A68002392185B418019F9
:103050007941FDF7E3F8204BA3FB001251096422EC
:1030600002FB1102D2003232A3FB02235B095A0099
:1030700002F4F87202EB011203F007031344A36099
:10308000F8BD2C680021061841EB010736184F41A6
:10309000FB0043EA5673F20016461F466B689A001F
:1030A0009B0F80197941FDF7B9F80B4BA3FB002169
:1030B0004909642202FB110212013232A3FB0223EE
:1030C0005B0903F0F00202EB011103F00F030B4464
:1030D000A360F8BD001001401F85EB5168B310B527
:1030E000044690F83D3013F0FF0F04D1002380F820
:1030F0003C30FEF707FA242384F83D302268D36879
:1031000023F40053D3602046FFF760FF2268136961
:1031100023F4904313612268536923F02A03536117
:103120002268D36843F40053D36000202064202336
:1031300084F83D3084F83E3010BD0120704700BF58
:1031400082B000230193019B01330193019A0F4B3D
:103150009A4215D80369002BF5DA0023019303691D
:1031600043F001030361019B01330193019A074B73
:103170009A4207D8036913F0010FF4D1002002E04E
:10318000032000E0032002B0704700BF400D0300A1
:1031900084B010B5044603A880E80E00089B012BFC
:1031A00018D1A36B23F48033A363E36823F484036F
:1031B00023F04003E360E36823F44013E3600F9BD4
:1031C000012B03D1E36843F48013E3602046FFF74B
:1031D000B7FF11E0E36843F04003E3602046FFF7E8
:1031E000AFFF0C9B23B9A36B43F48033A36303E0CD
:1031F000A36B23F48033A363069B012B07D1A36841
:1032000043F00603A360A36843F02003A360BDE876
:10321000104004B0704700BF022A42D12F4B0B442C
:103220002F4A93423FD92F4B0B442F4A93423CD90C
:10323000A1F57403A3F510532C4A934237D9A1F199
:103240008373A3F5E74302F5C332A032934230D92A
:10325000274B0B44274A93422DD9274B0B4402F5A9
:10326000922202F57872934227D9244B0B4402F53F
:10327000C32202F52072934221D9A1F1B773A3F5BD
:10328000585302F5B71202F55872934219D91C4BE4
:103290000B4402F5122202F5F862934213D807217B
:1032A00012E0092110E00F210EE00E210CE00D21AB
:1032B0000AE00C2108E00B2106E00A2104E00921C4
:1032C00002E0082100E00621C26822F47052C260C8
:1032D000C36843EA8123C36000207047405327FF3F
:1032E000FF340C00401E1BFF3F420F007F4F1200B7
:1032F00060B6E5FE5FE3160000D3CEFEC05BB3FE12
:10330000E05459FE836843F0010383600020704756
:10331000836823F0010383600020704782B000239C
:103320000193019B01330193019A0F4B9A4215D8E7
:103330000369002BF5DA00230193890141F0200194
:103340000161019B01330193019A074B9A4207D80F
:10335000036913F0200FF4D1002002E0032000E005
:10336000032002B0704700BF400D030082B000236D
:103370000193019B01330193019A0E4B9A4213D89A
:103380000369002BF5DA0023019310230361019BED
:1033900001330193019A074B9A4207D8036913F04E
:1033A000100FF4D1002002E0032000E0032002B05F
:1033B000704700BF400D0300D0F800381943C0F833
:1033C00000180020704700BF84B02DE9F04104468A
:1033D00007A880E80E002546002306E003F140021E
:1033E00004EB82020021516001330E2BF6D9119BB0
:1033F00093B9D4F8043843F00203C4F80438A36B3B
:1034000043F40013A363A36B23F40023A363A36B10
:1034100023F48023A36307E0A36B23F40013A363C7
:10342000A36B43F40023A3630023C4F8003E04F518
:103430000066D4F80038C4F800380C9B012B0BD17F
:10344000099B23B900212046FFF7B6FF08E00121C0
:103450002046FFF7B1FF03E003212046FFF7ACFF52
:1034600010212046FFF75AFF10B94FF0000801E085
:103470004FF001082046FFF779FF08B14FF001082F
:10348000002333617361F3611BE005EB431202F526
:103490001061D2F8000900280ADA23B94FF0006061
:1034A000C2F8000907E04FF09040C2F8000902E0BE
:1034B0000020C2F8000900220A614FF67F328A60BC
:1034C000013307998B42E0D300231BE005EB431245
:1034D00002F53060D2F8007B002F0ADA23B94FF0F2
:1034E0000067C2F8007B07E04FF09047C2F8007B0E
:1034F00002E00027C2F8007B002202614FF67F3213
:10350000826001338B42E1D3336923F480733361EA
:103510000023A3616FF0804363610A9B1BB9A36919
:1035200043F01003A361A2690B4B1343A3610D9BEE
:103530001BB1A36943F00803A361119B012B05D1C3
:10354000A36943F0804343F00403A3614046BDE810
:10355000F04104B0704700BF00383C80D0F8083814
:1035600013F0060305D0022B05D0062B05D102204F
:10357000704700207047022070470F20704700BF3F
:1035800070B40B784A78012A23D1D0F81C6803F074
:103590000F02012404FA02F292B23243C0F81C284E
:1035A00000EB4310D0F8002912F4004F31D1D0F8CD
:1035B0000049CA68C2F30A02097942EA814242EA32
:1035C0008353234343F0805343F40043C0F800394E
:1035D0001FE0D0F81C4803F00F060122B24044EA75
:1035E0000242C0F81C2800EB4310D0F8003B13F453
:1035F000004F0ED1D0F8003BCA68C2F30A02097925
:1036000042EA8142134343F0805343F40043C0F83D
:10361000003B002070BC704730B40B784A78012A18
:1036200030D100EB4313D3F80029002A0BDAD3F88A
:10363000002942F00062C3F80029D3F8002942F0C3
:103640008042C3F80029D0F83C580A7802F00F02F3
:10365000012404FA02F292B225EA0202C0F83C28E0
:10366000D0F81C28097801F00F018C40A4B222EA9E
:103670000404C0F81C48D3F800191B4A0A40C3F8D8
:1036800000292DE000EB4313D3F8002B002A0BDABE
:10369000D3F8002B42F00062C3F8002BD3F8002BC4
:1036A00042F08042C3F8002BD0F83C580A7802F070
:1036B0000F02012404FA02F225EA0242C0F83C2873
:1036C000D0F81C28097801F00F018C4022EA04444C
:1036D000C0F81C48D3F8001B044A0A40C3F8002B6A
:1036E000002030BC704700BF007833EC0078F3EF67
:1036F00070B40B784C78012C5DD18C69B4B900EBB7
:103700004314D4F8105925F0FF5525F4C015C4F81A
:103710001059D4F8105945F40025C4F81059D4F8BC
:103720001059ED0CED04C4F810591CE000EB4314E3
:1037300004F510642569ED0CED042561256925F07B
:10374000FF5525F4C01525618E69CD68AE4200D9BC
:103750008D61256945F40025256126698D69C5F3CC
:10376000120535432561012A0ED14A691AB100EBD1
:103770004311C1F8142900EB4310D0F8002942F09E
:103780000442C0F800293FE000EB4313D3F80029BE
:1037900042F00442C3F800298B69002B34D0D0F8E2
:1037A00034380A7802F00F02012101FA02F21A43BA
:1037B000C0F8342828E000EB431000F530631C69A2
:1037C000E40CE4041C611C6924F0FF5424F4C014CC
:1037D0001C618C690CB1CC688C61CC68CC611C69B3
:1037E00044F400241C611D69CC69C4F312042C4309
:1037F0001C61012A02D10A6902B15A61D0F8003B6A
:1038000043F00443C0F8003B002070BC704700BF89
:1038100010B483B00023019304464B78012B26D1CA
:103820000B7800EB4313D3F80029002A46DAD3F8CB
:10383000002942F00062C3F800290B7800EB431026
:10384000D0F8003943F08043C0F80039019B0133C0
:103850000193019A42F210739A4231D80B7804EB2B
:103860004313D3F80039002BF0DB00202DE00B7858
:1038700000EB4313D3F8002B002A23DAD3F8002BF4
:1038800042F00062C3F8002B0B7800EB4310D0F835
:10389000003B43F08043C0F8003B019B01330193A0
:1038A000019A42F210739A420ED80B7804EB43133C
:1038B000D3F8003B002BF0DB002006E0002004E002
:1038C000012002E0002000E0012003B05DF8044B7D
:1038D000704700BF70B49DF80C406CB903339B086F
:1038E000002507E000EB023404F5805451F8046B26
:1038F000266001359D42F5D3002070BC704700BFA3
:10390000F0B583B00C784B78012B40F0AB808B691D
:10391000B3B900EB4413D3F8105925F0FF5525F443
:10392000C015C3F81059D3F8105945F40025C3F851
:103930001059D3F81059ED0CED04C3F8105932E0CA
:1039400000EB4413D3F81059ED0CED04C3F81059F3
:10395000D3F8105925F0FF5525F4C015C3F81059B8
:10396000D3F810798D69CE683544013DB5FBF6F585
:10397000664E06EAC5453D43C3F81059D3F81069B1
:103980008D69C5F312053543C3F8105903F510636B
:103990000D79012D07D11D6925F0C0451D611D69F7
:1039A00045F000551D61012A27D14B691BB100EB81
:1039B0004412C2F814390B79012B15D1D0F808380C
:1039C00013F4807F08D100EB4412D2F8003943F0A1
:1039D0000053C2F8003907E000EB4412D2F8003976
:1039E00043F08053C2F8003900EB4414D4F8003996
:1039F00043F00443C4F8003984E000EB4414D4F8E5
:103A0000003943F00443C4F800390B79012B0ED080
:103A10008B69002B76D0D0F834480B7803F00F0375
:103A2000012202FA03F32343C0F834386AE0D0F8E5
:103A3000083813F4807F06D1D4F8003943F00053DE
:103A4000C4F8003905E0D4F8003943F08053C4F8D5
:103A5000003914460B4609691A781B8B0094FFF74E
:103A600039FF4FE000EB441404F530631D69ED0CA1
:103A7000ED041D611D6925F0FF5525F4C0151D617C
:103A80008D6955B91E69CD68C5F3120535431D61B1
:103A90001D6945F400251D6114E0CE683544013DE3
:103AA000B5FBF6F5AFB206FB07F6CE611F69174E00
:103AB00006EAC5453D431D611E69CD69C5F3120582
:103AC00035431D61012A02D10A6902B15A610B799D
:103AD000012B11D1D0F8083813F4807F06D1D4F827
:103AE000003B43F00053C4F8003B05E0D4F8003B32
:103AF00043F08053C4F8003BD4F8003B43F0044348
:103B0000C4F8003B002003B0F0BD00BF0000F81F68
:103B100070B483B00646950802F00302002305E066
:103B200006F58054246841F8044B0133AB42F7D3C7
:103B30007AB100F58050036801930025EBB2DC00F8
:103B4000019BE34001F8013B0135013A92B2002AA2
:103B5000F4D1084603B070BC704700BF0B784A78B8
:103B6000012A13D100EB4310D0F80029002A06DB0C
:103B70002BB1D0F8003923F08043C0F80039D0F8D9
:103B8000003943F40013C0F8003912E000EB431091
:103B9000D0F8002B002A06DB2BB1D0F8003B23F035
:103BA0008043C0F8003BD0F8003B43F40013C0F85A
:103BB000003B0020704700BF0B784A78012A13D1E0
:103BC00000EB4310D0F8003923F40013C0F800399B
:103BD0000B79023BDBB2012B19D8D0F8003943F046
:103BE0008053C0F8003912E000EB4310D0F8003BDE
:103BF00023F40013C0F8003B0B79023BDBB2012B2E
:103C000005D8D0F8003B43F08053C0F8003B0020BB
:103C1000704700BFD0F8003823F4FE63C0F80038C6
:103C2000D0F80038090101F4FE611943C0F800180A
:103C300000207047D0F8003E23F00303C0F8003E98
:103C4000D0F8043823F00203C0F80438002070478D
:103C5000D0F8003E23F00303C0F8003ED0F804384B
:103C600043F00203C0F804380020704742698069BD
:103C70001040704700F50063D0F81808DB69184061
:103C8000000C704700F50063D0F81808DB69184095
:103C900080B2704700EB4111D1F8082B00F50060AD
:103CA00040691040704700BF10B4D0F81048D0F8F9
:103CB000342801F00F0322FA03F3DB01DBB22343C4
:103CC00000EB411000F51060806818405DF8044B6F
:103CD000704700BF406900F00100704738B50546E5
:103CE000C36823F0C043C360012910D1C36843F007
:103CF0000053C36000240120FDF792FC01342846E4
:103D0000FFF7E8FF012812D0312CF4D90FE091B968
:103D1000C36843F08043C36000240120FDF780FCAA
:103D200001342846FFF7D6FF08B1312CF5D9322CE3
:103D300003D1012038BD012038BD002038BD00BFAF
:103D4000D0F8003923F4FF6323F00703C0F80039EB
:103D5000D0F8043843F48073C0F80438002070476A
:103D600010B4046C144B9C4203D9D0F8003B002BD8
:103D70001EDB0024C0F8104BD0F8104B44F4002494
:103D8000C0F8104BD0F8104B44F01804C0F8104B9A
:103D9000D0F8104B44F0C044C0F8104B012907D1B3
:103DA000C0F8142BD0F8003B43F08023C0F8003B50
:103DB00000205DF8044B70470A30544F10B5D0F81E
:103DC000D43203F1B00250F822408CB100EB8200F3
:103DD00043687BB194F80002FF280DD09B6894F8EB
:103DE000012221469847FF2384F80032002010BDAD
:103DF000032010BD002010BD002010BD0A23038049
:103E00000048704744000020F8B507460F4C822157
:103E1000204600F059FC06460121204600F054FCE3
:103E200005468121204600F04FFC0EB11023B371EE
:103E30001DB140232B7100236B7118B14023037116
:103E40000023437143233B800048F8BD500000200D
:103E5000F8B507460F4C8221204600F035FC064697
:103E60000121204600F030FC05468121204600F06B
:103E70002BFC0EB11023B3711DB140232B71002315
:103E80006B7118B1402303710023437143233B80BE
:103E90000048F8BD50000020F8B507460F4C8221BD
:103EA000204600F011FC06460121204600F00CFCE3
:103EB00005468121204600F007FC0EB11023B371A6
:103EC0001DB100232B7102236B7118B10023037104
:103ED0000223437143233B800048F8BD500000207B
:103EE00038B5D0F8D432B03350F8235095B10446E9
:103EF00003F0C8F8C5F80C02D4F8D402B03004EBD3
:103F000080004368DB6805F50371D5F80402984723
:103F1000002038BD032038BDF8B5D0F8C862D0F80D
:103F2000D432B03350F8233083B301F00F0404EBE4
:103F30008405AA0002449269AAB104EBC407BD003B
:103F40003544AE6CB2FBF6F506FB15225AB904EB0C
:103F50008404A300034400249C612346224603F00A
:103F6000DBF82046F8BD0022C3F81422D0F8D42292
:103F7000B03200EB8200426814694CB10A4603F586
:103F80000471D3F80802A0470020F8BD0320F8BD53
:103F90000020F8BDF0B583B0D0F8D42202F1B00310
:103FA00050F8237000238DF80730ADF80430002F4F
:103FB00077D00D4604460B7813F0600637D0202EDC
:103FC0006BD1C98839B313F0800F13D002F1B0035D
:103FD00000EB83035B689B680A463946687898471C
:103FE000EA88072A28BF07223946204600F058FFF2
:103FF000002657E06B7887F80032EA883F2A01D81C
:10400000D2B200E0402287F801223946204600F073
:104010005DFF002646E002F1B00004EB800043683B
:104020009B68002229466878984700263AE04F7836
:104030000B2F2ED8DFE807F006362D2D2D2D2D2D38
:104040002D2D152490F89C32DBB2032B05D10222D2
:1040500001A900F025FF3E4624E000F073FB032693
:1040600020E090F89C32DBB2032B05D101220DF148
:10407000070100F015FF15E000F064FB032611E0D6
:1040800090F89C32DBB2032B0CD000F05BFB0326D4
:1040900008E000F057FB032604E000F053FB032682
:1040A00000E00326304603B0F0BD00BF38B504463B
:1040B000812103F011F8002525870121204603F016
:1040C0000BF8A4F878518221204603F005F8A4F8F3
:1040D0004C50A4F84E50D4F8D43203F1B00254F846
:1040E00022209AB1B03304EB83035B685B68984786
:1040F000D4F8D432B03354F8230002F0CDFFD4F812
:10410000D432B03344F82350C4F8BC52002038BD38
:1041100070B504464FF4077002F0BAFF38B9D4F80E
:10412000D432B033002244F82320022070BD05466B
:104130004FF40772002103F045F8D4F8D432B033BD
:1041400044F82350C4F8BC52237CABB94FF400733D
:1041500002228121204602F0B3FF012626874FF478
:10416000007302223146204602F0AAFFA4F87861CB
:104170001023A4F84E3012E0402302228121204671
:1041800002F09EFF01262687402302223146204668
:1041900002F096FFA4F878611023A4F84E300823AB
:1041A00003228221204602F08BFF0123A4F84C3029
:1041B0000026C5F80462D4F8D432B03304EB83038C
:1041C0005B681B689847C5F81462C5F81862D5F893
:1041D000042282B1237C3BB94FF4007301212046B5
:1041E00002F0A2FF304670BD40230121204602F0BC
:1041F0009BFF002070BD022070BD00BF39B1D0F818
:10420000D432B03300EB83004160002070470320BC
:10421000704700BFD0F8D432B03350F823302BB100
:10422000C3F80812C3F8102200207047032070471B
:10423000D0F8D432B03350F823301BB1C3F8041295
:10424000002070470320704708B5D0F8D432B0334F
:1042500050F823208AB1D2F8143283B90123C2F86E
:104260001432D2F81032C362D2F81032D2F80822D7
:10427000812102F051FF002008BD032008BD01206C
:1042800008BD00BF08B5D0F8D432B03350F82320B1
:1042900092B1037C43B94FF40073D2F80422012198
:1042A00002F042FF002008BD4023D2F80422012181
:1042B00002F03AFF002008BD032008BD98B108B500
:1042C00003460020C3F8B802C3F8C402C3F8D00202
:1042D00009B1C3F8B4121846012380F89C32027069
:1042E00002F086FE08BD0320704700BF10B582B003
:1042F0000023ADF80630A9B10446C4F8B812D0F8CE
:10430000D432AE3350F82330DB6A23B10DF106000E
:104310009847C4F8D002D4F8D8320133C4F8D83260
:10432000002000E0032002B010BD00BF08B502F07D
:10433000BFFE08BD08B5D0F8B83213B11B68984766
:1043400008BD002008BD00BF08B5D0F8B8325B68D2
:10435000984700B1032008BD38B5044600F2AA25ED
:10436000284600F0DBF90123C4F89432B4F8B032E7
:10437000C4F8983294F8AA1201F01F03012B08D058
:1043800013B1022B0AD00EE02946204600F0C0FBF4
:1043900038BD2946204600F0FBFB38BD29462046A3
:1043A00000F03AFC38BD01F08001204602F09CFE8E
:1043B00038BD00BFF8B50446012380F89C320023C5
:1043C000C0F894324360C0F8A43280F8A032D0F82C
:1043D000B83233B15B6833B10021984728B9002760
:1043E00004E0002702E0002700E00327402300222A
:1043F0001146204602F064FE0126A4F864614025BF
:10440000C4F860512B4600228021204602F058FE5D
:10441000A68425623846F8BD01740020704700BFAD
:1044200090F89C32DBB280F89D32042380F89C32F5
:104430000020704790F89C32DBB2042B04D190F836
:104440009D32DBB280F89C320020704708B590F8AE
:104450009C32DBB2032B05D1D0F8B83213B1DB6943
:1044600003B19847002008BD08B5D0F8D432AE3368
:1044700050F823204AB190F89C32DBB2032B06D1CE
:10448000136A33B19847002008BD032008BD0020FF
:1044900008BD002008BD00BF08B5D0F8D432AE3347
:1044A00050F823204AB190F89C32DBB2032B06D19E
:1044B000536A33B19847002008BD032008BD00208F
:1044C00008BD002008BD00BF0020704708B50123CB
:1044D00080F89C32D0F8B83223B15B6801799847F4
:1044E00010B908BD002008BD032008BD002070479A
:1044F0000020704738B50446002942D11346D0F851
:104500009422032A5ED1D0F85C11D0F86021914248
:104510000AD9891AC0F85C118A4228BF0A4619468E
:1045200000F0E4FC002038BD90F8AA3203F01F032D
:10453000012B02D0022B05D009E090F8AE12FFF754
:10454000D5FF05E090F8AE12FFF7D2FF00E00020A3
:1045500090B994F89C32DBB2032B0DD100F1AE037D
:1045600054F823301B693BB1C4F8D402AE3054F880
:1045700020301B6920469847204600F0BFFC0020F1
:1045800038BD0D4601F07F01FFF7B2FF0246D8B9F2
:1045900094F89C32DBB2032B0FD100F1AE0354F838
:1045A00023309B695BB1C4F8D402AE3254F8223098
:1045B0009B6929462046984702E0002000E0002041
:1045C00020B138BD002038BD002038BD002038BDE6
:1045D00038B50446002947D11346D0F89422022A60
:1045E0003BD1C269016A8A420BD9521AC26119468B
:1045F00000F064FC00231A461946204602F094FDA0
:104600002BE08A4213D18369994210D8D0F89822BE
:1046100093420CD20022114600F050FC0021C4F855
:1046200098120B460A46204602F07EFD15E094F8EB
:104630009C32DBB2032B09D1D4F8B832DA682AB144
:104640000022C4F8D422DB68204698478021204607
:1046500002F04AFD204600F05DFC94F8A03203B35E
:10466000002084F8A00238BD0D4641F08001FFF71C
:104670003FFF0246B8B994F89C32DBB2032B14D149
:1046800000F1AE0354F823305B6983B1C4F8D4025F
:10469000AE3254F822305B6929462046984740B133
:1046A00038BD002038BD002038BD002038BD0020B6
:1046B00038BD002038BD00BF02780B8813440B8042
:1046C00003781844704700BF428803789A4217D98C
:1046D00030B583B00D460446ADF8063009E00DF163
:1046E0000601FFF7E9FF4378052B02D18378AB423F
:1046F00008D06288BDF806309A42F0D8002001E068
:104700000020704703B030BD0346002002E00130B6
:10471000C0B201331A78002AF9D170470B780370C0
:104720004B7843708B78CA7843EA022343800B7935
:104730004A7943EA022383808B79CA7943EA0223C8
:10474000C380704710B50446802102F0CDFC0021E3
:10475000204602F0C9FC10BD30B583B004460D46BA
:104760000023ADF806304A88130A013B062B00F2FD
:10477000B580DFE803F0040D23B3B391A100D0F8B6
:10478000B4321B680DF10601007C98470023AAE0B3
:10479000037C4BB9D0F8B8329B6A0DF106009847FC
:1047A0000223437000239EE0D0F8B832DB6A0DF19B
:1047B0000600984702234370002394E0D2B2052AF2
:1047C00064D8DFE802F0031323334353D0F8B43244
:1047D0005B682BB10DF10601007C9847002382E055
:1047E0002946FFF7AFFF012300207CE0D0F8B43268
:1047F0009B682BB10DF10601007C9847002372E005
:104800002946FFF79FFF012300206CE0D0F8B43267
:10481000DB682BB10DF10601007C9847002362E0B4
:104820002946FFF78FFF012300205CE0D0F8B43267
:104830001B692BB10DF10601007C9847002352E063
:104840002946FFF77FFF012300204CE0D0F8B43267
:104850005B692BB10DF10601007C9847002342E013
:104860002946FFF76FFF012300203CE0D0F8B43267
:104870009B692BB10DF10601007C9847002332E0C3
:104880002946FFF75FFF012300202CE02946FFF7B0
:1048900059FF0123002026E0037C3BB9D0F8B83251
:1048A0005B6B0DF10600984700231CE02946FFF7DB
:1048B00049FF0123002016E0037C4BB9D0F8B83241
:1048C0001B6B0DF1060098470723437000230AE095
:1048D0002946FFF737FF0123002004E02946FFF7B0
:1048E00031FF01230020B3B9EA888AB1BDF8063050
:1048F0004BB19A4228BF1A46ADF806200146204621
:1049000000F0CEFA07E029462046FFF71BFF02E041
:10491000204600F0F3FA03B030BD00BF38B50446BE
:104920008B88FBB9CB88EBB94B887F2B1AD803F067
:104930007F0590F89C32DBB2032B02D1FFF702FF18
:1049400038BD80F89E52294602F0DEFB204600F07A
:10495000D5FA1DB1022384F89C3238BD012384F8B6
:104960009C3238BD2046FFF7EDFE38BD70B50446D9
:104970000D468978324B1970012904D92946FFF771
:10498000E1FE032070BD90F89C32DBB2022B02D016
:10499000032B1BD04AE0A9B14160FFF7CBFC0646D0
:1049A00040B129462046FFF7CDFE022384F89C3211
:1049B000304670BD204600F0A1FA032384F89C32F3
:1049C000304670BD00F09AFA002070BD51B9022344
:1049D00080F89C324160FFF7B7FC204600F08EFA69
:1049E000002070BD436899421CD0D9B2FFF7ACFCDF
:1049F000134B197861602046FFF79CFC064660B1B6
:104A000029462046FFF79EFE21792046FFF79CFCB1
:104A1000022384F89C32304670BD204600F06EFAC6
:104A2000304670BD00F06AFA002070BD2946FFF7DD
:104A300089FE034B19782046FFF786FC032070BDE2
:104A4000B40B002008B5CB88012B02D0FFF77AFE0B
:104A500008BD90F89C3203F0FF028BB1022A02D904
:104A6000032A08D00CE00146002341F8083F012248
:104A700000F016FA08BD0122011D00F011FA08BD70
:104A8000FFF760FE08BD00BF08B590F89C32013BFF
:104A9000022B12D8CB88022B02D0FFF753FE08BDA1
:104AA0000123C360D0F8A4320BB10323C3600222F8
:104AB00000F10C0100F0F4F908BDFFF743FE08BD5A
:104AC00008B54B88012B04D1C0F8A43200F016FAC7
:104AD00008BD022B06D18B881B0A80F8A03200F09B
:104AE0000DFA08BDFFF72EFE08BD00BF08B590F80F
:104AF0009C32013B022B08D84B88012B07D10023A5
:104B0000C0F8A43200F0FAF908BDFFF71BFE08BD9B
:104B100008B50B7803F06003202B04D0402B02D0A3
:104B2000002B31D107E0D0F8D432AE3350F8233027
:104B30009B68984708BD4B78092B21D8DFE803F024
:104B4000141C201820090520100DFFF705FE002079
:104B500008BDFFF7E3FE002008BDFFF707FF08BD13
:104B6000FFF770FF002008BDFFF78EFF002008BD93
:104B7000FFF7A6FF002008BDFFF7B8FF002008BD23
:104B8000FFF7E0FD002008BDFFF7DCFD002008BDB9
:104B900070B505460C460B7803F06003202B02D05D
:104BA000402B00D09BBB95F89C32013B022B28D8B0
:104BB000217901291FD82846FFF798FC034680B9C0
:104BC00000F1AE0255F82220926862B1C5F8D40215
:104BD000AE3355F823309B68214628469847064651
:104BE00002E0032600E00326E3889BB996B9284635
:104BF00000F084F90EE021462846FFF7A3FD0026C9
:104C000008E021462846FFF79DFD002602E0FFF759
:104C100099FD0026304670BD70B505460C468A8861
:104C2000D6B20B7803F06003202B05D0402B03D0C5
:104C3000002B40F00A8114E031462846FFF758FC6B
:104C4000002840F00681C5F8D40200F1AE0255F804
:104C500022209268002A00F0FE80214628469047D4
:104C600070BD4B78012B31D0002B6FD0032B40F05F
:104C7000E88090F89C32DBB2022B02D0032B12D0DA
:104C800020E056B1802E08D0314602F02DFA802166
:104C9000284602F029FA002070BD21462846FFF779
:104CA00051FD002070BD4B883BB936B1802E04D039
:104CB000CB8813B9314602F017FA284600F01EF9E6
:104CC000002070BDFFF73EFD002070BD90F89C32C3
:104CD000DBB2022B02D0032B12D033E056B1802E70
:104CE00008D0314602F000FA8021284602F0FCF993
:104CF000002070BD21462846FFF724FD002070BD2E
:104D00004B88002B40F0A98016F07F0F02D031466F
:104D100002F0F2F9284600F0F1F831462846FFF794
:104D2000E7FB002840F09B80C5F8D40200F1AE02FA
:104D300055F822209268002A00F0938021462846E8
:104D4000904770BDFFF7FEFC002070BD90F89C32CC
:104D5000DBB2022B02D0032B25D06EE02EB1802EC9
:104D600003D0FFF7EFFC002070BD12F0800F09D0D8
:104D700006F07F0606EB8606B30003F11001294416
:104D8000043108E006F07F0606EB8606B30003F563
:104D9000A8712944043100240C600222284600F046
:104DA0007FF8204670BD52B2002A0CDA06F00F03DD
:104DB00003EB8303990001448B8C93B92146FFF7E1
:104DC000C1FC002070BD06F00F0303EB83039900C4
:104DD0000144B1F8643123B92146FFF7B3FC002048
:104DE00070BD002A09DA06F07F0202EB820293000E
:104DF00003F110042C44043408E006F07F0202EBB7
:104E00008202930003F5A8742C4404340EB1802E62
:104E100002D10023236009E03146284602F01AF946
:104E200010B10123236001E0002323600222214608
:104E3000284600F035F8002070BDFFF783FC002005
:104E400070BDFFF77FFC002070BDFFF77BFC0020EA
:104E500070BD002070BD002070BD002070BD00201E
:104E600070BD002070BD00BFC8B170B50D461646BC
:104E70000446FFF749FC01304000308028700323CE
:104E80006B70022307E0EA5401345A1CD2B20021AD
:104E9000A9540233DBB22278002AF4D170BD7047E6
:104EA00010B513460222C0F894228361C3610A46FA
:104EB000002102F031F9002010BD00BF08B51346F3
:104EC0000A46002102F028F9002008BD10B513465B
:104ED0000322C0F89422C0F85831C0F85C310A4669
:104EE000002102F021F9002010BD00BF08B51346D3
:104EF0000A46002102F018F9002008BD08B5042276
:104F0000C0F8942200231A46194602F005F9002041
:104F100008BD00BF08B50522C0F8942200231A4638
:104F2000194602F001F9002008BD00BF08B5044B86
:104F30001B6801F035FC012801D000F0DBF908BD49
:104F400010E000E0EFF305833BB9074B1B683BB96A
:104F50000122054B1A60002070476FF00500704772
:104F60004FF0FF30704700BF40160020EFF305837D
:104F700073B90A4B1B68012B0DD110B50024084BE7
:104F8000DC770222054B1A6001F056F9204610BD6D
:104F90006FF0050070474FF0FF307047401600205B
:104FA00000ED00E0F0B587B000240594EFF3058430
:104FB000002C4FD100284DD012B31668946904B963
:104FC0001824631E372B47D8536813F0010F45D1BF
:104FD000536913B14FEA930E01E04FF0800E9568CC
:104FE00035B1D768B7F5916F02D3176907B16BB9BF
:104FF00075B9D3687BB9136983B14FF0FF350EE003
:10500000002518244FF0800E2E4608E0012506E00A
:105010004FF0FF3503E04FF0FF3500E000250B4671
:10502000012D0AD111699268029201910094724691
:10503000314601F08BF805900CE05DB905AA0192AC
:1050400000941FFA8EF2314601F0C2F8012801D017
:1050500000230593059802E0002000E0002007B03F
:10506000F0BD00BF08B5EFF3058323B930B101F0FF
:1050700051FA002008BD6FF0050008BD002008BDF2
:10508000034B0360034B0B6080231360704700BF2A
:105090004816002040100020034B0360034B0B60B8
:1050A0004FF4807313607047B80B0020401200204B
:1050B00000F1080343604FF0FF328260C360036178
:1050C00000230360704700BF00230361704700BFE7
:1050D00043684B609A688A609A6851609960086179
:1050E000036801330360704730B40D68B5F1FF3FCA
:1050F00001D1026907E000F1080200E01A46536896
:105100001C68A542FAD253684B6099608A6051606E
:10511000086103680133036030BC7047036942686B
:10512000816891608268416851605A68904201D1FB
:1051300082685A60002202611A68013A1A6018688F
:10514000704700BF82B0002301930D4B1B68B3F181
:10515000FF3F08D04FF0500383F31188BFF36F8FE8
:10516000BFF34F8FFEE74FF0500383F31188BFF377
:105170006F8FBFF34F8F019B002BFCD002B07047A5
:105180009400002008480068006880F308884FF009
:10519000000080F3148862B661B6BFF34F8FBFF38F
:1051A0006F8F00DF00BF000008ED00E0DFF80C00AB
:1051B000016841F4700101607047000088ED00E073
:1051C0004FF0807340F8043C21F0010140F8081CC6
:1051D000054B40F80C3C40F8202C6FF0020340F8DF
:1051E000243C4438704700BF4551000800000000CF
:1051F000074B19680868B0E8F04F80F30988BFF3DF
:105200006F8F4FF0000080F311887047AFF300807C
:10521000C85B00204FF0500383F31188BFF36F8FFA
:10522000BFF34F8F0A4A136801331360012B0DD16E
:10523000084B1B6813F0FF0F08D04FF0500383F3A7
:105240001188BFF36F8FBFF34F8FFEE7704700BF2A
:105250009400002004ED00E0094B1B6843B94FF0B7
:10526000500383F31188BFF36F8FBFF34F8FFEE7B7
:10527000013B034A13600BB983F31188704700BFE9
:10528000940000200000000000000000000000006A
:10529000EFF30980BFF36F8F154B1A681EF0100FE4
:1052A00008BF20ED108A20E9F04F10602DE90900B9
:1052B0004FF0500080F31188BFF34F8FBFF36F8F13
:1052C00001F050F94FF0000080F3118809BC196813
:1052D0000868B0E8F04F1EF0100F08BFB0EC108A5D
:1052E00080F30988BFF36F8F704700BFAFF3008072
:1052F000C85B002008B54FF0500383F31188BFF35B
:105300006F8FBFF34F8F00F0FBFF18B14FF080524B
:10531000024B1A60002383F3118808BD04ED00E0FE
:10532000084A0023136008490B60084B1B680849B2
:10533000A1FB03139B09013B06490B600723136084
:10534000704700BF10E000E018E000E0000000201F
:10535000D34D621014E000E03A4B1A683A4B9A427F
:1053600008D14FF0500383F31188BFF36F8FBFF361
:105370004F8FFEE7334B1A68344B9A4208D14FF0F7
:10538000500383F31188BFF36F8FBFF34F8FFEE796
:1053900010B582B02E4B1A78D2B20192FF221A7049
:1053A0001B78DBB28DF803309DF8033003F0500317
:1053B000284A13700722284B1A6009E0264A13680E
:1053C000013B13609DF803305B00DBB28DF80330C6
:1053D0009DF8033013F0800FF0D11F4B1B68032B97
:1053E00008D04FF0500383F31188BFF36F8FBFF3E2
:1053F0004F8FFEE71B0203F4E063174A1360019B23
:10540000DBB2134A1370154B1A6842F470021A602B
:105410001A6842F070421A60FFF782FF0024104BB6
:105420001C60FFF7C3FE0F4A136843F0404313604C
:10543000FFF7A8FE01F096F8FFF784FE204602B0C1
:1054400010BD00BF00ED00E071C20F4170C20F41FE
:1054500000E400E0D01A0020D41A002020ED00E083
:105460009400002034EF00E0EFF305830F2B0FD9F9
:10547000104A9B5CDBB2104A1278934208D24FF07C
:10548000500383F31188BFF36F8FBFF34F8FFEE795
:105490000A4B1B6803F4E063094A1268934208D977
:1054A0004FF0500383F31188BFF36F8FBFF34F8F1B
:1054B000FEE77047F0E300E0D01A00200CED00E0BA
:1054C000D41A0020124A12F0070F07D0D11D21F084
:1054D0000701C1F5705313440A4601E04FF47053BD
:1054E0000C480260002141601344083B23F007038D
:1054F0000948036059601960991A51601360074B9D
:105500001960074B19604FF00042064B1A60704754
:10551000F01A0020E41A0020E01A0020F4560020BF
:10552000DC1A0020F0560020134B00E013461A68E6
:105530008242FBD310B45C681919884203D14168D8
:10554000214459601846446801198A420CD10B491C
:1055500009688A4206D05268224442601A6812687A
:10556000026002E0016000E00260984200D0186032
:105570005DF8044B704700BFE41A0020E01A0020D9
:1055800070B5044600F0AEFE3B4B1B680BB9FFF74D
:1055900099FF3A4B1B681C4257D194B1083414F060
:1055A000070F0ED024F00704083404F0070343B1BA
:1055B0004FF0500383F31188BFF36F8FBFF34F8F0A
:1055C000FEE7002C43D02E4B1B689C4241D82D4B4C
:1055D0001D6801E02B4615466A68944202D92A6884
:1055E000002AF7D1244A1268954234D01E68083642
:1055F0002A681A606B681B1B102B10D9281910F031
:10560000070F08D04FF0500383F31188BFF36F8F5B
:10561000BFF34F8FFEE743606C60FFF785FF6A685A
:1056200017490B689B1A0B60174909688B4201D216
:1056300015490B60114B1B681A436A6000232B60ED
:10564000124A13680133136006E0002604E00026C6
:1056500002E0002600E0002600F0E0FE16F0070F52
:1056600008D04FF0500383F31188BFF36F8FBFF35F
:105670004F8FFEE7304670BDE01A0020F056002044
:10568000DC1A0020E41A0020F4560020D81A00206A
:10569000002838D038B50346A0F1080550F8042C8E
:1056A0001949096812EA010408D14FF0500383F345
:1056B0001188BFF36F8FBFF34F8FFEE750F8080CD0
:1056C00040B14FF0500383F31188BFF36F8FBFF3E6
:1056D0004F8FFEE7B4B1A8B91C4622EA010243F895
:1056E000042C00F0FFFD54F8043C084A11680B44F8
:1056F00013602846FFF718FF054A1368013313604B
:1057000000F08CFE38BD7047F0560020DC1A0020F7
:10571000EC1A002010B50446FFF77CFDA26BE36B8A
:105720009A4201D1012400E00024FFF795FD2046B4
:1057300010BD00BF10B50446FFF76CFDA36B0BB99D
:10574000012400E00024FFF787FD204610BD00BFC4
:1057500070B504461646856B026C3AB9036843BBC4
:10576000806801F02DF80023A36029E06EB940683D
:10577000FAF7E0FE6268236C13446360A268934208
:1057800019D32368636000201AE0C068FAF7D2FEDC
:10579000236C5B42E2681A44E26021688A4202D2CA
:1057A000A2681344E360022E07D145B1013D0020F9
:1057B00006E0002004E0002002E0002000E00020DD
:1057C0000135A56370BD00BF026C72B110B5034610
:1057D000C4681444C4608068844201D31868D860E7
:1057E0000846D968FAF7A6FE10BD704738B50546D9
:1057F000FFF710FD95F8454064B20AE06B6A53B1BB
:1058000005F1240000F034FF08B100F0C3FF013CB3
:1058100064B2002CF2DCFF2385F84530FFF71CFD55
:10582000FFF7F8FC95F8444064B20AE02B6953B1E5
:1058300005F1100000F01CFF08B100F0ABFF013CC7
:1058400064B2002CF2DCFF2385F84430FFF704FD3E
:1058500038BD00BF38B540B94FF0500383F311880D
:10586000BFF36F8FBFF34F8FFEE704460D46FFF780
:10587000D1FC2168E26B236C03FB0210A0600020C6
:10588000A0636160013A02FB0313E360FF2384F825
:10589000443084F845307DB92369ABB104F1100080
:1058A00000F0E6FE80B14FF08052094B1A60BFF362
:1058B0004F8FBFF36F8F07E004F11000FFF7F8FB85
:1058C00004F12400FFF7F4FBFFF7C6FC012038BD0C
:1058D00004ED00E038B51D46049C0B4609B9246070
:1058E00000E02260E063236401212046FFF7B2FF5D
:1058F00084F84C5038BD00BF40B94FF0500383F3DB
:105900001188BFF36F8FBFF34F8FFEE710B584B0E0
:10591000044643B94FF0500383F31188BFF36F8FF0
:10592000BFF34F8FFEE712B119B1012002E0012051
:1059300000E0002040B94FF0500383F31188BFF31B
:105940006F8FBFF34F8FFEE712B919B9012002E044
:10595000012000E0002040B94FF0500383F311888C
:10596000BFF36F8FBFF34F8FFEE750200390039874
:10597000502808D04FF0500383F31188BFF36F8F86
:10598000BFF34F8FFEE720461C46039B3CB101232B
:1059900084F8463000949DF81830FFF79BFF2046AE
:1059A00004B010BDF0B585B0019240B94FF050037E
:1059B00083F31188BFF36F8FBFF34F8FFEE7044669
:1059C00019B9026C1AB9012202E0012200E000229A
:1059D00042B94FF0500383F31188BFF36F8FBFF3C9
:1059E0004F8FFEE7022B03D1E26B012A02D102E0C6
:1059F000012200E0002242B94FF0500383F31188E6
:105A0000BFF36F8FBFF34F8FFEE71D460E4600F0CA
:105A1000C7FE18B9019B1BB9012302E0012300E076
:105A2000002343B94FF0500383F31188BFF36F8F06
:105A3000BFF34F8FFEE70027FFF7ECFBA26BE36B92
:105A40009A4201D3022D21D12A4631462046FFF742
:105A50007FFE636A6BB104F1240000F009FE88B197
:105A60004FF08052324B1A60BFF34F8FBFF36F8FEE
:105A700008E038B14FF080522D4B1A60BFF34F8FC2
:105A8000BFF36F8FFFF7E8FB01204EE0019B1BB9CE
:105A9000FFF7E2FB002048E01FB902A800F02EFE4D
:105AA0000127FFF7D9FB00F01DFCFFF7B3FB94F8CB
:105AB00044305BB2B3F1FF3F02D1002384F844309D
:105AC00094F845305BB2B3F1FF3F02D1002384F874
:105AD0004530FFF7C1FB01A902A800F01BFEF0B999
:105AE0002046FFF717FEA0B1019904F1100000F065
:105AF0008BFD2046FFF77AFE00F090FC00289BD13A
