:020000040800F2
:10000000101B0020AD010008532300086D210008DB
:1000100051230008570700080544000800000000AD
:10002000000000000000000000000000E1250008C2
:10003000CD07000800000000CF240008F1250008CB
:10004000C7010008C7010008C7010008C701000870
:10005000C7010008C7010008CF070008C701000852
:10006000C7010008C7010008C7010008C701000850
:10007000C7010008C7010008C7010008C701000840
:10008000C7010008C7010008C70100080000000000
:10009000000000000000000000000000C701000890
:1000A000C701000899260008C7010008C701000819
:1000B000C7010008C7010008C7010008C701000800
:1000C000C7010008C7010008C7010008C7010008F0
:1000D000C7010008C7010008C701000800000000B0
:1000E000C7010008C7010008C701000800000000A0
:1000F000000000000000000000000000C701000830
:1001000000000000C7010008C7010008C70100087F
:1001100000000000000000000000000000000000DF
:10012000C7010008C7010008C7010008C70100088F
:10013000C7010008000000000000000000000000EF
:10014000000000000000000000000000552300082F
:10015000C7010008C7010008C7010008C70100085F
:10016000C7010008C70100080000000000000000EF
:10017000000000000000000000000000000000007F
:1001800000000000C701000800000000000000009F
:10019000C7010008DFF810D000F05CFA0048004703
:1001A000054F0008AFF30080101B00200648804771
:1001B00006480047FEE7FEE7FEE7FEE7FEE7FEE74C
:1001C000FEE7FEE7FEE7FEE7892600089501000846
:1001D0002DE9F05F0546002092469B46884606467C
:1001E000814640241BE0284641464746224600F00F
:1001F00069F853465A46C01A914110D31146184621
:10020000224600F016F82D1A67EB01084F462246E9
:100210000120002100F00DF817EB00094E41201ECF
:10022000A4F10104DFDC484631462A464346BDE8D6
:10023000F09F202A04DB203A00FA02F100207047E8
:100240009140C2F1200320FA03F319439040704714
:1002500040EA01039B0703D009E008C9121F08C048
:10026000042AFAD203E011F8013B00F8013B521EC8
:10027000F9D27047D2B201E000F8012B491EFBD23F
:1002800070470022F6E710B513460A4604461946A1
:10029000FFF7F0FF204610BD30B50B4601460020A9
:1002A0002022012409E021FA02F59D4205D303FA38
:1002B00002F5491B04FA02F52844151EA2F10102B9
:1002C000F1DC30BD202A04DB203A21FA02F00021C3
:1002D000704721FA02F3D040C2F120029140084356
:1002E000194670472DE9FE4F804681EA0300C00F92
:1002F0000C46009021F0004123F00045B8EB0200CD
:10030000A94105D24046214690461C460B4602466E
:1003100023F00040104347D0270DC7F30A00C3F372
:100320000A510290401A019040286BDAC3F313007F
:1003300040F4801B0098924620B10023D2EB030AC0
:1003400063EB0B0B01985946C0F140025046FFF792
:1003500070FF06460D4650465946019A00F08CF94A
:1003600010EB08006141002487EA115284EAE77328
:100370001A4340D0009A62B3019A012A4FEA075209
:1003800015DC001B61EB02014FF0004202EA07524C
:10039000CDE90042001C41F5801132462B4600F0A9
:1003A0008CF903B0BDE8F08F40462146F9E7001B09
:1003B00061EB0201001C41F5801300185B4120181D
:1003C000A2F5001747EB030140EAD570B6196D415D
:1003D00011E06D084FEA360645EAC0754FEA07524C
:1003E000001B61EB0201001C41F5801149084FEA36
:1003F00030000019514132462B4603B0BDE8F04FA2
:1004000000F04CB90098012240000023D0EB02021A
:1004100063EBE073009821464FEAE074B8EB00000C
:1004200061EB0401E9E783F000435BE781F0004101
:1004300058E72DE9FE4F81EA030404F0004421F05F
:10044000004100944FF0000B23F0004350EA0104F8
:100450005ED052EA03045BD0C3F30A54C1F30A55D9
:100460002C44A4F2F3340194A0FB0254C1F3130111
:1004700041F48011C3F3130343F4801301FB0244DE
:1004800000FB034E840A970A44EA815447EA8357E3
:10049000A4FB076802958D0A05FB07854FEA932C9C
:1004A00004FB0C542705029D4FEA065847EA16370D
:1004B000B5EB08056EEB070C870E920E47EA811725
:1004C00042EA8312A7FB0201B6EB0B0164EB0004C6
:1004D0002B0D43EA0C335E1844EB1C50DA465146B0
:1004E000E7FB0201C5F313044FEA0B3343EA14534D
:1004F0004FEA0432019C43EA0603A4F10C0402947F
:10050000009CCDE900B400F0D8F803B0BDE8F08F4E
:1005100000200146F9E72DE9F04D81EA030404F0DB
:10052000004B21F0004514464FF0000A23F0004133
:1005300050EA050220D054EA01021DD0C5F30A5743
:100540000246C5F31303C1F31300C1F30A5640F486
:10055000801543F48013A7EB0608101BD64608F25B
:10056000FD3873EB050002D308F1010801E0921891
:100570005B41B8F1000F03DA00200146BDE8F08DC1
:1005800000204FF48011064684460EE0171B73EBE3
:10059000050705D3121B63EB050306434CEA010C68
:1005A00049084FEA300092185B4150EA0107EDD14B
:1005B00052EA030012D082EA040083EA05010843EC
:1005C00005D0101BAB4106D20122002306E0002219
:1005D0004FF0004302E06FF0010253101AEB0600E7
:1005E0004CEB085110EB0A0041EB0B01BDE8F04D5C
:1005F00000F054B8C1F30A52C1F3130140F2FF33C3
:1006000041F480119A4202DA00200146704740F21C
:1006100033439A42A2F2334202DC5242FFF752BE07
:10062000FFF707BE30B5041E71F1000404DB4FF084
:100630000044404264EB0101141E73F1000405DB29
:100640001C464FF00043524263EB0403994208BF3B
:10065000904230BD064C074D06E0E06840F00103D3
:1006600094E8070098471034AC42F6D3FFF796FDA4
:100670004C5200086C520008202A06DBCB17203AA7
:1006800041FA02F043EAE07306E041FA02F3D04097
:10069000C2F12002914008431946704710B5141E5C
:1006A00073F1000408DA401C41F1000192185B412B
:1006B0001A4301D120F0010010BD2DE9F04D924602
:1006C0009B4611B1B1FA81F202E0B0FA80F2203219
:1006D0009046FFF7AEFD04460F4640EA0A0041EAA5
:1006E0000B0153465A46084313D0114653EA010002
:1006F00019D0C8F140025046FFF7E4FD05460E460A
:10070000504659464246FFF794FD084305D0012064
:1007100004E020463946BDE8F08D0020054346EA56
:10072000E0762C4337430A986305E40AA0EB0800FF
:100730000022FD0A44EA47540A3002D5002001464F
:10074000E9E7010510196941DDE90845001969412A
:10075000BDE8F04DA2E7FEE700207047002070479B
:1007600010B500220449054802F04EFA0449034836
:1007700002F03DFA002010BDBC0A0020F801002064
:10078000D406002010B50146034802F030FA0248B2
:1007900002F006FA002010BDF8010020002070478A
:1007A000094A10B5D2F8BC22D2F814220AB10120AD
:1007B00010BD0A460146044802F026FABDE8104082
:1007C000014802F09BBA0000F801002070470120A8
:1007D00000F030B84109890001F1E021D1F80011A1
:1007E00000F01F0201209040014201D0012070471B
:1007F0000020704772B6FEE770B5044600F020F99D
:100800000546601C02D004480078044400F018F942
:10081000401BA042FAD370BD64000020012805D01F
:10082000102802D1024901204860704704F0A0BBA3
:1008300004010020044910B50A68024202D0086091
:10084000FFF7ECFF10BD0000143C01402DE9F84F0C
:10085000DFF8B8A10022012403254FF00F090AF1A7
:10086000040BAAF1040E00BF0B6804FA02F6334031
:10087000B34273D10F7907F00307012F01D0022F84
:1008800016D187684FEA420805FA08FC27EA0C07E8
:10089000D1F80CC00CFA08FC4CEA070CC0F808C0F0
:1008A0004768B7430E79C6F3001696403E4346604C
:1008B0000E79F643B6070DD0C768560005FA06FC58
:1008C00027EA0C07D1F808C00CFA06FC4CEA070C22
:1008D000C0F80CC00E7906F00306022E10D1D6081F
:1008E00000EB8608D8F8206057074FEAD76C09FA62
:1008F0000CF7BE430F6907FA0CF73743C8F82070AE
:1009000006684FEA420C05FA0CF7BE430F7907F070
:10091000030707FA0CF7374307604E6816F4403FA9
:100920006DD03B4E376847F480473760366822F019
:10093000030706F480460096364E07EB060CDCF8FB
:10094000086897073F0F09FA07F826EA0806DFF854
:10095000C880404503D14FF000081EE04FE0DFF8AB
:10096000BC80404502D14FF0010816E0DFF8B080AE
:10097000404502D14FF002080FE0DFF8A880404563
:1009800002D14FF0030808E0DFF89C80404502D117
:100990004FF0040801E04FF0070808FA07F848EAAA
:1009A0000608CCF80888DAF800605746D1F804C089
:1009B0009E435FEACC2C00D51E433E60DBF800600E
:1009C0005F46D1F804C09E435FEA8C2C00D51E43DD
:1009D0003E60DEF800607746D1F804C09E435FEACF
:1009E0008C3C00D51E433E60084F083F3E68D1F85E
:1009F00004C09E435FEACC3C00D51E433E60521CBF
:100A0000102AFFF431AFBDE8F88F0000083C014028
:100A1000443802400030014000000240000402401F
:100A200000080240000C024000100240006908402B
:100A300000D0012070470AB1816170470904FBE7CB
:100A40000148806870470000640000200248816807
:100A50000278114481607047640000200B4810B593
:100A6000016841F400710160016841F48061016036
:100A7000016841F480710160032000F099F80F20B3
:100A800000F006F800F03EF8002010BD003C0240E7
:100A900010B5014688B00022192000F069F819202D
:100AA00000F059F813480024016841F00101016089
:100AB000006805A900F001000690684600F05CFEA1
:100AC00000F090FE0C490D4AB0FBF1F10C48491EB4
:100AD000026040F2E732C0E90324C0E9011401F0EA
:100AE000B8F910B1012008B010BD054801F0E0F9D7
:100AF000F9E700004438024040420F000000014086
:100B0000B00100200A4808B5016841F48041016045
:100B1000006800F4804000900548001F016841F023
:100B200080510160006800F08050009008BD000016
:100B30004438024000280DDB00F01F0201219140E3
:100B40004009800000F1E020C0F88011BFF34F8F12
:100B5000BFF36F8F7047002809DB00F01F020121EF
:100B600091404009800000F1E020C0F8001170477A
:100B7000F0B40E4B1B680C46C3F30223C3F1070508
:100B8000042D00D90425191D072901D2002300E0F6
:100B9000DB1E012606FA05F1491E214099409E40C0
:100BA000761E16403143F0BC03F048BC0CED00E06B
:100BB000064900F0070208684FF6FF03184040EAB4
:100BC0000220034A10430860704700000CED00E06B
:100BD0000000FA0570470068416200207047F0B5D8
:100BE0000368586A39B19C6A4FF4827600EB14446A
:100BF00000204D1E0AE040EA024098620FE006EB3A
:100C00008007DF59401C04EB1744C0B2A842F6D35A
:100C100044EA02404FF4807202EB810158500020F8
:100C2000F0BDD0F8080502F0EFBA01EBC10200EB0D
:100C30008202D0F80805D26C02F044BA01EBC1027E
:100C400000EB8202D0F80805D2F88C2202F095BAA7
:100C5000D0F8080502F0DABA0A0601F00F0101EB3C
:100C6000C10100EB810101D53C3101E001F51F71AB
:100C7000006803F00FBA70B504460B0601F00F00D0
:100C800000EBC00104EB81014FF001024FF00005C1
:100C900003D581F83D203C3103E081F87D5201F518
:100CA0001F71087094F8BC04012808D084F8BC2493
:100CB000206802F0A9FE84F8BC54002070BD022018
:100CC00070BD70B5044601F00F006268904201D912
:100CD000012070BD0B0601F00F0101EBC10104EB17
:100CE00081014FF001024FF0000503D581F83D204E
:100CF0003C3103E081F87D5201F51F718D70087061
:100D000094F8BC04012808D084F8BC24206803F0BF
:100D100077F884F8BC54002070BD022070BD01F04B
:100D20000F0101EBC10100EB8100D0F89C0270477C
:100D30002DE9F04104460F0601F00F0000EBC00161
:100D400004EB81014FF001064FF0000503D581F857
:100D50003D603C3103E081F87D5201F51F71087060
:100D6000CA600B714A7802B10881022B00D14D7123
:100D700094F8BC04012809D084F8BC64206802F00F
:100D80009BFD284684F8BC54BDE8F0810220FBE7B7
:100D900070B50C4601F00F0505EBC50100EB8101B4
:100DA000C1F89432C1F88C220023C1F89C3281F83A
:100DB0007D3281F87C52036901F51F71012B00D14E
:100DC0004A612207027C006803D003F071F800201A
:100DD00070BD02F05BFFFAE770B504460D4601F006
:100DE0000F006168884201D9012070BD29064FF0CB
:100DF00000064FF0010207D500EBC00104EB8101B2
:100E000081F83D203C3107E005EBC50104EB810191
:100E100081F87D6201F51F718A70087094F8BC0436
:100E2000012807D084F8BC24206803F015F82807AF
:100E300002D007E0022070BD217C04F2C442206889
:100E400002F0B2FF84F8BC64002070BD70B50C469F
:100E500001F00F0505EBC50100EB81014B65CA648C
:100E60000023CB65012381F83D3001F83C5F036925
:100E7000012B00D14A612207027C006803D003F0F5
:100E800017F8002070BD02F001FFFAE72DE9FC5FC2
:100E900005680446284603F09EF900287DD12068A5
:100EA00003F0C5F9002878D0D5F80808C0F30D2064
:100EB000C4F8FC04206803F0BAF9800704D5206860
:100EC000416901F002014161206803F0B0F9C106F7
:100ED00004F2C440009034D52068816921F01001EB
:100EE00081612F6A07F00F0000EBC00004EB800661
:100EF000C7F3434006F51F76022802D0062811D01A
:100F00001AE047F6F070074216D0C7F30A121746E8
:100F10002846316903F08FF9306938443061306A0E
:100F2000384408E008222846009903F084F9306A22
:100F3000C7F30A11084430622068816941F010014A
:100F40008161206803F073F900034FF0080B4FF044
:100F5000000A4FF001097CD50026206803F046F90D
:100F6000074674E0F80770D0F1B2206803F057F933
:100F70008046C00707D005EB4611C1F8089B3146F3
:100F8000204601F0EDF95FEA087024D505EB461123
:100F9000C1F808BB2068016C00E025E200EB4610B8
:100FA0000191D0F8082BFC4B994205D9110403D5C7
:100FB0004FF40041C0F8081B204600F002FBF64940
:100FC0000198884207D92069012804D120680121AD
:100FD000009A02F0E9FE5FEAC86004D505EB46110D
:100FE0001020C1F8080B5FEA88701DD568690006FB
:100FF00005D5D5F8040840F48061C5F8041806EB5F
:10100000C60004EB800090F87F1200F51F700129E4
:1010100005D180F803A0F1B2204600F0EBF905EB12
:1010200046110220C1F8080B5FEA886004D505EB81
:1010300046102021C0F8081B5FEA884005D505EB63
:1010400046104FF40051C0F8081B7F08761C002F93
:1010500088D1206803F0EBF840036FD5206803F0D7
:10106000BEF80746002667E0F80763D0F1B22068B3
:1010700003F0C3F88046C00723D006F00F0209FA38
:1010800002F0D5F834288243C5F8342805EB461021
:10109000C0F80899206901280FD106EBC60004EBBF
:1010A0008000D0E912211144C16436B9606D20B9C5
:1010B00020680121009A02F077FEF1B22046FFF786
:1010C000B4FD5FEA087003D505EB4611C1F808B915
:1010D0005FEAC86004D505EB46111020C1F8080985
:1010E0005FEA486004D505EB46104021C0F80819B6
:1010F0005FEA887017D53146284603F03FF806EBC3
:10110000C60004EB800090F83F103C30012905D167
:1011100080F803A0F1B2204600F068F905EB461113
:101120000220C1F808095FEA086003D5314620466D
:1011300001F07CF97F08761C002F95D1206803F020
:1011400076F8002811DAD5F8040820F00101C5F876
:10115000041894F8F40401282BD0204600F015FA66
:101160002068416901F000414161206803F05FF8A7
:1011700000050BD5D5F80808C00702D0204600F0BE
:1011800049FA2068416901F400614161206803F077
:101190004EF8C00466D5D5F8040820F00100C5F863
:1011A00004081021206802F0E9FF00214FF67F3289
:1011B0001FE084F8F4A400212046FFF70BFDCFE7E1
:1011C00005EB4110C0F80829D0F8003923F40013CA
:1011D000C0F80039C0F8082BD0F8003B23F4001306
:1011E000C0F8003BD0F8003B43F00063C0F8003B80
:1011F000491C60688842E3D8D5F81C0840F001110A
:10120000C5F81C18206B002828460DD0D0F884089B
:1012100040F00B01C5F88418D5F8440840F00B01E4
:101220002846C5F844180DE0D0F8140842F22B0106
:101230000843C5F81408D5F8100840F00B012846FB
:10124000C5F81018D0F8000820F4FE61C5F80018A1
:10125000217C2068009A02F0A7FD2068416901F412
:1012600080514161206802F0E2FF800415D52068BA
:1012700002F062FB206802F0A1FFE06000F09CFA3F
:101280000146227B206803F035F8204600F06AF919
:101290002068416901F400514161206802F0C7FFF4
:1012A000000707D5204600F074F92068416901F075
:1012B00008014161206802F0BAFF000616D5A8694E
:1012C00020F08000A86101260DE000BF06EBC600FB
:1012D00004EB800090F87F02012803D1F1B2204690
:1012E000FFF7BAFC761C6068B042EFD8206802F0C5
:1012F0009EFFC00221D501264F4616E005EB4610A1
:10130000D0F8001906EBC60004EB800090F84020EE
:10131000012A09D1002907DA80F83F70F0B240F0C5
:1013200080012046FFF798FC761C6068B042E5D843
:101330002068416901F480114161206802F077FF63
:10134000800234D501204B4629E000BF05EB401157
:10135000D1F8001B00EBC00204EB820696F8802255
:10136000012A1BD1002919DA94F8FC2401F48031F8
:1013700002F00102914211D186F87F32A96941F051
:101380008002AA616969090608D4D5F8040840F406
:101390000070C5F8040805E00A30544F401C61682D
:1013A0008142D3D82068416901F40011416120686D
:1013B00002F03DFF400007D52046FFF732FC2068D1
:1013C000416901F080414161206802F030FF40072F
:1013D0000AD520684568680702D52046FFF738FC23
:1013E0002068416829434160BDE8FC9FD0F80805AA
:1013F00001F060BFD0F8080501F070BF2DE9F041A1
:101400008AB0040005D094F8BD042668002520B1F8
:1014100008E001200AB0BDE8F08184F8BC54204601
:1014200000F05EF8032084F8BD04F06BC00500D422
:101430002561206802F024FC04F11001282288466E
:101440006846FEF705FF94E80F0002F083FA0226D3
:10145000C8BB0021206802F00DFF002001270EE02C
:1014600000EBC00104EB810181F83D7001F83C0FF5
:1014700008810D71CD600D61401CC0B28D61616845
:101480008142EDD8002011E000EBC00104EB8101A6
:1014900081F87D5281F87C0281F88052C1F888522F
:1014A000C1F88C52401CC0B2C1F8945261688142AC
:1014B000EAD8282241466846FEF7CAFE94E80F00A3
:1014C00002F024FB10B184F8BD64A2E784F8385020
:1014D00084F8BD74206802F00BFB00209AE700003E
:1014E00010B586B0044614216846FEF7CAFE20688F
:1014F000B0F1A04F2FD119480021026842F001023B
:101500000260006800F0010005904FF4C0500090A8
:101510000220CDE90101032003900A2004906946CE
:101520000F48FFF793F90D48001D016841F0800155
:1015300001600A481430016841F48041016000688C
:10154000002200F48040059005214320FFF710FBA6
:101550004320FFF700FB06B010BD0000303802400A
:101560000000024070B50446C0680125022801D081
:10157000FFF740F92946D4F8080501F01DFFD4F81B
:101580000805BDE8704001F0D2BED0F8080501F0B2
:10159000FCBED0F8080501F002BF10B5044690F873
:1015A000BC0401280BD0012084F8BC0484F8381056
:1015B000206802F08DFE002084F8BC0410BD0220DB
:1015C00010BDD0F8082500F2C441104601F000BF5C
:1015D00010B50446006894F8BC14012906D0012116
:1015E00084F8BC14A16A012902D008E0022010BDD1
:1015F000A169012903D0816B41F4803181632068A6
:1016000002F097FD206802F065FA002084F8BC041F
:1016100010BD000010B50446D0F8080501F01AFF0F
:101620002068D0F8001E41F00101C0F8001E206AB9
:10163000002804D00248016841F00601016010BD95
:1016400010ED00E02DE9F0470E46050065D0DFF80B
:101650001481D8F80000F7B200F00700B04207D2BA
:1016600088F80070D8F8000000F00700B04254D1AC
:1016700028683D4C810712D5400703D5206840F407
:10168000E05020602878000703D5206840F46040CF
:1016900020602068A96820F0F000084320602878C6
:1016A000C0072DD0304968680839012812D00228B7
:1016B00013D0032811D00968890700292DDA216881
:1016C00021F0030101432160FFF7BAF9814641F29D
:1016D000883A0EE009688903EFE709688901ECE7B9
:1016E000FFF7AEF9A0EB0901514502D90320BDE88F
:1016F000F0872068696800F00C00B0EB810FEFD133
:10170000D8F80010404601F00701B14207D9077030
:10171000006800F00700B04201D00120E7E7287818
:10172000400705D52068E96820F4E05008432060B0
:101730002878000706D52068296920F4604040EA2F
:10174000C100206000F05EF82168084AC1F303116F
:10175000515CC8400649086006480068FFF798F9E0
:101760000020C4E7003C0240083802403452000820
:1017700070000020680000200F2202600C4A1368ED
:1017800003F003034360136803F0F00383601368FE
:1017900003F4E053C36012684FF4E05303EAD2024B
:1017A00002610448006800F007000860704700000C
:1017B00008380240003C02400148006870470000C1
:1017C000700000200448054900680968044AC1F314
:1017D0008221515CC84070477000002008380240E8
:1017E000445200080448054900680968044AC1F3E6
:1017F0004231515CC84070477000002008380240F8
:1018000044520008104810B5006810F00C010F4851
:1018100018D0042916D0082914D10B4C241F216894
:1018200001F03F02216821680023C1F38811A1FB68
:101830000001FEF7CDFC2168C1F30141491C4900BC
:10184000B0FBF1F010BD0000083802400024F400A5
:101850002DE9F84F04006ED02078DFF84C93C007D4
:10186000A9F104054AD009F104000168C1F381011E
:10187000012908D00068C0F3810002280AD1D9F8F4
:101880000000400206D52868800337D5606800282C
:10189000E1D033E06068B0F5803F10D0B0F5A02F04
:1018A000286810D020F480302860286820F4802038
:1018B00028606068A8B1FFF7C3F806460DE0286805
:1018C00040F48030F4E740F480202860F7E700BF60
:1018D000FFF7B6F8801B642873D828688003F7D513
:1018E0000CE0FFF7ADF8064605E000BFFFF7A8F8EB
:1018F000801B6428F0D828688003F7D42078DFF8AC
:10190000AC8280074FF0000A3ED5A748001D016851
:1019100011F00C0F08D00068C0F3810002280BD131
:10192000D9F80000400207D42868800716D5E0687F
:10193000012800D112E033E1E068B8B10120C8F815
:101940000000FFF77DF8064605E000BFFFF778F8D6
:10195000801B0228C0D828688007F7D5286821692D
:1019600020F0F80040EAC10028600DE0C8F800A0AF
:10197000FFF766F8064604E0FFF762F8801B0228CE
:101980001FD828688007F7D42078000722D5864F13
:1019900087486169703771B101210160FFF750F824
:1019A000064604E0FFF74CF8801B022809D8386887
:1019B0008007F7D50EE0C0F800A0FFF741F8064613
:1019C00005E082E0FFF73CF8801B02287DD83868EC
:1019D0008007F7D42078400768D5DFF8CCB100271E
:1019E0000BF13C0BDBF80000C0000BD4DBF800105F
:1019F00041F08051CBF80010DBF80000012700F027
:101A0000805000906B4E3068C00510D4306840F4B0
:101A100080703060FFF714F8009005E0FFF710F8D1
:101A20000099401A022850D83068C005F6D55E4E9D
:101A3000A0686C3601280FD00528306810D020F03F
:101A400001003060306820F004003060A068B8B158
:101A5000FEF7F6FF00900FE0306840F00100F4E779
:101A600040F004003060F7E7FEF7EAFF0099411A02
:101A700041F28830814266D830688007F4D50EE0A4
:101A8000FEF7DEFF009007E0FEF7DAFF0099411A4B
:101A900041F28830814256D830688007F4D42FB1A3
:101AA000DBF8001021F08051CBF80010A069C8B31A
:101AB0003D49091D0968C1F3810102294AD0022864
:101AC000504607D0C8F8600000E03CE0FEF7B8FFE1
:101AD00004463BE04746C8F86000FEF7B1FF064603
:101AE00005E000BFFEF7ACFF801B02282BD828685A
:101AF0008001F7D4D4E907010843A16A2E4A4908B6
:101B000002EB0141626A41EA8211084394F82C1009
:101B100040EA0161C9F8001001203866FEF790FF25
:101B2000044606E03EE000BFFEF78AFF001B0228E5
:101B300009D828688001F7D534E000BFFEF780FFA0
:101B4000001B022802D90320BDE8F88F2868800115
:101B5000F4D427E00128F7D0D9F80000E26900F4B6
:101B6000800191421CD1226A00F03F01914217D1BD
:101B700047F6C071626A0140B1EB821F10D1A26AC0
:101B80004FF0FF3300F4403103EB5202B1EB024F50
:101B900006D194F82C1000F07060B0EB016F01D00A
:101BA0000120D1E70020CFE704380240000047427F
:101BB000800E4742007000400000FFFF90F8510087
:101BC000704770B5040009D0606A002540B12561F6
:101BD0006561A56294F8510040B10CE0012070BD30
:101BE0006068B0F5827FF4D0E561F2E784F8505088
:101BF000204600F045F8022084F851002068016872
:101C000021F040010160A088218900F4827001F474
:101C100004410843A18901F400610843217C01F0DB
:101C200002010843217D01F001010843218B01F4E9
:101C300000710843217F01F03801084394F8201017
:101C400001F080010843218D01F40051084321680F
:101C50000860A069042101EA104094F8241001F002
:101C600010010843216848602068C16921F40061BF
:101C7000C1616565012084F85100002070BD00003D
:101C800010B586B0044614216846FEF7FAFA1349E7
:101C90002068884220D112480021026842F4805214
:101CA0000260006800F4805005900D481438026806
:101CB00042F001020260006800F001000590E0209F
:101CC00000900220CDE9010103200390052004903B
:101CD00069460448FEF7BAFD06B010BD0030014069
:101CE00044380240000002402DE9F84F044690F8C5
:101CF000500000271D461646894601280DD04FF09A
:101D0000010B84F850B0FEF79BFE804694F851001A
:101D1000BA46012804D0022793E00220BDE8F88FDC
:101D2000B9F1000F73D0002E71D0032084F8510058
:101D3000C4F854A0C4F83090A686E686C4F838A04B
:101D4000A4F83CA0A4F83EA0C4F844A0C4F840A065
:101D5000A068B0F5004F09D12068016821F040016A
:101D600001602068016841F48041016020680168D9
:101D7000490603D4016841F040010160E068B0F514
:101D8000006F606803D030B3012E24D041E008B169
:101D9000012E1CD1206B21680088C86006E02068F5
:101DA0008168890709D5216B0988C160206B801C77
:101DB0002063E08E401EE08609E0FEF741FEA0EBC6
:101DC0000800A84202D3681C01D031E07DB3E08E48
:101DD0000028E4D120E0206B21680078087306E039
:101DE00020688168890709D5216B09780173206B08
:101DF000401C2063E08E401EE0860AE0FEF720FED5
:101E0000A0EB0800A84203D3681C02D010E017E042
:101E10006DB1E08E0028E3D142462946204600F00D
:101E200057FB08B120206065A06818B106E0FFE705
:101E3000032706E02068C16880680090606D00B1EB
:101E4000012784F851B084F850A0384666E77047FF
:101E5000704710B5040003D094F83D0010B107E0BE
:101E6000012010BD002084F83C00204600F01EF840
:101E7000022084F83D00211D206800F013FC0120A1
:101E800084F8460084F83E0084F83F0084F840005F
:101E900084F8410084F8420084F8430084F8440048
:101EA00084F8450084F83D00002010BD7047000014
:101EB00090F83D10012901D001207047022180F8DF
:101EC0003D100168CA6842F00102CA6000680E490C
:101ED00088420ED0B0F1804F0BD00C49884208D018
:101EE0000B49884205D00B49884202D00A498842F2
:101EF00004D1816801F00701062903D0016841F08F
:101F00000101016000207047000001400004004012
:101F100000080040000C004000400140704770B5D0
:101F20000446006801694FF00005C943890715D4CC
:101F3000C168C943890711D4E91E016101202077D6
:101F4000206880698007204602D0FFF7E7FF04E0A1
:101F500000F098F8204600F096F82577206801698F
:101F6000C943490717D4C168C943490713D46FF05F
:101F700004010161022020772068806910F4407F0D
:101F8000204602D0FFF7CAFF04E000F07BF82046AD
:101F900000F079F8257720680169C943090716D44C
:101FA000C168C943090712D46FF008010161042018
:101FB00020772068C0698007204602D0FFF7AEFF77
:101FC00004E000F05FF8204600F05DF82577206817
:101FD0000169C943C90617D4C168C943C90613D4E6
:101FE0006FF010010161082020772068C06910F4AB
:101FF000407F204602D0FFF791FF04E000F042F856
:10200000204600F040F8257720680169C943C907D8
:1020100008D1C168C943C90704D1891E016120469E
:1020200000F032F820680169C943090609D4C16883
:10203000C943090605D46FF0800101612046FFF70E
:1020400006FF20680169C943490609D4C168C9432C
:10205000490605D46FF040010161204600F01EF8EA
:1020600020680169C94389060BD4C168C943890640
:1020700007D46FF0200101612046BDE87040FFF7F2
:10208000E7BE70BD7047704700680349884201D1C0
:10209000FEF7DCBC7047000000000140704770B5DF
:1020A000040004D094F83D00002510B106E00120A2
:1020B00070BD84F83C50204600F022F8242084F8BB
:1020C0003D002068C16821F40051C160204600F045
:1020D00035FB2068016921F4904101612068416964
:1020E00021F02A0141612068C16841F40051C160BA
:1020F0002564202084F83D0084F83E00002070BD57
:1021000010B586B0044614216846FEF7BAF81449A3
:102110002068884221D113480021026842F0100251
:102120000260006800F0100005900E481438026844
:1021300042F001020260006800F0010005904FF4D7
:10214000C06000900220CDE9010103200390072028
:10215000049069460448FEF779FB06B010BD000004
:10216000001001404438024000000240FEE7000039
:10217000F0B500230A24302537261F4611E000BFA2
:10218000B4EB107F02D905EB107C01E006EB107C6C
:1021900001F813C001EB430C00015B1C8CF80170CB
:1021A000DBB29342ECD3F0BD2DE9F04186B01421AF
:1021B0006846FEF766F82E480024016841F0800169
:1021C0000160016801F080010591016841F00101A1
:1021D0000160016801F001010591016841F002010F
:1021E00001600068234F00F00200059001221021D9
:1021F0003846FEF720FCDFF88080002208214046A8
:10220000FEF719FC012210214046FEF714FC1026AF
:10221000012502200096CDE9015003906946384619
:10222000FEF714FB4FF488100095CDE901046946D0
:102230004046FEF70BFB08200090CDE901546946AB
:1022400040460394FEF702FB11200096CDE90104FD
:10225000694640460394FEF7F9FA0022114606202B
:10226000FEF786FC0620FEF776FC06B0BDE8F0819E
:10227000303802400000024000040240104810B50F
:102280000E4901604FF48271416000218160C1609C
:102290004FF400720161C0E905121022C0E9072164
:1022A000416281620A21C162FFF78BFC002803D0E2
:1022B000BDE81040FEF79EBA10BD0000003001409E
:1022C000140100200C4810B50A4901604FF4E131B7
:1022D0004160002181600C22C160C0E9041281616B
:1022E000C161FFF7DCFE002803D0BDE81040FEF717
:1022F00081BA10BD001001406C01002010B5002211
:102300000F49104800F0B9FE08B1FEF773FA0E4904
:102310000C4801F0C7F808B1FEF76CFA0B49094800
:1023200000F05AFC08B1FEF765FA064801F03EF9E4
:10233000002803D0BDE81040FEF75CBA10BD0000D5
:1023400000000020F8010020CC00002050000020F8
:10235000FEE7FEE70148FEF799BD0000C41000202B
:102360002DE9F04103680D4604461E6C03EB451150
:10237000D1F8080BD4F810E04FF400474FF0200CD0
:1023800004F2C442BEF1010F09D0DFF898E07645AF
:1023900039D1020432D500BFC1F8087B3FE0224B9F
:1023A0005FEA007E04D59E4239D90004F4D436E0B9
:1023B0005FEA806E02D5C1F808CB30E010F0280F3C
:1023C0002DD19E4201D90004E6D405EBC50004EBF3
:1023D0008000D1F8101BD0F89832C1F31201591ABD
:1023E000C0F89C1200F51F70ADB983691BB102697A
:1023F000114401610FE0012120680AE080060AD53E
:10240000C1F808CB07E035B9D4F8940218B9002117
:10241000184601F0C9FCE9B22046FEF70FFC002087
:10242000BDE8F0810A31544F0A30544F2DE9F84F7E
:102430000E4601EBC60100EB810481460568616D23
:10244000E06D3C34884202D90120BDE8F88F081ABB
:10245000E168814200D20846C01C870805EB461897
:102460001BE000BFA0EB010AE068504500D28246A5
:102470000AF10300870899F8100000901FFA8AF308
:10248000F2B22846216901F0A9FF216901EB0A0097
:102490002061216A01EB0A002062D8F8180980B295
:1024A000B84205D3216AA069814201D20028D9D15E
:1024B000216AA069884208D806F00F0101208840EF
:1024C000D5F834188143C5F834180020BDE77047AB
:1024D00038B504461248134B0068B0FBF3F04FF4D4
:1024E0007A73584300906068B0F5827F0DD10B4637
:1024F000009200228021204600F016F870B1606D35
:1025000040F020006065032038BD009830B1401EC7
:10251000009020688068C0430006F6D5002038BDD2
:102520007000002000366E012DE9F8431E469146EA
:1025300088460446089DFEF783FA401B351AFEF7CD
:102540007FFA074625480068C0F3CB30684338E07F
:10255000701C37D0FEF774FAC01BA84203D215B125
:10256000009860B32CE02068416821F0E0014160F0
:102570006068B0F5827F0BD1A068B0F5004F02D043
:10258000B0F5806F04D12068016821F0400101603E
:10259000A06AB0F5005F09D12068016821F40051FC
:1025A00001602068016841F400510160012084F855
:1025B0005100002084F850000320BDE8F883002576
:1025C000401E00902068816838EA010004D0002194
:1025D0004945BDD10020F0E70121F9E77000002056
:1025E00070470178407841EA00207047FEF704B94F
:1025F0007047000030B593B030216846FDF741FECA
:1026000014210CA8FDF73DFE1D480025016841F08E
:1026100080510160006800F08050119019480168F5
:1026200021F4404141F4004101600068022400F4BB
:102630004040119001200090000401908001CDE9FC
:102640000640082008904820CDE9090403200B909B
:102650006846FFF7FDF808B172B6FEE70CA90F2037
:1026600081E831004FF48050CDE90F0502210CA81C
:10267000FEF7E8FF002801D072B6FEE713B030BDC8
:1026800040380240007000400248016841F4700187
:102690000160704788ED00E00148FFF740BC000092
:1026A000B0010020F0B502681D4B1E4C9F031E4D6B
:1026B0001E4E984207D0B84205D0A04203D0A8428F
:1026C00001D0B04204D122F0700C4A6842EA0C02F8
:1026D000984210D0B8420ED0A0420CD0A8420AD0E6
:1026E000B04208D0124CA04205D0124CA04202D0F9
:1026F000114CA04203D122F44074CA6822434C69B1
:1027000022F08002224302608A68C2620A68826202
:10271000984201D10969016301214161F0BD0000C6
:10272000000001400004004000080040000C004090
:1027300000400140004401400048014070B504469B
:1027400000680169E26821F4405111430161216987
:10275000A068E26908436169114308432168CA68B7
:1027600049F20C639A430243CA6020684169A26936
:1027700021F440711143416131492068884202D0FF
:102780003049884202D1FFF72DF801E0FFF71AF82F
:10279000E2690023192164253226B2F5004F6268F0
:1027A00028D0A0FB0101930F9200FDF711FD014617
:1027B000B0FBF5F06FF01802504301EB800006EB20
:1027C0000010B0FBF5F000F0F002B1FBF5F002EB09
:1027D0000012B1FBF5F06FF01803584301EB8000D5
:1027E00006EB0010B0FBF5F000F00F00216810447C
:1027F000886070BDA0FB010192185B41FDF7E8FC09
:102800000146B0FBF5F00201B1FBF5F06FF01803E3
:10281000584301EB800006EBC000B0FBF5F000F080
:10282000F80002EB4002B1FBF5F0584301EB8000E9
:1028300006EBC000B0FBF5F000F00700D6E70000A3
:1028400000100140001401402DE9F0410C46D0F881
:10285000D412D0F8C82200EB8101D1F8C01229B3FC
:1028600004F00F0606EB860300EB83050027AB6937
:102870004BB106EBC60602EB8602926CB3FBF2F696
:1028800002FB1632A2B1C1F81472D0F8D42200EBC8
:102890008200D0F8C40203692BB1D1F808022246A5
:1028A00001F5047198470020BDE8F0810320FBE7A3
:1028B00000231A462146AF6100F0D5FDF3E770B55D
:1028C0000546D0F8D40205EB8000D0F8C04294B1A0
:1028D000284600F0AAFCC4F80C02D5F8D412D4F8AB
:1028E000040205EB8101D1F8C412CA6804F5037132
:1028F0009047002070BD032070BD000070B5224DD0
:102900000446297800F0D5FB2878002600F00F0057
:1029100000EB800004EB800086846978204600F09C
:10292000C8FB687800F00F0000EB800004EB80002B
:10293000A0F86461A978204600F0BBFBA87800F0FD
:102940000F0000EB800004EB80008684C684D4F87E
:10295000D40204EB8000D0F8C01299B1D0F8C402C0
:1029600040688047D4F8D40204EB8000D0F8C0025D
:1029700000F09DFFD4F8D40204EB8000C0F8C062E0
:10298000C4F8BC62002070BD7800002010B5D0F8FB
:10299000D41200EB8100D0F8C04284B1D0F8C41248
:1029A00059B194F80002FF2807D08B6894F80122EF
:1029B00021469847FF2084F80002002010BD032024
:1029C00010BD00000A210180004870477C000020F3
:1029D00070B5064682210C4800F0FBFA054601213D
:1029E000094800F0F6FA04468121074800F0F1FAA0
:1029F0000DB11021A971402104B1A18000B18180E5
:102A000043203080004870BD8800002070B5064625
:102A100082210D4800F0DDFA054601210A4800F048
:102A2000D8FA04468121084800F0D3FA0DB11021EC
:102A3000A9714FF4007104B1A18000B181804320DD
:102A40003080014870BD00008800002070B5064647
:102A500082210C4800F0BDFA05460121094800F02A
:102A6000B8FA04468121074800F0B3FA0DB11021ED
:102A7000A971402104B1A18000B181804320308040
:102A8000004870BD880000202DE9F04704464FF44F
:102A90000775284600F00CFF06004FF0000863D0D1
:102AA0002946FDF7EEFBD4F8D4023C4D04EB800040
:102AB0004FF01009C0F8C062C4F8BC62207C4FF42B
:102AC000007A0127F0B3402302222978204600F043
:102AD00019FC2878402300F00F0000EB800004EB85
:102AE0008000878402226978204600F00BFC687819
:102AF000082300F00F0000EB800004EB80000322AD
:102B0000A0F86471A978204601F00F0101EB810162
:102B100004EB8101A1F82690A97800F0F3FBA878D6
:102B200000F00F0000EB800004EB80008784C6F803
:102B30000482D4F8D402474604EB8000D0F8C402E3
:102B4000006800E018E006F501768047376177619C
:102B500032687AB1207CF8B140236978204600F0D1
:102B6000DDFB0020BDE8F087D4F8D41204EB81012E
:102B7000C1F8C0820220F5E7534602222978204698
:102B800000F0C0FB2878534600F00F0000EB8000F7
:102B900004EB80008784A5E75346DEE77800002039
:102BA00010B5D0F8D41200EB8101D1F8C01259B1A0
:102BB000027C084C002AD1F8042207D04023617817
:102BC00000F0ACFB002010BD032010BD4FF40073DB
:102BD000F5E700007800002039B1D0F8D42200EBEE
:102BE0008200C0F8C4120020704703207047D0F85C
:102BF000D42200EB8200D0F8C00218B1C0F8041251
:102C00000020704703207047D0F8D43200EB8300D7
:102C1000D0F8C00228B1C0F81022C0F80812002075
:102C20007047032070472DE9FC410646D0F8D402D6
:102C30000C4606EB80000021D0F8C0728DF8001021
:102C4000ADF804100D4637B1217811F060022FD095
:102C5000202A4BD102E00320BDE8FC81E288F2B1DA
:102C600009060DD5D0F8C40263783946D0F808C0FB
:102C70001846E047E288072A00D9072239462DE0A6
:102C8000607887F80002E088402800D34020C2B274
:102C900087F801223946304600F081F82BE0D0F861
:102CA000C40263780022866821461846B04722E0B5
:102CB000607830B101281ED00A2809D00B2815D120
:102CC00010E096F89C02032810D1022201A905E029
:102CD00096F89C02032809D101226946304600F08B
:102CE00078F808E096F89C02032804D02146304684
:102CF00000F04AF803252846AEE7000010B5D0F8EA
:102D0000D41200EB8101D1F8C02201211AB1D2F80E
:102D1000143213B116E0032010BD0121C2F81412C1
:102D20000949D2F81032097801F00F0404EB840449
:102D300000EB8404A361D2F81032D2F8082200F02C
:102D400092FB0021084610BD7800002010B5D0F895
:102D5000B82200245268904700B10324204610BDD9
:102D60000020704700207047134610B50A46002126
:102D700000F0D4FA002010BD134610B50A46002119
:102D800000F071FB002010BD10B50446802100F05A
:102D90004FFB2046BDE81040002100F049BB10B5B4
:102DA0000323C0F89432C0F858211346C0F85C21C0
:102DB0000A46002100F0B2FA002010BD10B505212E
:102DC000C0F8941200231A46194600F0A7FA002012
:102DD00010BD10B50223C0F8943282611346C2615F
:102DE0000A46002100F03FFB002010BD10B5042171
:102DF000C0F8941200231A46194600F034FB002054
:102E000010BD000010B50A46024903A000F005F904
:102E1000004810BDD404002043444320436F6E6635
:102E200069670000122008800048704720000020D9
:102E300010B50A46024903A000F0EFF8004810BDA3
:102E4000D404002043444320496E74657266616374
:102E50006500000004200880004870471C00002026
:102E600010B50A46024903A000F0D7F8004810BD8B
:102E7000D404002053544D6963726F656C656374AC
:102E8000726F6E696373000010B50A46024903A0B1
:102E900000F0C3F8004810BDD404002053544D3353
:102EA00032205669727475616C20436F6D506F7279
:102EB0007400000010B51A2008800A480168001D3F
:102EC0000468001D0068081809D008220649FFF7A9
:102ED0004FF90549042210312046FFF749F902480D
:102EE000801E10BD107AFF1F36000020F8B5044682
:102EF0000020ADF8000048880D46010A08295FD27D
:102F0000DFE801F05E0409175E5E3C45D4F8B412B8
:102F1000207C0A6819E0207C02260028D4F8B80238
:102F200005D0C16A684688470146467039E0816A23
:102F3000F8E7C0B2062843D2DFE800F0030A101415
:102F4000181CD4F8B402426805E0694690471CE0BA
:102F5000D4F8B402826892B3207CF6E7D4F8B402C5
:102F6000C268F8E7D4F8B4020269F4E7D4F8B4020E
:102F70004269F0E7D4F8B4028269ECE7207CF0B94A
:102F8000D4F8B802416B68468847014609E0207CC6
:102F9000A8B9D4F8B802016B6846884701460720F3
:102FA0004870EA888AB1BDF8000040B1824200D979
:102FB0000246ADF800202046FFF70BFFF8BDFFE703
:102FC00029462046FFF7E0FEF8E72046FFF70EFF10
:102FD000F4E778B50E4642880178002504468A4217
:102FE00012D9ADF800100AE0694600F00FF84178F8
:102FF000052904D181780546B14205D000256188B4
:10300000BDF800209142EFD8284678BD0A880378A1
:103010001A440A8001780844704770B500230028DC
:103020001ED00025044602E06D1CEDB2641C26781B
:10303000002EF9D1022404EB450414801278CA54FE
:103040005B1C0322CA5400245B1C06E0CA545B1CB0
:10305000DAB28C54521CD3B2401C0278002AF5D14B
:1030600070BD01004FF0000004D0012901D00229F9
:1030700001D0032070470120704778B10023C0F8C9
:10308000B832C0F8C432C0F8D03209B1C0F8B412B6
:10309000012180F89C12027000F0CCB80320704728
:1030A00010B5D0F8C802FDF70CFEBDE81040FFF7E0
:1030B000D8BF10B5D0F8C802FDF7DDFDBDE810405F
:1030C000FFF7CFBF2DE9F04117460446002521B197
:1030D00094F89C02032842D04CE0D4F8941204F1F6
:1030E0001400022935D1D0E902639E4206D9F21AB2
:1030F000826039462046FFF73FFE0FE0B34214D10D
:103100004068984211D3D4F8981288420DD2002218
:1031100011462046FFF730FEC4F8985200231A46A5
:103120001946204600F0FAF813E094F89C020328B0
:1031300008D1D4F8B802C16821B1C4F8D452C1682A
:10314000204688478021204600F072F92046FFF78C
:1031500035FE94F8A00268B184F8A0520AE0D4F8D1
:10316000B802426932B1C4F8D4524269204690474D
:10317000002800D10020BDE8F08170B51346044658
:10318000002221B194F89C02032830D03AE0D4F810
:10319000941204F5AA70032934D1D0E902518D426A
:1031A0000AD96A1A82600846824200D3024619464A
:1031B0002046FFF7D9FD25E094F8AA0210F01F0081
:1031C00003D0012802D0022800D0002294F89C02EB
:1031D000032808D1D4F8B802016921B1C4F8D42277
:1031E0000169204688472046FFF700FE0AE0D4F830
:1031F000B802836933B1C4F8D4228269204690476B
:10320000002800D1002070BD0020704710B50024B8
:10321000012180F89C12D0F8B82222B152680179BD
:10322000904700B10324204610BDD0F8C802FDF736
:1032300076BD000010B5017839BB15490222C1F8EE
:103240000805C0F8C8124FF0A0400860042048608C
:103250000020C1E90320C1E9062008624862C86273
:1032600008630846FEF7CAF808B1FDF7C3FA8021E3
:103270000748FDF7B0FC402200210548FDF7AFFCF0
:10328000802201210248FDF7AAFC002010BD0000A9
:10329000C41000200A0601F07F01D0F8C80201EB3B
:1032A000C10100EB810002D590F83E00704790F814
:1032B0007E02704710B5D0F8D42200EB8202D2F81B
:1032C000B82222B190F89C32032B02D004E00320F4
:1032D00010BD126A02B19047002010BD10B5D0F8A1
:1032E000D42200EB8202D2F8B82222B190F89C32AC
:1032F000032B02D004E0032010BD526A02B19047B4
:10330000002010BD10B51C461346D0F8C802224656
:10331000FDF70EFDBDE81040FFF7A3BE10B5D0F8D5
:10332000C802FDF735FDBDE81040FFF79ABE2DE954
:10333000F04100260125044680F89C52C4F89462AE
:103340006660C4F8A46280F8A062D0F8B80230B118
:10335000426822B100212046904700B10326002296
:10336000402311462046FFF7CDFF4027A4F86451C3
:103370003B46002280212046C4F86071FFF7C2FF5F
:10338000A58430462762BDE8F08190F89C1204299C
:1033900003D190F89D1280F89C120020704710B560
:1033A00090F89C12032905D1D0F8B81211B1C9695F
:1033B00001B18847002010BD01740020704710B58E
:1033C000D0F8C802FEF7E9F8BDE81040FFF749BEA3
:1033D00070B5044600F2AA20054600F04DF8012021
:1033E000C4F89402B4F8B002C4F8980294F8AA029F
:1033F00010F01F010AD001290ED0022912D000F0CE
:1034000080012046BDE8704000F012B829462046F1
:10341000BDE8704000F0CCB829462046BDE87040B9
:1034200000F00CBA29462046BDE8704000F056B9BD
:1034300010B5D0F8C802FDF7CFFCBDE81040FFF78B
:1034400010BE10B5D0F8C802FEF7C2F8BDE81040B3
:10345000FFF707BE90F89C1280F89D12042180F8B7
:103460009C120020704710B5D0F8C802FDF7EEFCA2
:10347000BDE81040FFF7F5BD70B5054611F8010B2A
:103480002870087868704C1C2046FFF7AAF86880FE
:10349000A41C2046FFF7A5F8A880A01CFFF7A1F800
:1034A000E88070BD38B504460020ADF80000A1B139
:1034B000C4F8B812D4F8D40204EB8000D0F8B802F3
:1034C000C16A19B168468847C4F8D002D4F8D80256
:1034D000401CC4F8D802002038BD032038BD024685
:1034E0000020D2F8B832002B02D01B6810461847D3
:1034F000704700002DE9F04188462B4E8978002561
:1035000004463170012906D941462046FFF73CFCAC
:103510000320BDE8F08194F89C02022702280CD019
:1035200003281DD041462046FFF72EFC3178204667
:10353000FFF70CFC03252846EBE789B320466160C2
:10354000FFF7CDFF050004D041462046FFF71CFCE5
:103550001DE02046FFF74AFC032084F89C02EAE7BE
:10356000C1B1606888421BD0C1B22046FFF7EEFBB4
:10357000317820466160FFF7B2FF050010D0414668
:103580002046FFF701FC21792046FFF7DFFB84F896
:103590009C72D0E784F89C7220466160FFF7D6FBEE
:1035A0002046FFF723FCC6E774000020FFF749BF61
:1035B0002DE9F0410A78002512F060020CD0202A93
:1035C00001D0402A7DD1D0F8D42200EB8202D2F87B
:1035D000B8229268904731E04B78002201260A2BEE
:1035E0006FD2DFE803F041666E586E08056E2D2934
:1035F000FFF77CFC67E004468888D8B9C888C8B95A
:103600004888802816D200F07F0794F89C0203288F
:1036100010D084F89E7239462046FFF7D0FE20462F
:10362000FFF7E4FB1FB1022084F89C024BE084F812
:103630009C6248E0204644E0FFF75CFF054642E01C
:10364000CB88012B3DD190F89C32012B04D0022B6A
:1036500002D0032B35D104E08260012200F1080181
:1036600016E00122011D13E090F89C22012A03D0EC
:10367000022A01D0032A24D1CA88022A21D1C66095
:10368000D0F8A41209B10321C160022200F10C019B
:10369000FFF79FFB17E04A88012A02D0022A03D0D5
:1036A0000FE0C0F8A46216E08988090A80F8A01229
:1036B00011E090F89C32012B08D0022B06D0032B8E
:1036C00004D0FFF761FB2846BDE8F0814988012955
:1036D000F9D1C0F8A422FFF789FBF4E72DE9F04106
:1036E000054608780C790E464FF0000810F060008F
:1036F0000BD0202801D040286AD121462846FFF768
:103700002FFBFF2800D0D8B395E07078C8B301280C
:1037100024D003285CD195F89C02022802D003280B
:1037200056D10CE0002C53D0802C51D02146284695
:10373000FFF77EFE80212846FFF77AFE7BE0708847
:1037400040B93CB1802C05D0C88818B9214628461C
:10375000FFF76EFE2846FFF749FB6CE095F89C02E8
:103760000228DFD0032863D1708880BB600603D0B5
:1037700021462846FFF794FC2846FFF737FBBCE7B5
:1037800000E00AE0C5F8D402D5F8B8028268F2B1C8
:1037900031462846904780464DE095F89C02002728
:1037A000022802D0032843D113E00CB1802C3FD172
:1037B000200604F07F0000EB800005EB800101D5BE
:1037C000143101E001F5AA7102220F602CE032E011
:1037D0002EE0200604F00F0000EB800005EB8000D7
:1037E00009D5808C20B304F07F0000EB800005EB4E
:1037F000800614360AE0B0F86401C8B104F07F0016
:1038000000EB800005EB800606F5AA764CB1802C13
:1038100007D021462846FFF73DFD10B1012030605A
:1038200000E03760022231462846FFF7D2FA02E074
:103830002846FFF7A9FA4046BDE8F08170B5054675
:10384000087800240E4610F0600003D0202801D034
:10385000402827D195F89C02012803D0022801D0E6
:1038600003281FD1B088C1B201291AD8C1B2284695
:10387000FFF778FAFF280CD058B9D5F8B8128A6843
:103880003AB1C5F8D4028A683146284690470446C2
:1038900000E00324F088204307D12846FFF7A6FA6A
:1038A00003E031462846FFF76FFA204670BD7047A7
:1038B00000487047A40E002070B50A78012302F07A
:1038C0000F054E78AB401B4CD0F81C58012E17D07A
:1038D00045EA0343C0F81C3800EB4210D0F8002B37
:1038E00012040BD4D0F8002B8B890979C3F30A0397
:1038F0001A4344EA81410A43C0F8002B002070BDFE
:103900009BB21D43C0F81C5800EB4210D0F80039A0
:103910001B04F3D4D0F800398D890979C5F30A0561
:1039200089042B4341EA82510B432343C0F80039F9
:10393000E4E7000000800010D0F800196FF30A01DE
:10394000C0F80019D0F8041841F48071C0F80418C8
:103950000020704770B5044606990A9E049D0D9894
:10396000012916D0E06840F04000E060204600F0F9
:103970002BF8A16B1EB321F48031A163012D07D177
:10398000A16841F00601A160A16841F02001A16099
:1039900070BDA16B21F48031A163E168094A114037
:1039A000E160E16821F44011E160012803D1E068A1
:1039B00040F48010E060204600F006F8DEE741F4B5
:1039C0008031DAE7BFFFBDFF08B500220D49009244
:1039D000009B5B1C00938B420CD80369002BF7DA29
:1039E0000092026942F001020261009A521C0092A8
:1039F0008A4201D9032008BD0269D207F5D100200F
:103A000008BD0000400D030030B54C780A78012352
:103A100000EB4212012C2CD0D2F8004B002C0BDA18
:103A2000D2F8004B44F00064C2F8004BD2F8004BCF
:103A300044F08044C2F8004BD0F83C580C7804F0B5
:103A40000F0403FA04F425EA0444C0F83C48D0F813
:103A50001C48097801F00F018B4024EA0341C0F8AB
:103A60001C18D2F8000B19490840C2F8000B0020BE
:103A700030BDD2F80049002C0BDAD2F8004944F0EE
:103A80000064C2F80049D2F8004944F08044C2F80A
:103A90000049D0F83C480D7805F00F0503FA05F50C
:103AA000ADB2AC43C0F83C48D0F81C48097801F0EE
:103AB0000F018B4099B28C43C0F81C48D2F8000922
:103AC00003490840C2F80009D1E700000078F3EF8D
:103AD000007833ECD0F8001E21F00301C0F8001E7E
:103AE000D0F8041821F00201C0F804180020704733
:103AF000D0F8001E21F00301C0F8001ED0F8041811
:103B000041F00201C0F80418002070472DE9F04F81
:103B100000250E460446DDF82CC0DDF824B0109FC9
:103B20002846294604EB8002C2F80411401C0F28E5
:103B3000F8D32046C7B1806B20F40012A263A06BBB
:103B400040F40022A26308468846C4F8000ED4F868
:103B500000182046C4F80018BCF1010F16D0D0F8A8
:103B6000001841F0030116E0D0F8040840F002020A
:103B7000C4F80428A06B40F40012A263A06B20F4E8
:103B80000022A263A06B20F48022DBE7D0F80018AB
:103B90000BB141F00101C0F80018102100F0EEFA5D
:103BA00000B10125204600F0CBFA00B101254046C6
:103BB000C4F81088C4F81488C4F81C8800214FF099
:103BC00000694FF0904A4FF67F3314E004EB411246
:103BD000D2F800C9BCF1000F06DA11B1C2F800A991
:103BE00004E0C4F8009901E0C2F80009C2F8100925
:103BF000C2F80839491C8E42E8D8002115E000BF00
:103C000004EB4112D2F800CBBCF1000F06DA11B17F
:103C1000C2F800AB04E0C4F8009B01E0C2F8000B5E
:103C2000C2F8100BC2F8083B491C8E42E8D8D4F801
:103C3000101821F48072C4F81028A0616FF0804041
:103C40006061BBF1000F03D1A06940F01000A061DA
:103C5000A06909490843A0610C9818B1A06940F017
:103C60000800A061012F03D1A06904490843A061A5
:103C70002846BDE8F08F000000383C80040000407A
:103C8000816821F0010181600020704770B50D78D6
:103C90004E78444CEBB200EB4313012E21D0D3F805
:103CA000100B6FF31200C3F8100BD3F8100B204069
:103CB000C3F8100B886908B1C8688861C868C86112
:103CC000D3F8100B40F40020C3F8100BD3F8100BFE
:103CD000CC69C4F312042043C3F8100B012A55D059
:103CE00058E08E69002ED3F8106932D06FF31206B7
:103CF000C3F81069D3F810692640C3F810698E69BB
:103D0000CC68A64200D98C61D3F8104944F4002451
:103D1000C3F81049D3F810498E69C6F3120634432C
:103D2000C3F81049012A22D000EB4512D2F800391D
:103D300043F00443C2F800398A6932B3D0F834281A
:103D4000097801F00F03012199400A43C0F8342893
:103D500026E02640C3F81069D3F8104944F4002443
:103D6000C3F81049D3F810496FF31204D8E7496932
:103D700019B100EB4512C2F8141900EB4510D0F848
:103D8000001941F00441C0F8001909E0086908B1C0
:103D9000C3F8140BD3F8000B40F00440C3F8000B39
:103DA000002070BDFFFF07E010B5036C134CA34269
:103DB00003D9D0F8003B002B1EDB0023C0F8103BDA
:103DC000D0F8103B43F40023C0F8103BD0F8103B70
:103DD00043F01803C0F8103BD0F8103B43F0C04349
:103DE000C0F8103B012907D1C0F8142BD0F8001BF4
:103DF00041F08021C0F8001B002010BD0A30544F54
:103E00004A780B78012A00EB43100BD0D0F8002B36
:103E100022F40012C0F8002B0979032914D00229DA
:103E200012D017E0D0F8002922F40012C0F80029BF
:103E30000979032901D002290CD1D0F8001941F0E9
:103E40008051C0F8001905E0D0F8001B41F0805106
:103E5000C0F8001B002070470A784B78D1B200EB05
:103E60004110012B12D0D0F8001B002906DB2AB12B
:103E7000D0F8001B21F08041C0F8001BD0F8001BD7
:103E800041F40011C0F8001B00207047D0F8001961
:103E9000002906DB2AB1D0F8001921F08041C0F8D2
:103EA0000019D0F8001941F40011C0F80019EBE72F
:103EB000F8B50C784F78764DE3B26FF0604600EBC2
:103EC0004313012F27D0D3F8104B6FF31204C3F81C
:103ED000104BD3F8104B2C40C3F8104B8D69002DBC
:103EE00075D0CC6825446D1EB5FBF4F5ADB26C43BE
:103EF000CC61D3F8104B06EAC5452C43C3F8104BF0
:103F0000D3F8104BCD69C5F312052C43C3F8104B01
:103F1000012A71D0A4E08F691FB3D3F810796FF331
:103F20001207C3F81079D3F810792F40C3F810792D
:103F30008F69CD682F447F1EB7FBF5F506EAC545AE
:103F4000D3F810693543C3F81059D3F810598E6966
:103F5000C6F312063543C3F810590D79012D10D060
:103F60001BE0D3F810692E40C3F81069D3F810593C
:103F700045F40025C3F81059D3F810596FF3120512
:103F800009E0D3F8105925F0C045C3F81059D3F80B
:103F9000105945F00055C3F81059012A18D000EB0C
:103FA0004413D3F8004944F00444C3F800490C79A1
:103FB000012C2FD08A6962B3D0F83428097801F037
:103FC0000F03012199400A43C0F834285EE036E02F
:103FD0004A691AB100EB4413C3F81429097901297D
:103FE0000FD1D0F80818C90500EB4411D1F8002909
:103FF00003D442F0005202E02EE042F08052C1F8B9
:10400000002900EB4410D0F8001941F00441C0F839
:1040100000193BE0D0F80848E405D3F8004902D481
:1040200044F0005401E044F08054C3F80049009289
:104030000A8B93B20A78096900F0D0F926E0D3F828
:10404000104BCD68C5F312052C43C3F8104BD3F8C1
:10405000104B44F4002459E70A690AB1C3F8142B41
:10406000097901290CD1D0F80808C005D3F8000B54
:1040700002D440F0005001E040F08050C3F8000B43
:10408000D3F8000B40F00440C3F8000B0020F8BD4B
:10409000FFFF07E038B50022009213464D780A78FA
:1040A00042F2107400EB4212012D19D0D2F8005BDD
:1040B000002D3CDAD2F8005B45F00065C2F8005BE9
:1040C0000A7800EB4212D2F8005B45F08045C2F856
:1040D000005B009A521C0092A24221D9012326E0E3
:1040E000D2F80059002D22DAD2F8005945F00065C7
:1040F000C2F800590A7800EB4212D2F8005945F094
:104100008045C2F80059009A521C0092A242E5D89C
:104110000A7800EB4212D2F80029002AF3DB06E00D
:104120000A7800EB4212D2F8002B002AD1DB1846A5
:1041300038BD816841F001018160002070470000B6
:1041400008B500220C490092009B5B1C00938B4237
:104150000AD80369002BF7DA009210220261009A54
:10416000521C00928A4201D9032008BD0269D2067E
:10417000F5D4002008BD0000400D030018B5002351
:104180000D4A0093009C641C009494420CD804696E
:10419000002CF7DA0093202343EA81110161009992
:1041A000491C0091914201D9032018BD016989067B
:1041B000F5D4002018BD0000400D0300D0F8080819
:1041C00010F0060004D0022803D0062801D00F20EA
:1041D000704702207047406900F001007047D0F836
:1041E0001818D0F81C08084080B27047D0F818188A
:1041F000D0F81C080840000C704710B5D0F81038F3
:10420000D0F8342801F00F0400EB4110E24002F036
:104210000102D0F8080943EAC212104010BD00EBB9
:104220004111D1F8081BD0F81408084070474169C3
:1042300080690840704730B503460846940802F08C
:104240000301002203F5805303E01D6840F8045B7E
:10425000521CA242F9D300290BD01C680022D500C1
:1042600024FA05F3491E521C090400F8013B090C0D
:10427000F5D130BD70B50446C068002520F0C040BF
:10428000E060012901D079B120E0E06840F0005001
:10429000E0600120FCF7B0FA60696D1C10F0010FBE
:1042A00010D1322DF5D30DE0E06840F08040E060A1
:1042B0000120FCF7A1FA60696D1C10F0010F01D01C
:1042C000322DF5D3322D01D0002070BD012070BDFC
:1042D000D0F8002822F4FE62C0F80028D0F80028A8
:1042E0004FF4FE6303EA01110A43C0F800280020DE
:1042F00070470000022A3ED1264A274B0A449A42C0
:1043000001D20F2138E0254A254B0A449A4201D2B6
:104310000E2131E0234A244B0A449A4201D20D2156
:104320002AE0224A224B0A449A4201D20C2123E07D
:10433000204A214B0A449A4201D20B211CE01F4A19
:104340001F4B0A449A4201D20A2115E01D4A1E4B16
:104350000A449A420FD31D4A1D4B0A449A4201D285
:10436000082109E01B4A11441B4A914201D207214E
:1043700002E0062100E00921C26822F47052C26006
:10438000C2684FF4705303EA81210A43C2600020DF
:1043900070470000405327FF00350C00401E1BFFF4
:1043A00040420F0000DC0BFF804F1200808CF9FEB2
:1043B00020D6130060B6E5FE60E3160000D3CEFE03
:1043C00040771B00C05BB3FEC091210000CA91FE84
:1043D00020753800E05459FEE09C410010B5029C65
:1043E00074B9DB1C9C0800EB0230002300F5805000
:1043F00004E000BF51F8042B02605B1CA342F9D318
:10440000002010BDFEE700007CB50C001D461646DE
:10441000014601D0601E00E00020CDE90010064BEF
:104420006A462946304600F0EBF8002C02D0009A8C
:10443000002111707CBD0000074D00080907090E1E
:10444000002804DB00F1E02080F80014704700F041
:104450000F0000F1E02080F8141D704702E008C84A
:10446000121F08C1002AFAD170477047002001E0EE
:1044700001C1121F002AFBD1704700002DE9FF5F28
:1044800082B00021DDE90430020DDDF840B00343C5
:1044900018D044F61050A2F2FF324243151411987E
:1044A00001281FD0A5EB0B00401C5FEA000A4FF06B
:1044B00000064E4FDFF83891B046504615D5CAF188
:1044C000000413E0119801244AA3012801D16FEAE6
:1044D0000B010298119AC0E90031C0E9024206B00E
:1044E000BDE8F09FCBF10000DFE704460021404A21
:1044F000491842EB0450CDE9001012E0E00707D064
:1045000032463B4640464946FBF793FF8046894684
:1045100032463B4610461946FBF78BFF06460F46D0
:104520006410002CEAD1DDE90401DDE90023BAF1D1
:10453000000F06DAFBF77DFF42464B46FBF779FF9B
:1045400005E0FBF7E8FF42464B46FBF7E4FF044675
:104550000E460022284BFCF765F803D84FF0FF30D9
:10456000014607E00022254B20463146FBF7BAFE04
:10457000FCF740F8102409E0002C0ADB0A22002393
:10458000FBF726FE039B30321A55641E50EA0102E7
:10459000F2D1641C039AC4F111031444119A012A44
:1045A00003D0012208430DD10AE0084304D00020C3
:1045B0004FF0110B119072E7A3EB0B056D1E0DE090
:1045C0005B4504DD4FF0000205F1010504E003DA6C
:1045D0004FF00002A5F10105002AECD002981199D4
:1045E000C0E90231C0E9004579E70000000014404D
:1045F0000000F03F300000000000F0430000E03F0A
:104600002DE9FF4F95B09A46884606460025EEE113
:10461000252877D100242746F94A0121039400E098
:10462000044316F8013F203B01FA03F01042F7D192
:1046300030782A2811D06FF02F033078A0F13002A3
:10464000092A16D8039A44F0020402EB820203EB13
:1046500042021044761C0390EFE758F8042B0392B3
:10466000002A03DA504244F40054039044F0020458
:10467000761C30782E2816D116F8010F44F0040469
:104680002A280DD06FF02F023078A0F13003092BCB
:1046900009D807EB870302EB4303C718761CF3E73F
:1046A00058F8047B761C30786C280FD006DC4C2838
:1046B00017D068280DD06A2814D104E0742810D0CF
:1046C0007A280FD10DE044F400140AE044F4801479
:1046D00001E044F440147278824202D104F580145F
:1046E000761C761C307866280BD013DC582877D0DF
:1046F00009DC002875D04528F6D04628F4D0472894
:104700001AD193E118E0632835D0642879D0652860
:1047100012D18BE1702873D008DC6728F1D06928AA
:104720006FD06E280DD06F2806D1ACE073282CD046
:10473000752874D0782853D05246179990476D1C2D
:1047400054E1C4F30250022809D003280DD0D8F850
:10475000001004280DD00D6008F1040846E1D8F8D7
:104760000010EA17C1E90052F6E7D8F800100D80F2
:10477000F2E70D70F0E718F8041B8DF80010002028
:104780008DF80100EB46012003E058F804BB4FF020
:10479000FF3061074FF0000102D40DE009F1010183
:1047A0008946B9420FDA8145F8DB1BF80910002968
:1047B000F4D108E009F1010189468142FADB1BF8D6
:1047C00009100029F6D103985346A0EB09072146AA
:1047D0003846179A00F080FA284400EB090507E0F4
:1047E00044E008E10DE01BF8010B52461799904791
:1047F000B9F10109F7D2534621463846179AF2E03B
:1048000039E00A21C4F302524FF0000B0091022A52
:1048100006D058F8040BC117032A09D00AE023E098
:1048200008F1070020F00702F2E80201904605E0D7
:1048300000B2C117042A01D140B2C117002906DA1B
:104840000A460021404261EB02012D2202E02205CE
:1048500004D52B228DF80420012203E0E20701D0C9
:104860002022F7E7914657E00A2100E010214FF09F
:10487000000B00910BE010214FF0000B44F00404FA
:104880000827009103E008204FF0000B0090C4F3CC
:104890000252022A05D058F8040B0021032A08D03E
:1048A00008E008F1070020F00702F2E80201904654
:1048B00003E080B2042A00D1C0B24FF00009220701
:1048C0002AD53278702A07D0DDF800C08CF0100CA1
:1048D0005CEA0B0C05D00EE040228DF8042001228A
:1048E00008E050EA010306D030238DF804308DF83B
:1048F000052002229146009B83F0080353EA0B0334
:104900000AD150EA010201D1620705D530228DF8A3
:1049100004204FF001097F1E3278582A04D039A2B2
:104920000C920CAA02920BE03BA2F9E75B46009ABC
:10493000FBF74EFC0C9B9B5C029A521E029213707A
:1049400050EA0102F2D1029804A9081A00F1200BE2
:10495000600702D524F4803400E001275F4502DDC2
:10496000A7EB0B0000E0002000EB0B010090039888
:104970004944401A0390E00306D453462146179A4F
:10498000039800F0A9F90544002706E001A8524663
:10499000C05D179990476D1C7F1C4F45F6DBE00307
:1049A0000CD553462146179A039800F095F9054413
:1049B00004E030205246179990476D1C0099481E1C
:1049C00000900029F5DC08E0029802995246007830
:1049D000491C0291179990476D1CBBF10001ABF186
:1049E000010BF1DC5BE100F065F90544761C3078E1
:1049F00000287FF40DAE19B02846BDE8F08F000006
:104A000009280100303132333435363738396162A4
:104A10006364656600000000303132333435363768
:104A2000383941424344454600000000600700D445
:104A3000062708F1070020F00700F0E8022380466F
:104A400003F0004C5FEA0C0001D097A009E02005BC
:104A500001D596A005E0E00701D095A001E0AFF2F6
:104A60004C001390307823F0004365280CD006DC0E
:104A7000452809D046281DD047287FD13BE066282D
:104A800018D067287AD136E00021112F01DB1120E0
:104A900000E0781CCDE9000104A90CA8FFF7EEFCAA
:104AA000DDE90D010C9A4FF0000B07F1010910929E
:104AB00000914EE04FF000400097CDE9011004A9AD
:104AC0000CA8FFF7DBFCDDE90D020C9B0F994FF002
:104AD000000B91461093009211B9791C00EB01096B
:104AE000B7EB090003D4C0F1FF3B07F10109A9EBC3
:104AF0000700019042E0012F00DA01270021112F69
:104B000001DD112000E03846CDE9000104A90CA820
:104B1000FFF7B4FCDDE90D010C9A00914FF0000B9A
:104B2000B946109221070FD4009A4A4503DA9146FC
:104B300001E0A9F10109B9F1010F05DD109AA9F110
:104B40000101515C3029F4D0B84202DA10F1040FAF
:104B500003DA0121CDE9011010E0002803DC8344D1
:104B6000A9EB000102E0411C494500DD8946A0EBAC
:104B70000B00401C01904FF000400290200705D42C
:104B80000198484502DB4FF0FF30019000208DF87E
:104B90004B0002980DF14B07B0F1004F25D00220D9
:104BA0000C902B200D90029800280CDA40420290C5
:104BB0002D200D9007E00A210298FBF76DFB3031A4
:104BC000029007F8011D0C99481E0C900029F2DC98
:104BD00002980028EFD1791E0D980870307800F007
:104BE000200040F0450007F8020D11A8C01BC01DB1
:104BF00002901398007800B1012000EB09010198A0
:104C000001EBE071029801440398401A401E0390A2
:104C1000E00306D453462146179A039800F05CF847
:104C200005441398007818B15246179990476D1CA7
:104C3000E00323D553462146179A039800F04CF819
:104C400005441BE0BBF1000F07DB0098584504DD6D
:104C50001098179910F80B0001E017993020524670
:104C6000904701980BF1010B401E05F101050190E1
:104C700004D12E205246179990476D1CB9F10001BE
:104C8000A9F10109DEDC05E017F8010B524617997E
:104C900090476D1C0299481E02900029F4DC53468F
:104CA0002146179A03989EE62D0000002B00000075
:104CB000200000002DE9F041044600251E4617465D
:104CC000880404D405E039462020B0476D1C641EDA
:104CD000F9D52846BDE8F0812DE9F04104460025CC
:104CE0001E469046C80301D5302700E020278804DF
:104CF00004D505E041463846B0476D1C641EF9D521
:104D00002846BDE8F0814A68002A06D00A68531C8C
:104D10000B6010704868401E4860704702490148A7
:104D200008607047954F000810010020002801D04E
:104D300000F00AB9704710B500F00EF9040001D078
:104D400000F0F6F8204610BD10B500F036F8054921
:104D5000884205D003491039884201D0881710BD18
:104D6000002010BD1203CADE30B504460023054DF5
:104D700003E0E05C50405B1C2A5C8B42F9DB104690
:104D800030BD00001016002038B5002489B26B46F3
:104D9000042200F016F803216846425C491E02EB2B
:104DA0000424FAD5204638BD08B589B26B460122E5
:104DB00000F007F89DF8000008BD00210846FFF745
:104DC000E3BF38B50024009400F002F838BD0000BD
:104DD0002DE9FC41074616463944C1F304420898C0
:104DE000984601F07F011F2A27D87F2925D8B6F5DC
:104DF000445F22D24FF4004C48F2010360450AD0D0
:104E000048B1984207D0A0F50044023C03D0A0F579
:104E10000044033C11D1520242EA810240EA0204FA
:104E2000240A00F003058DF8044015438DF8055061
:104E30000EB151B10CE0604501D0AFF3008081218B
:104E400041EA47018DF8041012E060450ED068B1C8
:104E500044F040018DF804100224C11A284D9842F4
:104E60000DD007DC40B3604508D108E08DF8044060
:104E70000124F2E7012902D0022900D0FEE72868C8
:104E8000007D90B10022214601A8FFF76DFF024688
:104E900031464046FFF768FF00904346324601A97D
:104EA000204600F091F9BDE8FC814346324601A955
:104EB000204600F057F9F6E74346324601A920465E
:104EC00000F09CF82868007D0228ECD1182FEAD069
:104ED0000022214601A8FFF747FF0246314640461F
:104EE000FFF742FF044600211820FFF75DFF8442D0
:104EF000D9D02868406A0028D5D08047D3E7000081
:104F00000C010020FBF7AAFDFDF774FBFDF74CF93F
:104F1000FDF7D8F9FDF7F2F9FDF7B0F9FFF7FEFE5E
:104F200000F006F84FF47A70FBF766FCFEE700002D
:104F300004494FF48070C1F88001BFF34F8FBFF375
:104F40006F8F704704E000E002494FF48070C1F8B1
:104F50000001704704E000E02820FBF73BBC0000A4
:104F600002490020C8610846FCF72BBE140100204E
:104F700070B5064C064D02E0206800B18047012163
:104F80002846FBF753FD0028F6D170BD0401002030
:104F90000004024010B50DA000F0C6F8FFF7E0FFD6
:104FA00000F074F80220FDF721FBFFF7CDFE0400AE
:104FB00004D00AA000F0B8F8204610BDFFF7FDFEAF
:104FC00001460AA000F0B0F8F6E70000524541445F
:104FD000204445562049440D0A000000444556200F
:104FE0004944204641494C45440D0A004445562059
:104FF0004944203A202523780D0A00002DE9F05F6E
:105000001E4614468A460746FFF795FE81461D4810
:10501000FCF7D4FD0128FAD1002210211A48FBF731
:105020000AFD0025DFF85C804FF0FF3B08E000BF81
:105030000AEB05015B4601221248FCF755FE6D1C88
:10504000BD42F5DB00224046641EA4B20ED30168C7
:105050008B68DB439B07FBD4CA6001688B68DB432A
:10506000DB07FBD1C96806F8011BEDE7012210211F
:105070000548FBF7E0FC4846FFF758FE0020BDE876
:10508000F09F0000140100200000024010B586B01F
:10509000102000901120019000200B4C03906946D5
:1050A0002046FBF7D3FB002210212046FBF7C3FC70
:1050B000012000F04BF8002000F008F80220FBF778
:1050C0009BFB06B010BD00000004024070B5002438
:1050D000144E86B0102590B14FF488100095CDE99C
:1050E000010469463046FBF7B1FB0620FBF733FDB0
:1050F000002205210620FBF73BFD06B070BD06200F
:10510000FBF718FD11200095CDE901040220039062
:1051100069463046FBF79AFB012210213046FBF727
:105120008AFCEAE7000402400FB44FF47A7110B52C
:1051300003AB0548029AFFF767F981B20248FBF713
:105140002FFB10BC5DF814FBBC0A002000EB4000F4
:105150008100002001E000BF401C8842FBD30020FA
:10516000704700002DE9F047984614468A4681466C
:10517000FFF7E1FD05461248FCF720FD0128FAD1B2
:10518000104E002210213046FBF755FC4FF0FF3740
:105190003B464A4651460A48FCF7A6FD2CB13B4621
:1051A000224641460648FCF79FFD01221021304669
:1051B000FBF741FC2846FFF7B9FD0020BDE8F0876A
:1051C00014010020000002402DE9F0471D469046E2
:1051D00089460646FFF7AFFD04461448FCF7EEFC8F
:1051E0000128FAD1124F002210213846FBF723FC88
:1051F0000A23324649460D48FCF776FD0A2342460B
:1052000029460A48FCF770FD0A23012208A907482D
:10521000FCF76AFD012210213846FBF70CFC204602
:10522000FFF784FD0020BDE8F08700001401002096
:105230000000024000000000000000000102030422
:105240000607080900000000010203046C52000870
:1052500000000020140100005C4400088053000896
:1052600014010020FC1900006C440008252E0008E1
:10527000552E0008612E0008892E0008B52E000862
:10528000052E0008312E0008040309041201000253
:1052900002020040830440570002010203010000A3
:1052A0001A030000000000000000000000000000E1
:1052B000000000000000000000000000610700087E
:1052C0005D07000859070008850700089D070008CA
:1052D0000100000010000000000000000024F400A5
:1052E00000000000810182000A0600020000004068
:1052F0000100000009024300020100C0320904005D
:105300000001020201000524001001052401000132
:105310000424020205240600010705820308001088
:1053200009040100020A0000000705010240000014
:105330000705810240000000892A0008FD280008B6
:10534000272C0008000000008D29000849280008CB
:10535000BF2800080000000000000000000000005E
:105360000D2A0008D12900084D2A0008C529000887
:105370000000000000000000D01500200000000028
:040000050800019559
:00000001FF
